20130808-13:28:57.006 : 8=FIX.4.2|9=000132|35=A|49=4G8287N|50=ST1|56=CME|57=G|142=IL|1603=3redatf|1604=1|1605=3red|34=1|52=20130808-13:29:00.005|369=0|95=3|96=4G8|98=0|108=30|10=179|
20130808-13:28:57.008 : 8=FIX.4.2|9=65|35=A|34=1|49=CME|52=20130808-13:28:57.007|56=4G8287N|98=0|108=30|10=125|
20130808-13:29:27.321 : 8=FIX.4.2|9=53|35=0|34=2|49=CME|52=20130808-13:29:27.032|56=4G8287N|10=077|
20130808-13:29:33.327 : 8=FIX.4.2|9=62|35=1|34=3|49=CME|52=20130808-13:29:33.327|56=4G8287N|112=TEST|10=101|
20130808-13:29:34.292 : 8=FIX.4.2|9=000117|35=0|49=4G8287N|50=ST1|56=CME|57=G|142=IL|1603=3redatf|1604=1|1605=3red|34=2|52=20130808-13:29:37.291|369=3|112=TEST|10=116|
20130808-13:29:39.196 : 8=FIX.4.2|9=000247|35=D|49=4G8287N|50=ST1|56=CME|57=G|142=IL|1603=3redatf|1604=1|1605=3red|34=3|52=20130808-13:29:42.195|369=3|1=test|11=00000000000000000002|21=1|38=6|40=2|44=169525|54=1|55=ES|59=0|60=20130808-13:29:42.195|77=O|107=ESU3|167=FUT|204=1|1028=N|9702=1|10=156|
20130808-13:29:39.196 : 8=FIX.4.2|9=000247|35=D|49=4G8287N|50=ST1|56=CME|57=G|142=IL|1603=3redatf|1604=1|1605=3red|34=4|52=20130808-13:29:42.196|369=3|1=test|11=00000000000000000003|21=1|38=7|40=2|44=169500|54=1|55=ES|59=0|60=20130808-13:29:42.196|77=O|107=ESU3|167=FUT|204=1|1028=N|9702=1|10=154|
20130808-13:29:39.197 : 8=FIX.4.2|9=000247|35=D|49=4G8287N|50=ST1|56=CME|57=G|142=IL|1603=3redatf|1604=1|1605=3red|34=5|52=20130808-13:29:42.196|369=3|1=test|11=00000000000000000004|21=1|38=6|40=2|44=169475|54=1|55=ES|59=0|60=20130808-13:29:42.196|77=O|107=ESU3|167=FUT|204=1|1028=N|9702=1|10=166|
20130808-13:29:39.197 : 8=FIX.4.2|9=000247|35=D|49=4G8287N|50=ST1|56=CME|57=G|142=IL|1603=3redatf|1604=1|1605=3red|34=6|52=20130808-13:29:42.196|369=3|1=test|11=00000000000000000005|21=1|38=5|40=2|44=169450|54=1|55=ES|59=0|60=20130808-13:29:42.196|77=O|107=ESU3|167=FUT|204=1|1028=N|9702=1|10=160|
20130808-13:29:39.197 : 8=FIX.4.2|9=000247|35=D|49=4G8287N|50=ST1|56=CME|57=G|142=IL|1603=3redatf|1604=1|1605=3red|34=7|52=20130808-13:29:42.196|369=3|1=test|11=00000000000000000006|21=1|38=5|40=2|44=169550|54=2|55=ES|59=0|60=20130808-13:29:42.196|77=O|107=ESU3|167=FUT|204=1|1028=N|9702=1|10=164|
20130808-13:29:39.197 : 8=FIX.4.2|9=000247|35=D|49=4G8287N|50=ST1|56=CME|57=G|142=IL|1603=3redatf|1604=1|1605=3red|34=8|52=20130808-13:29:42.196|369=3|1=test|11=00000000000000000007|21=1|38=5|40=2|44=169575|54=2|55=ES|59=0|60=20130808-13:29:42.196|77=O|107=ESU3|167=FUT|204=1|1028=N|9702=1|10=173|
20130808-13:29:39.198 : 8=FIX.4.2|9=000247|35=D|49=4G8287N|50=ST1|56=CME|57=G|142=IL|1603=3redatf|1604=1|1605=3red|34=9|52=20130808-13:29:42.197|369=3|1=test|11=00000000000000000008|21=1|38=5|40=2|44=169600|54=2|55=ES|59=0|60=20130808-13:29:42.197|77=O|107=ESU3|167=FUT|204=1|1028=N|9702=1|10=166|
20130808-13:29:39.198 : 8=FIX.4.2|9=000248|35=D|49=4G8287N|50=ST1|56=CME|57=G|142=IL|1603=3redatf|1604=1|1605=3red|34=10|52=20130808-13:29:42.197|369=3|1=test|11=00000000000000000009|21=1|38=6|40=2|44=169625|54=2|55=ES|59=0|60=20130808-13:29:42.197|77=O|107=ESU3|167=FUT|204=1|1028=N|9702=1|10=216|
20130808-13:29:39.201 : 8=FIX.4.2|9=276|35=8|34=4|49=CME|50=G|52=20130808-13:29:39.201|56=4G8287N|57=ST1|143=IL|369=10|1=test|6=0|11=00000000000000000002|14=0|17=0000000000000000000000000000000000000001|20=0|37=00000000000000001|38=6|39=0|40=2|44=169525|48=17704|54=1|55=ES|60=20130808-13:29:39|107=ESU3|150=0|151=6|10=206|
20130808-13:29:39.202 : 8=FIX.4.2|9=276|35=8|34=5|49=CME|50=G|52=20130808-13:29:39.201|56=4G8287N|57=ST1|143=IL|369=10|1=test|6=0|11=00000000000000000003|14=0|17=0000000000000000000000000000000000000002|20=0|37=00000000000000002|38=7|39=0|40=2|44=169500|48=17704|54=1|55=ES|60=20130808-13:29:39|107=ESU3|150=0|151=7|10=205|
20130808-13:29:39.203 : 8=FIX.4.2|9=276|35=8|34=6|49=CME|50=G|52=20130808-13:29:39.202|56=4G8287N|57=ST1|143=IL|369=10|1=test|6=0|11=00000000000000000004|14=0|17=0000000000000000000000000000000000000003|20=0|37=00000000000000003|38=6|39=0|40=2|44=169475|48=17704|54=1|55=ES|60=20130808-13:29:39|107=ESU3|150=0|151=6|10=219|
20130808-13:29:39.204 : 8=FIX.4.2|9=276|35=8|34=7|49=CME|50=G|52=20130808-13:29:39.203|56=4G8287N|57=ST1|143=IL|369=10|1=test|6=0|11=00000000000000000005|14=0|17=0000000000000000000000000000000000000004|20=0|37=00000000000000004|38=5|39=0|40=2|44=169450|48=17704|54=1|55=ES|60=20130808-13:29:39|107=ESU3|150=0|151=5|10=215|
20130808-13:29:39.205 : 8=FIX.4.2|9=276|35=8|34=8|49=CME|50=G|52=20130808-13:29:39.204|56=4G8287N|57=ST1|143=IL|369=10|1=test|6=0|11=00000000000000000006|14=0|17=0000000000000000000000000000000000000005|20=0|37=00000000000000005|38=5|39=0|40=2|44=169550|48=17704|54=2|55=ES|60=20130808-13:29:39|107=ESU3|150=0|151=5|10=222|
20130808-13:29:39.205 : 8=FIX.4.2|9=276|35=8|34=9|49=CME|50=G|52=20130808-13:29:39.205|56=4G8287N|57=ST1|143=IL|369=10|1=test|6=0|11=00000000000000000007|14=0|17=0000000000000000000000000000000000000006|20=0|37=00000000000000006|38=5|39=0|40=2|44=169575|48=17704|54=2|55=ES|60=20130808-13:29:39|107=ESU3|150=0|151=5|10=234|
20130808-13:29:39.206 : 8=FIX.4.2|9=277|35=8|34=10|49=CME|50=G|52=20130808-13:29:39.205|56=4G8287N|57=ST1|143=IL|369=10|1=test|6=0|11=00000000000000000008|14=0|17=0000000000000000000000000000000000000007|20=0|37=00000000000000007|38=5|39=0|40=2|44=169600|48=17704|54=2|55=ES|60=20130808-13:29:39|107=ESU3|150=0|151=5|10=011|
20130808-13:29:39.207 : 8=FIX.4.2|9=277|35=8|34=11|49=CME|50=G|52=20130808-13:29:39.207|56=4G8287N|57=ST1|143=IL|369=10|1=test|6=0|11=00000000000000000009|14=0|17=0000000000000000000000000000000000000008|20=0|37=00000000000000008|38=6|39=0|40=2|44=169625|48=17704|54=2|55=ES|60=20130808-13:29:39|107=ESU3|150=0|151=6|10=026|
20130808-13:29:39.451 : 8=FIX.4.2|9=000256|35=F|49=4G8287N|50=ST1|56=CME|57=G|142=IL|1603=3redatf|1604=1|1605=3red|34=11|52=20130808-13:29:42.451|369=11|1=test|11=0000000000000000000A|37=1|41=00000000000000000002|54=1|55=ES|60=20130808-13:29:42.451|107=ESU3|167=FUT|1028=N|9717=00000000000000000002|10=147|
20130808-13:29:39.465 : 8=FIX.4.2|9=301|35=8|34=12|49=CME|50=G|52=20130808-13:29:39.456|56=4G8287N|57=ST1|143=IL|369=11|1=test|6=0|11=0000000000000000000A|14=0|17=0000000000000000000000000000000000000009|20=0|37=00000000000000001|38=6|39=4|40=2|41=00000000000000000002|44=169525|48=17704|54=1|55=ES|60=20130808-13:29:39|107=ESU3|150=4|151=6|10=131|
20130808-13:29:39.465 : 8=FIX.4.2|9=000256|35=F|49=4G8287N|50=ST1|56=CME|57=G|142=IL|1603=3redatf|1604=1|1605=3red|34=12|52=20130808-13:29:42.452|369=11|1=test|11=0000000000000000000B|37=6|41=00000000000000000007|54=2|55=ES|60=20130808-13:29:42.452|107=ESU3|167=FUT|1028=N|9717=00000000000000000007|10=167|
20130808-13:29:39.465 : 8=FIX.4.2|9=000256|35=F|49=4G8287N|50=ST1|56=CME|57=G|142=IL|1603=3redatf|1604=1|1605=3red|34=13|52=20130808-13:29:42.452|369=11|1=test|11=0000000000000000000C|37=8|41=00000000000000000009|54=2|55=ES|60=20130808-13:29:42.452|107=ESU3|167=FUT|1028=N|9717=00000000000000000009|10=175|
20130808-13:29:39.471 : 8=FIX.4.2|9=301|35=8|34=13|49=CME|50=G|52=20130808-13:29:39.469|56=4G8287N|57=ST1|143=IL|369=13|1=test|6=0|11=0000000000000000000B|14=0|17=000000000000000000000000000000000000000A|20=0|37=00000000000000006|38=5|39=4|40=2|41=00000000000000000007|44=169575|48=17704|54=2|55=ES|60=20130808-13:29:39|107=ESU3|150=4|151=5|10=161|
20130808-13:29:39.472 : 8=FIX.4.2|9=301|35=8|34=14|49=CME|50=G|52=20130808-13:29:39.472|56=4G8287N|57=ST1|143=IL|369=13|1=test|6=0|11=0000000000000000000C|14=0|17=000000000000000000000000000000000000000B|20=0|37=00000000000000008|38=6|39=4|40=2|41=00000000000000000009|44=169625|48=17704|54=2|55=ES|60=20130808-13:29:39|107=ESU3|150=4|151=6|10=160|
20130808-13:29:39.705 : 8=FIX.4.2|9=000249|35=D|49=4G8287N|50=ST1|56=CME|57=G|142=IL|1603=3redatf|1604=1|1605=3red|34=14|52=20130808-13:29:42.705|369=14|1=test|11=0000000000000000000D|21=1|38=6|40=2|44=169550|54=2|55=ES|59=0|60=20130808-13:29:42.705|77=O|107=ESU3|167=FUT|204=1|1028=N|9702=1|10=013|
20130808-13:29:39.723 : 8=FIX.4.2|9=277|35=8|34=15|49=CME|50=G|52=20130808-13:29:39.710|56=4G8287N|57=ST1|143=IL|369=14|1=test|6=0|11=0000000000000000000D|14=0|17=000000000000000000000000000000000000000C|20=0|37=00000000000000009|38=6|39=0|40=2|44=169550|48=17704|54=2|55=ES|60=20130808-13:29:39|107=ESU3|150=0|151=6|10=053|
20130808-13:29:39.724 : 8=FIX.4.2|9=000249|35=D|49=4G8287N|50=ST1|56=CME|57=G|142=IL|1603=3redatf|1604=1|1605=3red|34=15|52=20130808-13:29:42.705|369=14|1=test|11=0000000000000000000E|21=1|38=8|40=2|44=169525|54=1|55=ES|59=0|60=20130808-13:29:42.705|77=O|107=ESU3|167=FUT|204=1|1028=N|9702=1|10=018|
20130808-13:29:39.724 : 8=FIX.4.2|9=000249|35=D|49=4G8287N|50=ST1|56=CME|57=G|142=IL|1603=3redatf|1604=1|1605=3red|34=16|52=20130808-13:29:42.706|369=14|1=test|11=0000000000000000000F|21=1|38=8|40=2|44=169550|54=2|55=ES|59=0|60=20130808-13:29:42.706|77=O|107=ESU3|167=FUT|204=1|1028=N|9702=1|10=021|
20130808-13:29:39.729 : 8=FIX.4.2|9=277|35=8|34=16|49=CME|50=G|52=20130808-13:29:39.728|56=4G8287N|57=ST1|143=IL|369=16|1=test|6=0|11=0000000000000000000E|14=0|17=000000000000000000000000000000000000000D|20=0|37=00000000000000010|38=8|39=0|40=2|44=169525|48=17704|54=1|55=ES|60=20130808-13:29:39|107=ESU3|150=0|151=8|10=064|
20130808-13:29:39.729 : 8=FIX.4.2|9=277|35=8|34=17|49=CME|50=G|52=20130808-13:29:39.729|56=4G8287N|57=ST1|143=IL|369=16|1=test|6=0|11=0000000000000000000F|14=0|17=000000000000000000000000000000000000000E|20=0|37=00000000000000011|38=8|39=0|40=2|44=169550|48=17704|54=2|55=ES|60=20130808-13:29:39|107=ESU3|150=0|151=8|10=068|
20130808-13:29:41.632 : 8=FIX.4.2|9=292|35=8|34=18|49=CME|50=G|52=20130808-13:29:41.631|56=4G8287N|57=ST1|143=IL|369=16|1=test|6=0|11=0000000000000000000E|14=8|17=000000000000000000000000000000000000000F|20=0|31=169525|32=8|37=00000000000000010|38=8|39=2|40=2|44=169525|48=17704|54=1|55=ES|60=20130808-13:29:41|107=ESU3|150=2|151=0|10=233|
20130808-13:29:41.712 : 8=FIX.4.2|9=000249|35=D|49=4G8287N|50=ST1|56=CME|57=G|142=IL|1603=3redatf|1604=1|1605=3red|34=17|52=20130808-13:29:44.711|369=18|1=test|11=0000000000000000000G|21=1|38=8|40=2|44=169550|54=2|55=ES|59=0|60=20130808-13:29:44.711|77=O|107=ESU3|167=FUT|204=1|1028=N|9702=1|10=023|
20130808-13:29:41.717 : 8=FIX.4.2|9=277|35=8|34=19|49=CME|50=G|52=20130808-13:29:41.716|56=4G8287N|57=ST1|143=IL|369=17|1=test|6=0|11=0000000000000000000G|14=0|17=000000000000000000000000000000000000000G|20=0|37=00000000000000012|38=8|39=0|40=2|44=169550|48=17704|54=2|55=ES|60=20130808-13:29:41|107=ESU3|150=0|151=8|10=057|
20130808-13:29:51.987 : 8=FIX.4.2|9=000256|35=F|49=4G8287N|50=ST1|56=CME|57=G|142=IL|1603=3redatf|1604=1|1605=3red|34=18|52=20130808-13:29:54.987|369=19|1=test|11=0000000000000000000H|37=2|41=00000000000000000003|54=1|55=ES|60=20130808-13:29:54.987|107=ESU3|167=FUT|1028=N|9717=00000000000000000003|10=206|
20130808-13:29:51.993 : 8=FIX.4.2|9=301|35=8|34=20|49=CME|50=G|52=20130808-13:29:51.992|56=4G8287N|57=ST1|143=IL|369=18|1=test|6=0|11=0000000000000000000H|14=0|17=000000000000000000000000000000000000000V|20=0|37=00000000000000002|38=7|39=4|40=2|41=00000000000000000003|44=169500|48=17704|54=1|55=ES|60=20130808-13:29:51|107=ESU3|150=4|151=7|10=163|
20130808-13:29:51.993 : 8=FIX.4.2|9=000256|35=F|49=4G8287N|50=ST1|56=CME|57=G|142=IL|1603=3redatf|1604=1|1605=3red|34=19|52=20130808-13:29:54.987|369=19|1=test|11=0000000000000000000I|37=3|41=00000000000000000004|54=1|55=ES|60=20130808-13:29:54.987|107=ESU3|167=FUT|1028=N|9717=00000000000000000004|10=211|
20130808-13:29:51.993 : 8=FIX.4.2|9=000256|35=F|49=4G8287N|50=ST1|56=CME|57=G|142=IL|1603=3redatf|1604=1|1605=3red|34=20|52=20130808-13:29:54.987|369=19|1=test|11=0000000000000000000J|37=4|41=00000000000000000005|54=1|55=ES|60=20130808-13:29:54.987|107=ESU3|167=FUT|1028=N|9717=00000000000000000005|10=207|
20130808-13:29:51.993 : 8=FIX.4.2|9=000256|35=F|49=4G8287N|50=ST1|56=CME|57=G|142=IL|1603=3redatf|1604=1|1605=3red|34=21|52=20130808-13:29:54.988|369=19|1=test|11=0000000000000000000K|37=5|41=00000000000000000006|54=2|55=ES|60=20130808-13:29:54.988|107=ESU3|167=FUT|1028=N|9717=00000000000000000006|10=215|
20130808-13:29:51.993 : 8=FIX.4.2|9=000256|35=F|49=4G8287N|50=ST1|56=CME|57=G|142=IL|1603=3redatf|1604=1|1605=3red|34=22|52=20130808-13:29:54.988|369=19|1=test|11=0000000000000000000L|37=7|41=00000000000000000008|54=2|55=ES|60=20130808-13:29:54.988|107=ESU3|167=FUT|1028=N|9717=00000000000000000008|10=223|
20130808-13:29:51.994 : 8=FIX.4.2|9=000256|35=F|49=4G8287N|50=ST1|56=CME|57=G|142=IL|1603=3redatf|1604=1|1605=3red|34=23|52=20130808-13:29:54.988|369=19|1=test|11=0000000000000000000M|37=9|41=0000000000000000000D|54=2|55=ES|60=20130808-13:29:54.988|107=ESU3|167=FUT|1028=N|9717=0000000000000000000D|10=251|
20130808-13:29:51.994 : 8=FIX.4.2|9=000257|35=F|49=4G8287N|50=ST1|56=CME|57=G|142=IL|1603=3redatf|1604=1|1605=3red|34=24|52=20130808-13:29:54.988|369=19|1=test|11=0000000000000000000N|37=11|41=0000000000000000000F|54=2|55=ES|60=20130808-13:29:54.988|107=ESU3|167=FUT|1028=N|9717=0000000000000000000F|10=043|
20130808-13:29:51.994 : 8=FIX.4.2|9=000257|35=F|49=4G8287N|50=ST1|56=CME|57=G|142=IL|1603=3redatf|1604=1|1605=3red|34=25|52=20130808-13:29:54.989|369=19|1=test|11=0000000000000000000O|37=12|41=0000000000000000000G|54=2|55=ES|60=20130808-13:29:54.989|107=ESU3|167=FUT|1028=N|9717=0000000000000000000G|10=050|
20130808-13:29:51.998 : 8=FIX.4.2|9=301|35=8|34=21|49=CME|50=G|52=20130808-13:29:51.997|56=4G8287N|57=ST1|143=IL|369=25|1=test|6=0|11=0000000000000000000I|14=0|17=000000000000000000000000000000000000000W|20=0|37=00000000000000003|38=6|39=4|40=2|41=00000000000000000004|44=169475|48=17704|54=1|55=ES|60=20130808-13:29:51|107=ESU3|150=4|151=6|10=180|
20130808-13:29:51.999 : 8=FIX.4.2|9=301|35=8|34=22|49=CME|50=G|52=20130808-13:29:51.998|56=4G8287N|57=ST1|143=IL|369=25|1=test|6=0|11=0000000000000000000J|14=0|17=000000000000000000000000000000000000000X|20=0|37=00000000000000004|38=5|39=4|40=2|41=00000000000000000005|44=169450|48=17704|54=1|55=ES|60=20130808-13:29:51|107=ESU3|150=4|151=5|10=177|
20130808-13:29:52.000 : 8=FIX.4.2|9=301|35=8|34=23|49=CME|50=G|52=20130808-13:29:51.999|56=4G8287N|57=ST1|143=IL|369=25|1=test|6=0|11=0000000000000000000K|14=0|17=000000000000000000000000000000000000000Y|20=0|37=00000000000000005|38=5|39=4|40=2|41=00000000000000000006|44=169550|48=17704|54=2|55=ES|60=20130808-13:29:51|107=ESU3|150=4|151=5|10=185|
20130808-13:29:52.001 : 8=FIX.4.2|9=301|35=8|34=24|49=CME|50=G|52=20130808-13:29:52.000|56=4G8287N|57=ST1|143=IL|369=25|1=test|6=0|11=0000000000000000000L|14=0|17=000000000000000000000000000000000000000Z|20=0|37=00000000000000007|38=5|39=4|40=2|41=00000000000000000008|44=169600|48=17704|54=2|55=ES|60=20130808-13:29:52|107=ESU3|150=4|151=5|10=163|
20130808-13:29:52.002 : 8=FIX.4.2|9=301|35=8|34=25|49=CME|50=G|52=20130808-13:29:52.001|56=4G8287N|57=ST1|143=IL|369=25|1=test|6=0|11=0000000000000000000M|14=0|17=0000000000000000000000000000000000000010|20=0|37=00000000000000009|38=6|39=4|40=2|41=0000000000000000000D|44=169550|48=17704|54=2|55=ES|60=20130808-13:29:52|107=ESU3|150=4|151=6|10=145|
20130808-13:29:52.003 : 8=FIX.4.2|9=301|35=8|34=26|49=CME|50=G|52=20130808-13:29:52.002|56=4G8287N|57=ST1|143=IL|369=25|1=test|6=0|11=0000000000000000000N|14=0|17=0000000000000000000000000000000000000011|20=0|37=00000000000000011|38=8|39=4|40=2|41=0000000000000000000F|44=169550|48=17704|54=2|55=ES|60=20130808-13:29:52|107=ESU3|150=4|151=8|10=148|
20130808-13:29:52.004 : 8=FIX.4.2|9=301|35=8|34=27|49=CME|50=G|52=20130808-13:29:52.004|56=4G8287N|57=ST1|143=IL|369=25|1=test|6=0|11=0000000000000000000O|14=0|17=0000000000000000000000000000000000000012|20=0|37=00000000000000012|38=8|39=4|40=2|41=0000000000000000000G|44=169550|48=17704|54=2|55=ES|60=20130808-13:29:52|107=ESU3|150=4|151=8|10=155|
20130808-13:29:52.243 : 8=FIX.4.2|9=000249|35=D|49=4G8287N|50=ST1|56=CME|57=G|142=IL|1603=3redatf|1604=1|1605=3red|34=26|52=20130808-13:29:55.242|369=27|1=test|11=0000000000000000000P|21=1|38=8|40=2|44=169525|54=1|55=ES|59=0|60=20130808-13:29:55.242|77=O|107=ESU3|167=FUT|204=1|1028=N|9702=1|10=035|
20130808-13:29:52.248 : 8=FIX.4.2|9=277|35=8|34=28|49=CME|50=G|52=20130808-13:29:52.247|56=4G8287N|57=ST1|143=IL|369=26|1=test|6=0|11=0000000000000000000P|14=0|17=0000000000000000000000000000000000000013|20=0|37=00000000000000024|38=8|39=0|40=2|44=169525|48=17704|54=1|55=ES|60=20130808-13:29:52|107=ESU3|150=0|151=8|10=054|
20130808-13:29:52.249 : 8=FIX.4.2|9=292|35=8|34=29|49=CME|50=G|52=20130808-13:29:52.248|56=4G8287N|57=ST1|143=IL|369=26|1=test|6=0|11=0000000000000000000P|14=8|17=0000000000000000000000000000000000000014|20=0|31=169525|32=8|37=00000000000000024|38=8|39=2|40=2|44=169525|48=17704|54=1|55=ES|60=20130808-13:29:52|107=ESU3|150=2|151=0|10=243|
20130808-13:29:52.249 : 8=FIX.4.2|9=000249|35=D|49=4G8287N|50=ST1|56=CME|57=G|142=IL|1603=3redatf|1604=1|1605=3red|34=27|52=20130808-13:29:55.242|369=27|1=test|11=0000000000000000000Q|21=1|38=5|40=2|44=169525|54=1|55=ES|59=0|60=20130808-13:29:55.242|77=O|107=ESU3|167=FUT|204=1|1028=N|9702=1|10=034|
20130808-13:29:52.249 : 8=FIX.4.2|9=000249|35=D|49=4G8287N|50=ST1|56=CME|57=G|142=IL|1603=3redatf|1604=1|1605=3red|34=28|52=20130808-13:29:55.243|369=27|1=test|11=0000000000000000000R|21=1|38=7|40=2|44=169550|54=2|55=ES|59=0|60=20130808-13:29:55.243|77=O|107=ESU3|167=FUT|204=1|1028=N|9702=1|10=039|
20130808-13:29:52.249 : 8=FIX.4.2|9=000249|35=D|49=4G8287N|50=ST1|56=CME|57=G|142=IL|1603=3redatf|1604=1|1605=3red|34=29|52=20130808-13:29:55.243|369=27|1=test|11=0000000000000000000S|21=1|38=7|40=2|44=169550|54=2|55=ES|59=0|60=20130808-13:29:55.243|77=O|107=ESU3|167=FUT|204=1|1028=N|9702=1|10=041|
20130808-13:29:52.249 : 8=FIX.4.2|9=000249|35=D|49=4G8287N|50=ST1|56=CME|57=G|142=IL|1603=3redatf|1604=1|1605=3red|34=30|52=20130808-13:29:55.244|369=27|1=test|11=0000000000000000000T|21=1|38=6|40=2|44=169525|54=1|55=ES|59=0|60=20130808-13:29:55.244|77=O|107=ESU3|167=FUT|204=1|1028=N|9702=1|10=036|
20130808-13:29:52.249 : 8=FIX.4.2|9=000249|35=D|49=4G8287N|50=ST1|56=CME|57=G|142=IL|1603=3redatf|1604=1|1605=3red|34=31|52=20130808-13:29:55.244|369=27|1=test|11=0000000000000000000U|21=1|38=6|40=2|44=169550|54=2|55=ES|59=0|60=20130808-13:29:55.244|77=O|107=ESU3|167=FUT|204=1|1028=N|9702=1|10=037|
20130808-13:29:52.249 : 8=FIX.4.2|9=000249|35=D|49=4G8287N|50=ST1|56=CME|57=G|142=IL|1603=3redatf|1604=1|1605=3red|34=32|52=20130808-13:29:55.245|369=27|1=test|11=0000000000000000000V|21=1|38=5|40=2|44=169550|54=2|55=ES|59=0|60=20130808-13:29:55.245|77=O|107=ESU3|167=FUT|204=1|1028=N|9702=1|10=040|
20130808-13:29:52.250 : 8=FIX.4.2|9=000249|35=D|49=4G8287N|50=ST1|56=CME|57=G|142=IL|1603=3redatf|1604=1|1605=3red|34=33|52=20130808-13:29:55.245|369=27|1=test|11=0000000000000000000W|21=1|38=8|40=2|44=169525|54=1|55=ES|59=0|60=20130808-13:29:55.245|77=O|107=ESU3|167=FUT|204=1|1028=N|9702=1|10=046|
20130808-13:29:52.254 : 8=FIX.4.2|9=277|35=8|34=30|49=CME|50=G|52=20130808-13:29:52.253|56=4G8287N|57=ST1|143=IL|369=33|1=test|6=0|11=0000000000000000000Q|14=0|17=0000000000000000000000000000000000000015|20=0|37=00000000000000025|38=5|39=0|40=2|44=169525|48=17704|54=1|55=ES|60=20130808-13:29:52|107=ESU3|150=0|151=5|10=040|
20130808-13:29:52.255 : 8=FIX.4.2|9=292|35=8|34=31|49=CME|50=G|52=20130808-13:29:52.254|56=4G8287N|57=ST1|143=IL|369=33|1=test|6=0|11=0000000000000000000Q|14=5|17=0000000000000000000000000000000000000016|20=0|31=169525|32=5|37=00000000000000025|38=5|39=2|40=2|44=169525|48=17704|54=1|55=ES|60=20130808-13:29:52|107=ESU3|150=2|151=0|10=226|
20130808-13:29:52.256 : 8=FIX.4.2|9=277|35=8|34=32|49=CME|50=G|52=20130808-13:29:52.255|56=4G8287N|57=ST1|143=IL|369=33|1=test|6=0|11=0000000000000000000R|14=0|17=0000000000000000000000000000000000000017|20=0|37=00000000000000026|38=7|39=0|40=2|44=169550|48=17704|54=2|55=ES|60=20130808-13:29:52|107=ESU3|150=0|151=7|10=051|
20130808-13:29:52.256 : 8=FIX.4.2|9=277|35=8|34=33|49=CME|50=G|52=20130808-13:29:52.256|56=4G8287N|57=ST1|143=IL|369=33|1=test|6=0|11=0000000000000000000S|14=0|17=0000000000000000000000000000000000000018|20=0|37=00000000000000027|38=7|39=0|40=2|44=169550|48=17704|54=2|55=ES|60=20130808-13:29:52|107=ESU3|150=0|151=7|10=056|
20130808-13:29:52.257 : 8=FIX.4.2|9=277|35=8|34=34|49=CME|50=G|52=20130808-13:29:52.256|56=4G8287N|57=ST1|143=IL|369=33|1=test|6=0|11=0000000000000000000T|14=0|17=0000000000000000000000000000000000000019|20=0|37=00000000000000028|38=6|39=0|40=2|44=169525|48=17704|54=1|55=ES|60=20130808-13:29:52|107=ESU3|150=0|151=6|10=059|
20130808-13:29:52.258 : 8=FIX.4.2|9=292|35=8|34=35|49=CME|50=G|52=20130808-13:29:52.257|56=4G8287N|57=ST1|143=IL|369=33|1=test|6=0|11=0000000000000000000T|14=6|17=000000000000000000000000000000000000001A|20=0|31=169525|32=6|37=00000000000000028|38=6|39=2|40=2|44=169525|48=17704|54=1|55=ES|60=20130808-13:29:52|107=ESU3|150=2|151=0|10=253|
20130808-13:29:52.259 : 8=FIX.4.2|9=277|35=8|34=36|49=CME|50=G|52=20130808-13:29:52.258|56=4G8287N|57=ST1|143=IL|369=33|1=test|6=0|11=0000000000000000000U|14=0|17=000000000000000000000000000000000000001B|20=0|37=00000000000000029|38=6|39=0|40=2|44=169550|48=17704|54=2|55=ES|60=20130808-13:29:52|107=ESU3|150=0|151=6|10=073|
20130808-13:29:52.259 : 8=FIX.4.2|9=277|35=8|34=37|49=CME|50=G|52=20130808-13:29:52.259|56=4G8287N|57=ST1|143=IL|369=33|1=test|6=0|11=0000000000000000000V|14=0|17=000000000000000000000000000000000000001C|20=0|37=00000000000000030|38=5|39=0|40=2|44=169550|48=17704|54=2|55=ES|60=20130808-13:29:52|107=ESU3|150=0|151=5|10=067|
20130808-13:29:52.260 : 8=FIX.4.2|9=277|35=8|34=38|49=CME|50=G|52=20130808-13:29:52.259|56=4G8287N|57=ST1|143=IL|369=33|1=test|6=0|11=0000000000000000000W|14=0|17=000000000000000000000000000000000000001D|20=0|37=00000000000000031|38=8|39=0|40=2|44=169525|48=17704|54=1|55=ES|60=20130808-13:29:52|107=ESU3|150=0|151=8|10=078|
20130808-13:29:52.261 : 8=FIX.4.2|9=292|35=8|34=39|49=CME|50=G|52=20130808-13:29:52.260|56=4G8287N|57=ST1|143=IL|369=33|1=test|6=0|11=0000000000000000000W|14=8|17=000000000000000000000000000000000000001E|20=0|31=169525|32=8|37=00000000000000031|38=8|39=2|40=2|44=169525|48=17704|54=1|55=ES|60=20130808-13:29:52|107=ESU3|150=2|151=0|10=002|
20130808-13:29:52.500 : 8=FIX.4.2|9=000249|35=D|49=4G8287N|50=ST1|56=CME|57=G|142=IL|1603=3redatf|1604=1|1605=3red|34=34|52=20130808-13:29:55.499|369=39|1=test|11=0000000000000000000Y|21=1|38=7|40=2|44=169550|54=2|55=ES|59=0|60=20130808-13:29:55.499|77=O|107=ESU3|167=FUT|204=1|1028=N|9702=1|10=072|
20130808-13:29:52.505 : 8=FIX.4.2|9=277|35=8|34=40|49=CME|50=G|52=20130808-13:29:52.504|56=4G8287N|57=ST1|143=IL|369=34|1=test|6=0|11=0000000000000000000Y|14=0|17=000000000000000000000000000000000000001F|20=0|37=00000000000000032|38=7|39=0|40=2|44=169550|48=17704|54=2|55=ES|60=20130808-13:29:52|107=ESU3|150=0|151=7|10=067|
20130808-13:29:52.505 : 8=FIX.4.2|9=000249|35=D|49=4G8287N|50=ST1|56=CME|57=G|142=IL|1603=3redatf|1604=1|1605=3red|34=35|52=20130808-13:29:55.500|369=39|1=test|11=0000000000000000000Z|21=1|38=5|40=2|44=169550|54=2|55=ES|59=0|60=20130808-13:29:55.500|77=O|107=ESU3|167=FUT|204=1|1028=N|9702=1|10=038|
20130808-13:29:52.505 : 8=FIX.4.2|9=000257|35=F|49=4G8287N|50=ST1|56=CME|57=G|142=IL|1603=3redatf|1604=1|1605=3red|34=36|52=20130808-13:29:55.500|369=39|1=test|11=00000000000000000010|37=26|41=0000000000000000000R|54=2|55=ES|60=20130808-13:29:55.500|107=ESU3|167=FUT|1028=N|9717=0000000000000000000R|10=011|
20130808-13:29:52.505 : 8=FIX.4.2|9=000257|35=F|49=4G8287N|50=ST1|56=CME|57=G|142=IL|1603=3redatf|1604=1|1605=3red|34=37|52=20130808-13:29:55.501|369=39|1=test|11=00000000000000000011|37=27|41=0000000000000000000S|54=2|55=ES|60=20130808-13:29:55.501|107=ESU3|167=FUT|1028=N|9717=0000000000000000000S|10=018|
20130808-13:29:52.505 : 8=FIX.4.2|9=000249|35=D|49=4G8287N|50=ST1|56=CME|57=G|142=IL|1603=3redatf|1604=1|1605=3red|34=38|52=20130808-13:29:55.501|369=39|1=test|11=00000000000000000012|21=1|38=5|40=2|44=169550|54=2|55=ES|59=0|60=20130808-13:29:55.501|77=O|107=ESU3|167=FUT|204=1|1028=N|9702=1|10=004|
20130808-13:29:52.505 : 8=FIX.4.2|9=000249|35=D|49=4G8287N|50=ST1|56=CME|57=G|142=IL|1603=3redatf|1604=1|1605=3red|34=39|52=20130808-13:29:55.503|369=39|1=test|11=00000000000000000013|21=1|38=5|40=2|44=169550|54=2|55=ES|59=0|60=20130808-13:29:55.503|77=O|107=ESU3|167=FUT|204=1|1028=N|9702=1|10=010|
20130808-13:29:52.510 : 8=FIX.4.2|9=277|35=8|34=41|49=CME|50=G|52=20130808-13:29:52.509|56=4G8287N|57=ST1|143=IL|369=39|1=test|6=0|11=0000000000000000000Z|14=0|17=000000000000000000000000000000000000001G|20=0|37=00000000000000033|38=5|39=0|40=2|44=169550|48=17704|54=2|55=ES|60=20130808-13:29:52|107=ESU3|150=0|151=5|10=077|
20130808-13:29:52.510 : 8=FIX.4.2|9=301|35=8|34=42|49=CME|50=G|52=20130808-13:29:52.510|56=4G8287N|57=ST1|143=IL|369=39|1=test|6=0|11=00000000000000000010|14=0|17=000000000000000000000000000000000000001H|20=0|37=00000000000000026|38=7|39=4|40=2|41=0000000000000000000R|44=169550|48=17704|54=2|55=ES|60=20130808-13:29:52|107=ESU3|150=4|151=7|10=165|
20130808-13:29:52.511 : 8=FIX.4.2|9=301|35=8|34=43|49=CME|50=G|52=20130808-13:29:52.510|56=4G8287N|57=ST1|143=IL|369=39|1=test|6=0|11=00000000000000000011|14=0|17=000000000000000000000000000000000000001I|20=0|37=00000000000000027|38=7|39=4|40=2|41=0000000000000000000S|44=169550|48=17704|54=2|55=ES|60=20130808-13:29:52|107=ESU3|150=4|151=7|10=170|
20130808-13:29:52.512 : 8=FIX.4.2|9=277|35=8|34=44|49=CME|50=G|52=20130808-13:29:52.511|56=4G8287N|57=ST1|143=IL|369=39|1=test|6=0|11=00000000000000000012|14=0|17=000000000000000000000000000000000000001J|20=0|37=00000000000000034|38=5|39=0|40=2|44=169550|48=17704|54=2|55=ES|60=20130808-13:29:52|107=ESU3|150=0|151=5|10=038|
20130808-13:29:52.512 : 8=FIX.4.2|9=277|35=8|34=45|49=CME|50=G|52=20130808-13:29:52.512|56=4G8287N|57=ST1|143=IL|369=39|1=test|6=0|11=00000000000000000013|14=0|17=000000000000000000000000000000000000001K|20=0|37=00000000000000035|38=5|39=0|40=2|44=169550|48=17704|54=2|55=ES|60=20130808-13:29:52|107=ESU3|150=0|151=5|10=043|
20130808-13:29:52.757 : 8=FIX.4.2|9=000249|35=D|49=4G8287N|50=ST1|56=CME|57=G|142=IL|1603=3redatf|1604=1|1605=3red|34=40|52=20130808-13:29:55.756|369=45|1=test|11=00000000000000000014|21=1|38=5|40=2|44=169525|54=1|55=ES|59=0|60=20130808-13:29:55.756|77=O|107=ESU3|167=FUT|204=1|1028=N|9702=1|10=021|
20130808-13:29:52.762 : 8=FIX.4.2|9=277|35=8|34=46|49=CME|50=G|52=20130808-13:29:52.761|56=4G8287N|57=ST1|143=IL|369=40|1=test|6=0|11=00000000000000000014|14=0|17=000000000000000000000000000000000000001L|20=0|37=00000000000000036|38=5|39=0|40=2|44=169525|48=17704|54=1|55=ES|60=20130808-13:29:52|107=ESU3|150=0|151=5|10=046|
20130808-13:29:52.762 : 8=FIX.4.2|9=000249|35=D|49=4G8287N|50=ST1|56=CME|57=G|142=IL|1603=3redatf|1604=1|1605=3red|34=41|52=20130808-13:29:55.757|369=45|1=test|11=00000000000000000015|21=1|38=6|40=2|44=169525|54=1|55=ES|59=0|60=20130808-13:29:55.757|77=O|107=ESU3|167=FUT|204=1|1028=N|9702=1|10=026|
20130808-13:29:52.763 : 8=FIX.4.2|9=292|35=8|34=47|49=CME|50=G|52=20130808-13:29:52.762|56=4G8287N|57=ST1|143=IL|369=40|1=test|6=0|11=00000000000000000014|14=5|17=000000000000000000000000000000000000001M|20=0|31=169525|32=5|37=00000000000000036|38=5|39=2|40=2|44=169525|48=17704|54=1|55=ES|60=20130808-13:29:52|107=ESU3|150=2|151=0|10=232|
20130808-13:29:52.767 : 8=FIX.4.2|9=277|35=8|34=48|49=CME|50=G|52=20130808-13:29:52.766|56=4G8287N|57=ST1|143=IL|369=41|1=test|6=0|11=00000000000000000015|14=0|17=000000000000000000000000000000000000001N|20=0|37=00000000000000037|38=6|39=0|40=2|44=169525|48=17704|54=1|55=ES|60=20130808-13:29:52|107=ESU3|150=0|151=6|10=060|
20130808-13:29:52.768 : 8=FIX.4.2|9=292|35=8|34=49|49=CME|50=G|52=20130808-13:29:52.767|56=4G8287N|57=ST1|143=IL|369=41|1=test|6=0|11=00000000000000000015|14=6|17=000000000000000000000000000000000000001O|20=0|31=169525|32=6|37=00000000000000037|38=6|39=2|40=2|44=169525|48=17704|54=1|55=ES|60=20130808-13:29:52|107=ESU3|150=2|151=0|10=247|
20130808-13:29:53.010 : 8=FIX.4.2|9=000249|35=D|49=4G8287N|50=ST1|56=CME|57=G|142=IL|1603=3redatf|1604=1|1605=3red|34=42|52=20130808-13:29:56.009|369=49|1=test|11=00000000000000000016|21=1|38=5|40=2|44=169550|54=2|55=ES|59=0|60=20130808-13:29:56.009|77=O|107=ESU3|167=FUT|204=1|1028=N|9702=1|10=012|
20130808-13:29:53.015 : 8=FIX.4.2|9=277|35=8|34=50|49=CME|50=G|52=20130808-13:29:53.014|56=4G8287N|57=ST1|143=IL|369=42|1=test|6=0|11=00000000000000000016|14=0|17=000000000000000000000000000000000000001P|20=0|37=00000000000000038|38=5|39=0|40=2|44=169550|48=17704|54=2|55=ES|60=20130808-13:29:53|107=ESU3|150=0|151=5|10=043|
20130808-13:29:53.015 : 8=FIX.4.2|9=000249|35=D|49=4G8287N|50=ST1|56=CME|57=G|142=IL|1603=3redatf|1604=1|1605=3red|34=43|52=20130808-13:29:56.010|369=49|1=test|11=00000000000000000017|21=1|38=6|40=2|44=169550|54=2|55=ES|59=0|60=20130808-13:29:56.010|77=O|107=ESU3|167=FUT|204=1|1028=N|9702=1|10=255|
20130808-13:29:53.020 : 8=FIX.4.2|9=277|35=8|34=51|49=CME|50=G|52=20130808-13:29:53.020|56=4G8287N|57=ST1|143=IL|369=43|1=test|6=0|11=00000000000000000017|14=0|17=000000000000000000000000000000000000001Q|20=0|37=00000000000000039|38=6|39=0|40=2|44=169550|48=17704|54=2|55=ES|60=20130808-13:29:53|107=ESU3|150=0|151=6|10=047|
20130808-13:29:53.262 : 8=FIX.4.2|9=000257|35=F|49=4G8287N|50=ST1|56=CME|57=G|142=IL|1603=3redatf|1604=1|1605=3red|34=44|52=20130808-13:29:56.262|369=51|1=test|11=00000000000000000018|37=38|41=00000000000000000016|54=2|55=ES|60=20130808-13:29:56.262|107=ESU3|167=FUT|1028=N|9717=00000000000000000016|10=229|
20130808-13:29:53.267 : 8=FIX.4.2|9=301|35=8|34=52|49=CME|50=G|52=20130808-13:29:53.267|56=4G8287N|57=ST1|143=IL|369=44|1=test|6=0|11=00000000000000000018|14=0|17=000000000000000000000000000000000000001R|20=0|37=00000000000000038|38=5|39=4|40=2|41=00000000000000000016|44=169550|48=17704|54=2|55=ES|60=20130808-13:29:53|107=ESU3|150=4|151=5|10=163|
20130808-13:29:53.514 : 8=FIX.4.2|9=000249|35=D|49=4G8287N|50=ST1|56=CME|57=G|142=IL|1603=3redatf|1604=1|1605=3red|34=45|52=20130808-13:29:56.514|369=52|1=test|11=00000000000000000019|21=1|38=5|40=2|44=169525|54=1|55=ES|59=0|60=20130808-13:29:56.514|77=O|107=ESU3|167=FUT|204=1|1028=N|9702=1|10=015|
20130808-13:29:53.519 : 8=FIX.4.2|9=277|35=8|34=53|49=CME|50=G|52=20130808-13:29:53.519|56=4G8287N|57=ST1|143=IL|369=45|1=test|6=0|11=00000000000000000019|14=0|17=000000000000000000000000000000000000001S|20=0|37=00000000000000040|38=5|39=0|40=2|44=169525|48=17704|54=1|55=ES|60=20130808-13:29:53|107=ESU3|150=0|151=5|10=059|
20130808-13:29:53.520 : 8=FIX.4.2|9=292|35=8|34=54|49=CME|50=G|52=20130808-13:29:53.520|56=4G8287N|57=ST1|143=IL|369=45|1=test|6=0|11=00000000000000000019|14=5|17=000000000000000000000000000000000000001T|20=0|31=169525|32=5|37=00000000000000040|38=5|39=2|40=2|44=169525|48=17704|54=1|55=ES|60=20130808-13:29:53|107=ESU3|150=2|151=0|10=236|
20130808-13:29:53.766 : 8=FIX.4.2|9=000249|35=D|49=4G8287N|50=ST1|56=CME|57=G|142=IL|1603=3redatf|1604=1|1605=3red|34=46|52=20130808-13:29:56.765|369=54|1=test|11=0000000000000000001A|21=1|38=6|40=2|44=169550|54=2|55=ES|59=0|60=20130808-13:29:56.765|77=O|107=ESU3|167=FUT|204=1|1028=N|9702=1|10=042|
20130808-13:29:53.771 : 8=FIX.4.2|9=277|35=8|34=55|49=CME|50=G|52=20130808-13:29:53.770|56=4G8287N|57=ST1|143=IL|369=46|1=test|6=0|11=0000000000000000001A|14=0|17=000000000000000000000000000000000000001U|20=0|37=00000000000000041|38=6|39=0|40=2|44=169550|48=17704|54=2|55=ES|60=20130808-13:29:53|107=ESU3|150=0|151=6|10=073|
20130808-13:30:01.137 : 8=FIX.4.2|9=292|35=8|34=56|49=CME|50=G|52=20130808-13:30:00.026|56=4G8287N|57=ST1|143=IL|369=46|1=test|6=0|11=0000000000000000000U|14=1|17=000000000000000000000000000000000000002V|20=0|31=169550|32=1|37=00000000000000029|38=6|39=1|40=2|44=169550|48=17704|54=2|55=ES|60=20130808-13:30:00|107=ESU3|150=1|151=5|10=238|
20130808-13:30:01.137 : 8=FIX.4.2|9=292|35=8|34=57|49=CME|50=G|52=20130808-13:30:01.137|56=4G8287N|57=ST1|143=IL|369=46|1=test|6=0|11=0000000000000000000V|14=1|17=000000000000000000000000000000000000002W|20=0|31=169550|32=1|37=00000000000000030|38=5|39=1|40=2|44=169550|48=17704|54=2|55=ES|60=20130808-13:30:01|107=ESU3|150=1|151=4|10=236|
20130808-13:30:01.138 : 8=FIX.4.2|9=292|35=8|34=58|49=CME|50=G|52=20130808-13:30:01.138|56=4G8287N|57=ST1|143=IL|369=46|1=test|6=0|11=0000000000000000000Y|14=1|17=000000000000000000000000000000000000002X|20=0|31=169550|32=1|37=00000000000000032|38=7|39=1|40=2|44=169550|48=17704|54=2|55=ES|60=20130808-13:30:01|107=ESU3|150=1|151=6|10=248|
20130808-13:30:01.139 : 8=FIX.4.2|9=292|35=8|34=59|49=CME|50=G|52=20130808-13:30:01.139|56=4G8287N|57=ST1|143=IL|369=46|1=test|6=0|11=0000000000000000000Z|14=1|17=000000000000000000000000000000000000002Y|20=0|31=169550|32=1|37=00000000000000033|38=5|39=1|40=2|44=169550|48=17704|54=2|55=ES|60=20130808-13:30:01|107=ESU3|150=1|151=4|10=249|
20130808-13:30:01.140 : 8=FIX.4.2|9=292|35=8|34=60|49=CME|50=G|52=20130808-13:30:01.139|56=4G8287N|57=ST1|143=IL|369=46|1=test|6=0|11=00000000000000000012|14=1|17=000000000000000000000000000000000000002Z|20=0|31=169550|32=1|37=00000000000000034|38=5|39=1|40=2|44=169550|48=17704|54=2|55=ES|60=20130808-13:30:01|107=ESU3|150=1|151=4|10=204|
20130808-13:30:01.140 : 8=FIX.4.2|9=292|35=8|34=61|49=CME|50=G|52=20130808-13:30:01.140|56=4G8287N|57=ST1|143=IL|369=46|1=test|6=0|11=00000000000000000013|14=1|17=0000000000000000000000000000000000000030|20=0|31=169550|32=1|37=00000000000000035|38=5|39=1|40=2|44=169550|48=17704|54=2|55=ES|60=20130808-13:30:01|107=ESU3|150=1|151=4|10=158|
20130808-13:30:01.141 : 8=FIX.4.2|9=292|35=8|34=62|49=CME|50=G|52=20130808-13:30:01.141|56=4G8287N|57=ST1|143=IL|369=46|1=test|6=0|11=00000000000000000017|14=1|17=0000000000000000000000000000000000000031|20=0|31=169550|32=1|37=00000000000000039|38=6|39=1|40=2|44=169550|48=17704|54=2|55=ES|60=20130808-13:30:01|107=ESU3|150=1|151=5|10=171|
20130808-13:30:01.142 : 8=FIX.4.2|9=292|35=8|34=63|49=CME|50=G|52=20130808-13:30:01.142|56=4G8287N|57=ST1|143=IL|369=46|1=test|6=0|11=0000000000000000001A|14=1|17=0000000000000000000000000000000000000032|20=0|31=169550|32=1|37=00000000000000041|38=6|39=1|40=2|44=169550|48=17704|54=2|55=ES|60=20130808-13:30:01|107=ESU3|150=1|151=5|10=177|
20130808-13:30:01.149 : 8=FIX.4.2|9=292|35=8|34=64|49=CME|50=G|52=20130808-13:30:01.148|56=4G8287N|57=ST1|143=IL|369=46|1=test|6=0|11=0000000000000000000U|14=6|17=000000000000000000000000000000000000003B|20=0|31=169550|32=5|37=00000000000000029|38=6|39=2|40=2|44=169550|48=17704|54=2|55=ES|60=20130808-13:30:01|107=ESU3|150=2|151=0|10=231|
20130808-13:30:01.149 : 8=FIX.4.2|9=292|35=8|34=65|49=CME|50=G|52=20130808-13:30:01.149|56=4G8287N|57=ST1|143=IL|369=46|1=test|6=0|11=0000000000000000000V|14=5|17=000000000000000000000000000000000000003C|20=0|31=169550|32=4|37=00000000000000030|38=5|39=2|40=2|44=169550|48=17704|54=2|55=ES|60=20130808-13:30:01|107=ESU3|150=2|151=0|10=224|
20130808-13:30:01.150 : 8=FIX.4.2|9=292|35=8|34=66|49=CME|50=G|52=20130808-13:30:01.150|56=4G8287N|57=ST1|143=IL|369=46|1=test|6=0|11=0000000000000000000Y|14=7|17=000000000000000000000000000000000000003D|20=0|31=169550|32=6|37=00000000000000032|38=7|39=2|40=2|44=169550|48=17704|54=2|55=ES|60=20130808-13:30:01|107=ESU3|150=2|151=0|10=229|
20130808-13:30:01.151 : 8=FIX.4.2|9=292|35=8|34=67|49=CME|50=G|52=20130808-13:30:01.150|56=4G8287N|57=ST1|143=IL|369=46|1=test|6=0|11=0000000000000000000Z|14=5|17=000000000000000000000000000000000000003E|20=0|31=169550|32=4|37=00000000000000033|38=5|39=2|40=2|44=169550|48=17704|54=2|55=ES|60=20130808-13:30:01|107=ESU3|150=2|151=0|10=227|
20130808-13:30:01.152 : 8=FIX.4.2|9=292|35=8|34=68|49=CME|50=G|52=20130808-13:30:01.151|56=4G8287N|57=ST1|143=IL|369=46|1=test|6=0|11=00000000000000000012|14=5|17=000000000000000000000000000000000000003F|20=0|31=169550|32=4|37=00000000000000034|38=5|39=2|40=2|44=169550|48=17704|54=2|55=ES|60=20130808-13:30:01|107=ESU3|150=2|151=0|10=192|
20130808-13:30:01.152 : 8=FIX.4.2|9=292|35=8|34=69|49=CME|50=G|52=20130808-13:30:01.152|56=4G8287N|57=ST1|143=IL|369=46|1=test|6=0|11=00000000000000000013|14=5|17=000000000000000000000000000000000000003G|20=0|31=169550|32=4|37=00000000000000035|38=5|39=2|40=2|44=169550|48=17704|54=2|55=ES|60=20130808-13:30:01|107=ESU3|150=2|151=0|10=197|
20130808-13:30:01.153 : 8=FIX.4.2|9=292|35=8|34=70|49=CME|50=G|52=20130808-13:30:01.152|56=4G8287N|57=ST1|143=IL|369=46|1=test|6=0|11=00000000000000000017|14=6|17=000000000000000000000000000000000000003H|20=0|31=169550|32=5|37=00000000000000039|38=6|39=2|40=2|44=169550|48=17704|54=2|55=ES|60=20130808-13:30:01|107=ESU3|150=2|151=0|10=201|
20130808-13:30:01.154 : 8=FIX.4.2|9=292|35=8|34=71|49=CME|50=G|52=20130808-13:30:01.153|56=4G8287N|57=ST1|143=IL|369=46|1=test|6=0|11=0000000000000000001A|14=6|17=000000000000000000000000000000000000003I|20=0|31=169550|32=5|37=00000000000000041|38=6|39=2|40=2|44=169550|48=17704|54=2|55=ES|60=20130808-13:30:01|107=ESU3|150=2|151=0|10=207|
20130808-13:30:01.283 : 8=FIX.4.2|9=000249|35=D|49=4G8287N|50=ST1|56=CME|57=G|142=IL|1603=3redatf|1604=1|1605=3red|34=47|52=20130808-13:30:04.282|369=71|1=test|11=0000000000000000001C|21=1|38=8|40=2|44=169525|54=1|55=ES|59=0|60=20130808-13:30:04.282|77=O|107=ESU3|167=FUT|204=1|1028=N|9702=1|10=005|
20130808-13:30:01.288 : 8=FIX.4.2|9=277|35=8|34=72|49=CME|50=G|52=20130808-13:30:01.287|56=4G8287N|57=ST1|143=IL|369=47|1=test|6=0|11=0000000000000000001C|14=0|17=0000000000000000000000000000000000000048|20=0|37=00000000000000069|38=8|39=0|40=2|44=169525|48=17704|54=1|55=ES|60=20130808-13:30:01|107=ESU3|150=0|151=8|10=037|
20130808-13:30:01.288 : 8=FIX.4.2|9=000249|35=D|49=4G8287N|50=ST1|56=CME|57=G|142=IL|1603=3redatf|1604=1|1605=3red|34=48|52=20130808-13:30:04.283|369=71|1=test|11=0000000000000000001E|21=1|38=7|40=2|44=169525|54=1|55=ES|59=0|60=20130808-13:30:04.283|77=O|107=ESU3|167=FUT|204=1|1028=N|9702=1|10=009|
20130808-13:30:01.288 : 8=FIX.4.2|9=000249|35=D|49=4G8287N|50=ST1|56=CME|57=G|142=IL|1603=3redatf|1604=1|1605=3red|34=49|52=20130808-13:30:04.284|369=71|1=test|11=0000000000000000001F|21=1|38=5|40=2|44=169550|54=2|55=ES|59=0|60=20130808-13:30:04.284|77=O|107=ESU3|167=FUT|204=1|1028=N|9702=1|10=010|
20130808-13:30:01.288 : 8=FIX.4.2|9=000249|35=D|49=4G8287N|50=ST1|56=CME|57=G|142=IL|1603=3redatf|1604=1|1605=3red|34=50|52=20130808-13:30:04.285|369=71|1=test|11=0000000000000000001G|21=1|38=7|40=2|44=169525|54=1|55=ES|59=0|60=20130808-13:30:04.285|77=O|107=ESU3|167=FUT|204=1|1028=N|9702=1|10=008|
20130808-13:30:01.288 : 8=FIX.4.2|9=000249|35=D|49=4G8287N|50=ST1|56=CME|57=G|142=IL|1603=3redatf|1604=1|1605=3red|34=51|52=20130808-13:30:04.285|369=71|1=test|11=0000000000000000001H|21=1|38=4|40=2|44=169525|54=1|55=ES|59=0|60=20130808-13:30:04.285|77=O|107=ESU3|167=FUT|204=1|1028=N|9702=1|10=007|
20130808-13:30:01.289 : 8=FIX.4.2|9=000249|35=D|49=4G8287N|50=ST1|56=CME|57=G|142=IL|1603=3redatf|1604=1|1605=3red|34=52|52=20130808-13:30:04.286|369=71|1=test|11=0000000000000000001I|21=1|38=4|40=2|44=169550|54=2|55=ES|59=0|60=20130808-13:30:04.286|77=O|107=ESU3|167=FUT|204=1|1028=N|9702=1|10=010|
20130808-13:30:01.289 : 8=FIX.4.2|9=000249|35=D|49=4G8287N|50=ST1|56=CME|57=G|142=IL|1603=3redatf|1604=1|1605=3red|34=53|52=20130808-13:30:04.287|369=71|1=test|11=0000000000000000001J|21=1|38=7|40=2|44=169525|54=1|55=ES|59=0|60=20130808-13:30:04.287|77=O|107=ESU3|167=FUT|204=1|1028=N|9702=1|10=018|
20130808-13:30:01.289 : 8=FIX.4.2|9=000249|35=D|49=4G8287N|50=ST1|56=CME|57=G|142=IL|1603=3redatf|1604=1|1605=3red|34=54|52=20130808-13:30:04.287|369=71|1=test|11=0000000000000000001K|21=1|38=8|40=2|44=169550|54=2|55=ES|59=0|60=20130808-13:30:04.287|77=O|107=ESU3|167=FUT|204=1|1028=N|9702=1|10=020|
20130808-13:30:01.294 : 8=FIX.4.2|9=277|35=8|34=73|49=CME|50=G|52=20130808-13:30:01.293|56=4G8287N|57=ST1|143=IL|369=54|1=test|6=0|11=0000000000000000001E|14=0|17=0000000000000000000000000000000000000049|20=0|37=00000000000000070|38=7|39=0|40=2|44=169525|48=17704|54=1|55=ES|60=20130808-13:30:01|107=ESU3|150=0|151=7|10=026|
20130808-13:30:01.294 : 8=FIX.4.2|9=000249|35=D|49=4G8287N|50=ST1|56=CME|57=G|142=IL|1603=3redatf|1604=1|1605=3red|34=55|52=20130808-13:30:04.288|369=72|1=test|11=0000000000000000001L|21=1|38=7|40=2|44=169550|54=2|55=ES|59=0|60=20130808-13:30:04.288|77=O|107=ESU3|167=FUT|204=1|1028=N|9702=1|10=024|
20130808-13:30:01.294 : 8=FIX.4.2|9=000249|35=D|49=4G8287N|50=ST1|56=CME|57=G|142=IL|1603=3redatf|1604=1|1605=3red|34=56|52=20130808-13:30:04.289|369=72|1=test|11=0000000000000000001M|21=1|38=7|40=2|44=169525|54=1|55=ES|59=0|60=20130808-13:30:04.289|77=O|107=ESU3|167=FUT|204=1|1028=N|9702=1|10=029|
20130808-13:30:01.295 : 8=FIX.4.2|9=000249|35=D|49=4G8287N|50=ST1|56=CME|57=G|142=IL|1603=3redatf|1604=1|1605=3red|34=57|52=20130808-13:30:04.290|369=72|1=test|11=0000000000000000001N|21=1|38=8|40=2|44=169525|54=1|55=ES|59=0|60=20130808-13:30:04.290|77=O|107=ESU3|167=FUT|204=1|1028=N|9702=1|10=016|
20130808-13:30:01.295 : 8=FIX.4.2|9=277|35=8|34=74|49=CME|50=G|52=20130808-13:30:01.295|56=4G8287N|57=ST1|143=IL|369=57|1=test|6=0|11=0000000000000000001F|14=0|17=000000000000000000000000000000000000004A|20=0|37=00000000000000071|38=5|39=0|40=2|44=169550|48=17704|54=2|55=ES|60=20130808-13:30:01|107=ESU3|150=0|151=5|10=037|
20130808-13:30:01.296 : 8=FIX.4.2|9=292|35=8|34=75|49=CME|50=G|52=20130808-13:30:01.295|56=4G8287N|57=ST1|143=IL|369=57|1=test|6=0|11=0000000000000000001F|14=5|17=000000000000000000000000000000000000004B|20=0|31=169575|32=5|37=00000000000000071|38=5|39=2|40=2|44=169575|48=17704|54=2|55=ES|60=20130808-13:30:01|107=ESU3|150=2|151=0|10=234|
20130808-13:30:01.297 : 8=FIX.4.2|9=277|35=8|34=76|49=CME|50=G|52=20130808-13:30:01.296|56=4G8287N|57=ST1|143=IL|369=57|1=test|6=0|11=0000000000000000001G|14=0|17=000000000000000000000000000000000000004C|20=0|37=00000000000000072|38=7|39=0|40=2|44=169525|48=17704|54=1|55=ES|60=20130808-13:30:01|107=ESU3|150=0|151=7|10=049|
20130808-13:30:01.297 : 8=FIX.4.2|9=277|35=8|34=77|49=CME|50=G|52=20130808-13:30:01.297|56=4G8287N|57=ST1|143=IL|369=57|1=test|6=0|11=0000000000000000001H|14=0|17=000000000000000000000000000000000000004D|20=0|37=00000000000000073|38=4|39=0|40=2|44=169525|48=17704|54=1|55=ES|60=20130808-13:30:01|107=ESU3|150=0|151=4|10=048|
20130808-13:30:01.298 : 8=FIX.4.2|9=277|35=8|34=78|49=CME|50=G|52=20130808-13:30:01.298|56=4G8287N|57=ST1|143=IL|369=57|1=test|6=0|11=0000000000000000001I|14=0|17=000000000000000000000000000000000000004E|20=0|37=00000000000000074|38=4|39=0|40=2|44=169550|48=17704|54=2|55=ES|60=20130808-13:30:01|107=ESU3|150=0|151=4|10=052|
20130808-13:30:01.299 : 8=FIX.4.2|9=292|35=8|34=79|49=CME|50=G|52=20130808-13:30:01.298|56=4G8287N|57=ST1|143=IL|369=57|1=test|6=0|11=0000000000000000001I|14=4|17=000000000000000000000000000000000000004F|20=0|31=169575|32=4|37=00000000000000074|38=4|39=2|40=2|44=169575|48=17704|54=2|55=ES|60=20130808-13:30:01|107=ESU3|150=2|151=0|10=248|
20130808-13:30:01.300 : 8=FIX.4.2|9=277|35=8|34=80|49=CME|50=G|52=20130808-13:30:01.299|56=4G8287N|57=ST1|143=IL|369=57|1=test|6=0|11=0000000000000000001J|14=0|17=000000000000000000000000000000000000004G|20=0|37=00000000000000075|38=7|39=0|40=2|44=169525|48=17704|54=1|55=ES|60=20130808-13:30:01|107=ESU3|150=0|151=7|10=057|
20130808-13:30:01.301 : 8=FIX.4.2|9=277|35=8|34=81|49=CME|50=G|52=20130808-13:30:01.300|56=4G8287N|57=ST1|143=IL|369=57|1=test|6=0|11=0000000000000000001K|14=0|17=000000000000000000000000000000000000004H|20=0|37=00000000000000076|38=8|39=0|40=2|44=169550|48=17704|54=2|55=ES|60=20130808-13:30:01|107=ESU3|150=0|151=8|10=045|
20130808-13:30:01.302 : 8=FIX.4.2|9=292|35=8|34=82|49=CME|50=G|52=20130808-13:30:01.302|56=4G8287N|57=ST1|143=IL|369=57|1=test|6=0|11=0000000000000000001K|14=8|17=000000000000000000000000000000000000004I|20=0|31=169575|32=8|37=00000000000000076|38=8|39=2|40=2|44=169575|48=17704|54=2|55=ES|60=20130808-13:30:01|107=ESU3|150=2|151=0|10=247|
20130808-13:30:01.303 : 8=FIX.4.2|9=277|35=8|34=83|49=CME|50=G|52=20130808-13:30:01.303|56=4G8287N|57=ST1|143=IL|369=57|1=test|6=0|11=0000000000000000001L|14=0|17=000000000000000000000000000000000000004J|20=0|37=00000000000000077|38=7|39=0|40=2|44=169550|48=17704|54=2|55=ES|60=20130808-13:30:01|107=ESU3|150=0|151=7|10=052|
20130808-13:30:01.304 : 8=FIX.4.2|9=292|35=8|34=84|49=CME|50=G|52=20130808-13:30:01.303|56=4G8287N|57=ST1|143=IL|369=57|1=test|6=0|11=0000000000000000001L|14=7|17=000000000000000000000000000000000000004K|20=0|31=169575|32=7|37=00000000000000077|38=7|39=2|40=2|44=169575|48=17704|54=2|55=ES|60=20130808-13:30:01|107=ESU3|150=2|151=0|10=251|
20130808-13:30:01.304 : 8=FIX.4.2|9=277|35=8|34=85|49=CME|50=G|52=20130808-13:30:01.304|56=4G8287N|57=ST1|143=IL|369=57|1=test|6=0|11=0000000000000000001M|14=0|17=000000000000000000000000000000000000004L|20=0|37=00000000000000078|38=7|39=0|40=2|44=169525|48=17704|54=1|55=ES|60=20130808-13:30:01|107=ESU3|150=0|151=7|10=060|
20130808-13:30:01.305 : 8=FIX.4.2|9=277|35=8|34=86|49=CME|50=G|52=20130808-13:30:01.305|56=4G8287N|57=ST1|143=IL|369=57|1=test|6=0|11=0000000000000000001N|14=0|17=000000000000000000000000000000000000004M|20=0|37=00000000000000079|38=8|39=0|40=2|44=169525|48=17704|54=1|55=ES|60=20130808-13:30:01|107=ESU3|150=0|151=8|10=067|
20130808-13:30:01.542 : 8=FIX.4.2|9=000257|35=F|49=4G8287N|50=ST1|56=CME|57=G|142=IL|1603=3redatf|1604=1|1605=3red|34=58|52=20130808-13:30:04.541|369=86|1=test|11=0000000000000000001O|37=69|41=0000000000000000001C|54=1|55=ES|60=20130808-13:30:04.541|107=ESU3|167=FUT|1028=N|9717=0000000000000000001C|10=008|
20130808-13:30:01.548 : 8=FIX.4.2|9=301|35=8|34=87|49=CME|50=G|52=20130808-13:30:01.546|56=4G8287N|57=ST1|143=IL|369=58|1=test|6=0|11=0000000000000000001O|14=0|17=000000000000000000000000000000000000004T|20=0|37=00000000000000069|38=8|39=4|40=2|41=0000000000000000001C|44=169525|48=17704|54=1|55=ES|60=20130808-13:30:01|107=ESU3|150=4|151=8|10=198|
20130808-13:30:01.548 : 8=FIX.4.2|9=000257|35=F|49=4G8287N|50=ST1|56=CME|57=G|142=IL|1603=3redatf|1604=1|1605=3red|34=59|52=20130808-13:30:04.542|369=86|1=test|11=0000000000000000001P|37=70|41=0000000000000000001E|54=1|55=ES|60=20130808-13:30:04.542|107=ESU3|167=FUT|1028=N|9717=0000000000000000001E|10=008|
20130808-13:30:01.548 : 8=FIX.4.2|9=000249|35=D|49=4G8287N|50=ST1|56=CME|57=G|142=IL|1603=3redatf|1604=1|1605=3red|34=60|52=20130808-13:30:04.543|369=86|1=test|11=0000000000000000001Q|21=1|38=6|40=2|44=169525|54=1|55=ES|59=0|60=20130808-13:30:04.543|77=O|107=ESU3|167=FUT|204=1|1028=N|9702=1|10=018|
20130808-13:30:01.548 : 8=FIX.4.2|9=000249|35=D|49=4G8287N|50=ST1|56=CME|57=G|142=IL|1603=3redatf|1604=1|1605=3red|34=61|52=20130808-13:30:04.544|369=86|1=test|11=0000000000000000001R|21=1|38=4|40=2|44=169550|54=2|55=ES|59=0|60=20130808-13:30:04.544|77=O|107=ESU3|167=FUT|204=1|1028=N|9702=1|10=019|
20130808-13:30:01.548 : 8=FIX.4.2|9=000249|35=D|49=4G8287N|50=ST1|56=CME|57=G|142=IL|1603=3redatf|1604=1|1605=3red|34=62|52=20130808-13:30:04.545|369=86|1=test|11=0000000000000000001T|21=1|38=4|40=2|44=169525|54=1|55=ES|59=0|60=20130808-13:30:04.545|77=O|107=ESU3|167=FUT|204=1|1028=N|9702=1|10=025|
20130808-13:30:01.548 : 8=FIX.4.2|9=000249|35=D|49=4G8287N|50=ST1|56=CME|57=G|142=IL|1603=3redatf|1604=1|1605=3red|34=63|52=20130808-13:30:04.547|369=86|1=test|11=0000000000000000001U|21=1|38=5|40=2|44=169525|54=1|55=ES|59=0|60=20130808-13:30:04.547|77=O|107=ESU3|167=FUT|204=1|1028=N|9702=1|10=032|
20130808-13:30:01.553 : 8=FIX.4.2|9=301|35=8|34=88|49=CME|50=G|52=20130808-13:30:01.552|56=4G8287N|57=ST1|143=IL|369=63|1=test|6=0|11=0000000000000000001P|14=0|17=000000000000000000000000000000000000004U|20=0|37=00000000000000070|38=7|39=4|40=2|41=0000000000000000001E|44=169525|48=17704|54=1|55=ES|60=20130808-13:30:01|107=ESU3|150=4|151=7|10=186|
20130808-13:30:01.553 : 8=FIX.4.2|9=277|35=8|34=89|49=CME|50=G|52=20130808-13:30:01.553|56=4G8287N|57=ST1|143=IL|369=63|1=test|6=0|11=0000000000000000001Q|14=0|17=000000000000000000000000000000000000004V|20=0|37=00000000000000085|38=6|39=0|40=2|44=169525|48=17704|54=1|55=ES|60=20130808-13:30:01|107=ESU3|150=0|151=6|10=077|
20130808-13:30:01.554 : 8=FIX.4.2|9=277|35=8|34=90|49=CME|50=G|52=20130808-13:30:01.553|56=4G8287N|57=ST1|143=IL|369=63|1=test|6=0|11=0000000000000000001R|14=0|17=000000000000000000000000000000000000004W|20=0|37=00000000000000086|38=4|39=0|40=2|44=169550|48=17704|54=2|55=ES|60=20130808-13:30:01|107=ESU3|150=0|151=4|10=067|
20130808-13:30:01.555 : 8=FIX.4.2|9=292|35=8|34=91|49=CME|50=G|52=20130808-13:30:01.554|56=4G8287N|57=ST1|143=IL|369=63|1=test|6=0|11=0000000000000000001R|14=4|17=000000000000000000000000000000000000004X|20=0|31=169575|32=4|37=00000000000000086|38=4|39=2|40=2|44=169575|48=17704|54=2|55=ES|60=20130808-13:30:01|107=ESU3|150=2|151=0|10=008|
20130808-13:30:01.556 : 8=FIX.4.2|9=277|35=8|34=92|49=CME|50=G|52=20130808-13:30:01.555|56=4G8287N|57=ST1|143=IL|369=63|1=test|6=0|11=0000000000000000001T|14=0|17=000000000000000000000000000000000000004Y|20=0|37=00000000000000087|38=4|39=0|40=2|44=169525|48=17704|54=1|55=ES|60=20130808-13:30:01|107=ESU3|150=0|151=4|10=077|
20130808-13:30:01.557 : 8=FIX.4.2|9=277|35=8|34=93|49=CME|50=G|52=20130808-13:30:01.557|56=4G8287N|57=ST1|143=IL|369=63|1=test|6=0|11=0000000000000000001U|14=0|17=000000000000000000000000000000000000004Z|20=0|37=00000000000000088|38=5|39=0|40=2|44=169525|48=17704|54=1|55=ES|60=20130808-13:30:01|107=ESU3|150=0|151=5|10=085|
20130808-13:30:01.800 : 8=FIX.4.2|9=000249|35=D|49=4G8287N|50=ST1|56=CME|57=G|142=IL|1603=3redatf|1604=1|1605=3red|34=64|52=20130808-13:30:04.799|369=93|1=test|11=0000000000000000001V|21=1|38=8|40=2|44=169525|54=1|55=ES|59=0|60=20130808-13:30:04.799|77=O|107=ESU3|167=FUT|204=1|1028=N|9702=1|10=053|
20130808-13:30:01.805 : 8=FIX.4.2|9=277|35=8|34=94|49=CME|50=G|52=20130808-13:30:01.804|56=4G8287N|57=ST1|143=IL|369=64|1=test|6=0|11=0000000000000000001V|14=0|17=0000000000000000000000000000000000000052|20=0|37=00000000000000090|38=8|39=0|40=2|44=169525|48=17704|54=1|55=ES|60=20130808-13:30:01|107=ESU3|150=0|151=8|10=043|
20130808-13:30:01.805 : 8=FIX.4.2|9=000249|35=D|49=4G8287N|50=ST1|56=CME|57=G|142=IL|1603=3redatf|1604=1|1605=3red|34=65|52=20130808-13:30:04.800|369=93|1=test|11=0000000000000000001W|21=1|38=5|40=2|44=169525|54=1|55=ES|59=0|60=20130808-13:30:04.800|77=O|107=ESU3|167=FUT|204=1|1028=N|9702=1|10=018|
20130808-13:30:01.805 : 8=FIX.4.2|9=000249|35=D|49=4G8287N|50=ST1|56=CME|57=G|142=IL|1603=3redatf|1604=1|1605=3red|34=66|52=20130808-13:30:04.801|369=93|1=test|11=0000000000000000001X|21=1|38=6|40=2|44=169550|54=2|55=ES|59=0|60=20130808-13:30:04.801|77=O|107=ESU3|167=FUT|204=1|1028=N|9702=1|10=022|
20130808-13:30:01.811 : 8=FIX.4.2|9=277|35=8|34=95|49=CME|50=G|52=20130808-13:30:01.810|56=4G8287N|57=ST1|143=IL|369=66|1=test|6=0|11=0000000000000000001W|14=0|17=0000000000000000000000000000000000000053|20=0|37=00000000000000091|38=5|39=0|40=2|44=169525|48=17704|54=1|55=ES|60=20130808-13:30:01|107=ESU3|150=0|151=5|10=040|
20130808-13:30:01.812 : 8=FIX.4.2|9=277|35=8|34=96|49=CME|50=G|52=20130808-13:30:01.811|56=4G8287N|57=ST1|143=IL|369=66|1=test|6=0|11=0000000000000000001X|14=0|17=0000000000000000000000000000000000000054|20=0|37=00000000000000092|38=6|39=0|40=2|44=169550|48=17704|54=2|55=ES|60=20130808-13:30:01|107=ESU3|150=0|151=6|10=046|
20130808-13:30:01.813 : 8=FIX.4.2|9=292|35=8|34=97|49=CME|50=G|52=20130808-13:30:01.812|56=4G8287N|57=ST1|143=IL|369=66|1=test|6=0|11=0000000000000000001X|14=6|17=0000000000000000000000000000000000000055|20=0|31=169575|32=6|37=00000000000000092|38=6|39=2|40=2|44=169575|48=17704|54=2|55=ES|60=20130808-13:30:01|107=ESU3|150=2|151=0|10=245|
20130808-13:30:02.054 : 8=FIX.4.2|9=000257|35=F|49=4G8287N|50=ST1|56=CME|57=G|142=IL|1603=3redatf|1604=1|1605=3red|34=67|52=20130808-13:30:05.053|369=97|1=test|11=0000000000000000001Y|37=90|41=0000000000000000001V|54=1|55=ES|60=20130808-13:30:05.053|107=ESU3|167=FUT|1028=N|9717=0000000000000000001V|10=050|
20130808-13:30:02.059 : 8=FIX.4.2|9=301|35=8|34=98|49=CME|50=G|52=20130808-13:30:02.058|56=4G8287N|57=ST1|143=IL|369=67|1=test|6=0|11=0000000000000000001Y|14=0|17=0000000000000000000000000000000000000058|20=0|37=00000000000000090|38=8|39=4|40=2|41=0000000000000000001V|44=169525|48=17704|54=1|55=ES|60=20130808-13:30:02|107=ESU3|150=4|151=8|10=196|
20130808-13:30:02.059 : 8=FIX.4.2|9=000249|35=D|49=4G8287N|50=ST1|56=CME|57=G|142=IL|1603=3redatf|1604=1|1605=3red|34=68|52=20130808-13:30:05.054|369=97|1=test|11=0000000000000000001Z|21=1|38=5|40=2|44=169550|54=2|55=ES|59=0|60=20130808-13:30:05.054|77=O|107=ESU3|167=FUT|204=1|1028=N|9702=1|10=031|
20130808-13:30:02.064 : 8=FIX.4.2|9=277|35=8|34=99|49=CME|50=G|52=20130808-13:30:02.063|56=4G8287N|57=ST1|143=IL|369=68|1=test|6=0|11=0000000000000000001Z|14=0|17=0000000000000000000000000000000000000059|20=0|37=00000000000000094|38=5|39=0|40=2|44=169550|48=17704|54=2|55=ES|60=20130808-13:30:02|107=ESU3|150=0|151=5|10=059|
20130808-13:30:02.064 : 8=FIX.4.2|9=293|35=8|34=100|49=CME|50=G|52=20130808-13:30:02.064|56=4G8287N|57=ST1|143=IL|369=68|1=test|6=0|11=0000000000000000001Z|14=5|17=000000000000000000000000000000000000005A|20=0|31=169550|32=5|37=00000000000000094|38=5|39=2|40=2|44=169550|48=17704|54=2|55=ES|60=20130808-13:30:02|107=ESU3|150=2|151=0|10=025|
20130808-13:30:02.309 : 8=FIX.4.2|9=000250|35=D|49=4G8287N|50=ST1|56=CME|57=G|142=IL|1603=3redatf|1604=1|1605=3red|34=69|52=20130808-13:30:05.306|369=100|1=test|11=00000000000000000020|21=1|38=4|40=2|44=169550|54=2|55=ES|59=0|60=20130808-13:30:05.306|77=O|107=ESU3|167=FUT|204=1|1028=N|9702=1|10=015|
20130808-13:30:02.314 : 8=FIX.4.2|9=278|35=8|34=101|49=CME|50=G|52=20130808-13:30:02.313|56=4G8287N|57=ST1|143=IL|369=69|1=test|6=0|11=00000000000000000020|14=0|17=000000000000000000000000000000000000005D|20=0|37=00000000000000096|38=4|39=0|40=2|44=169550|48=17704|54=2|55=ES|60=20130808-13:30:02|107=ESU3|150=0|151=4|10=061|
20130808-13:30:02.314 : 8=FIX.4.2|9=000250|35=D|49=4G8287N|50=ST1|56=CME|57=G|142=IL|1603=3redatf|1604=1|1605=3red|34=70|52=20130808-13:30:05.308|369=100|1=test|11=00000000000000000021|21=1|38=4|40=2|44=169525|54=1|55=ES|59=0|60=20130808-13:30:05.308|77=O|107=ESU3|167=FUT|204=1|1028=N|9702=1|10=013|
20130808-13:30:02.316 : 8=FIX.4.2|9=293|35=8|34=102|49=CME|50=G|52=20130808-13:30:02.314|56=4G8287N|57=ST1|143=IL|369=69|1=test|6=0|11=00000000000000000020|14=4|17=000000000000000000000000000000000000005E|20=0|31=169550|32=4|37=00000000000000096|38=4|39=2|40=2|44=169550|48=17704|54=2|55=ES|60=20130808-13:30:02|107=ESU3|150=2|151=0|10=244|
20130808-13:30:02.320 : 8=FIX.4.2|9=278|35=8|34=103|49=CME|50=G|52=20130808-13:30:02.320|56=4G8287N|57=ST1|143=IL|369=70|1=test|6=0|11=00000000000000000021|14=0|17=000000000000000000000000000000000000005F|20=0|37=00000000000000097|38=4|39=0|40=2|44=169525|48=17704|54=1|55=ES|60=20130808-13:30:02|107=ESU3|150=0|151=4|10=058|
20130808-13:30:02.560 : 8=FIX.4.2|9=000250|35=D|49=4G8287N|50=ST1|56=CME|57=G|142=IL|1603=3redatf|1604=1|1605=3red|34=71|52=20130808-13:30:05.559|369=103|1=test|11=00000000000000000022|21=1|38=6|40=2|44=169550|54=2|55=ES|59=0|60=20130808-13:30:05.559|77=O|107=ESU3|167=FUT|204=1|1028=N|9702=1|10=035|
20130808-13:30:02.565 : 8=FIX.4.2|9=278|35=8|34=104|49=CME|50=G|52=20130808-13:30:02.564|56=4G8287N|57=ST1|143=IL|369=71|1=test|6=0|11=00000000000000000022|14=0|17=000000000000000000000000000000000000005H|20=0|37=00000000000000099|38=6|39=0|40=2|44=169550|48=17704|54=2|55=ES|60=20130808-13:30:02|107=ESU3|150=0|151=6|10=078|
20130808-13:30:02.567 : 8=FIX.4.2|9=293|35=8|34=105|49=CME|50=G|52=20130808-13:30:02.565|56=4G8287N|57=ST1|143=IL|369=71|1=test|6=0|11=00000000000000000022|14=6|17=000000000000000000000000000000000000005I|20=0|31=169550|32=6|37=00000000000000099|38=6|39=2|40=2|44=169550|48=17704|54=2|55=ES|60=20130808-13:30:02|107=ESU3|150=2|151=0|10=007|
20130808-13:30:02.812 : 8=FIX.4.2|9=000250|35=D|49=4G8287N|50=ST1|56=CME|57=G|142=IL|1603=3redatf|1604=1|1605=3red|34=72|52=20130808-13:30:05.811|369=105|1=test|11=00000000000000000023|21=1|38=7|40=2|44=169525|54=1|55=ES|59=0|60=20130808-13:30:05.811|77=O|107=ESU3|167=FUT|204=1|1028=N|9702=1|10=023|
20130808-13:30:02.817 : 8=FIX.4.2|9=278|35=8|34=106|49=CME|50=G|52=20130808-13:30:02.816|56=4G8287N|57=ST1|143=IL|369=72|1=test|6=0|11=00000000000000000023|14=0|17=000000000000000000000000000000000000005J|20=0|37=00000000000000100|38=7|39=0|40=2|44=169525|48=17704|54=1|55=ES|60=20130808-13:30:02|107=ESU3|150=0|151=7|10=070|
20130808-13:30:13.087 : 8=FIX.4.2|9=000258|35=F|49=4G8287N|50=ST1|56=CME|57=G|142=IL|1603=3redatf|1604=1|1605=3red|34=73|52=20130808-13:30:16.086|369=106|1=test|11=00000000000000000024|37=72|41=0000000000000000001G|54=1|55=ES|60=20130808-13:30:16.086|107=ESU3|167=FUT|1028=N|9717=0000000000000000001G|10=037|
20130808-13:30:13.092 : 8=FIX.4.2|9=302|35=8|34=107|49=CME|50=G|52=20130808-13:30:13.091|56=4G8287N|57=ST1|143=IL|369=73|1=test|6=0|11=00000000000000000024|14=0|17=0000000000000000000000000000000000000069|20=0|37=00000000000000072|38=7|39=4|40=2|41=0000000000000000001G|44=169525|48=17704|54=1|55=ES|60=20130808-13:30:13|107=ESU3|150=4|151=7|10=183|
20130808-13:30:13.092 : 8=FIX.4.2|9=000258|35=F|49=4G8287N|50=ST1|56=CME|57=G|142=IL|1603=3redatf|1604=1|1605=3red|34=74|52=20130808-13:30:16.087|369=106|1=test|11=00000000000000000025|37=73|41=0000000000000000001H|54=1|55=ES|60=20130808-13:30:16.087|107=ESU3|167=FUT|1028=N|9717=0000000000000000001H|10=044|
20130808-13:30:13.092 : 8=FIX.4.2|9=000258|35=F|49=4G8287N|50=ST1|56=CME|57=G|142=IL|1603=3redatf|1604=1|1605=3red|34=75|52=20130808-13:30:16.087|369=106|1=test|11=00000000000000000026|37=75|41=0000000000000000001J|54=1|55=ES|60=20130808-13:30:16.087|107=ESU3|167=FUT|1028=N|9717=0000000000000000001J|10=052|
20130808-13:30:13.092 : 8=FIX.4.2|9=000258|35=F|49=4G8287N|50=ST1|56=CME|57=G|142=IL|1603=3redatf|1604=1|1605=3red|34=76|52=20130808-13:30:16.088|369=106|1=test|11=00000000000000000027|37=78|41=0000000000000000001M|54=1|55=ES|60=20130808-13:30:16.088|107=ESU3|167=FUT|1028=N|9717=0000000000000000001M|10=065|
20130808-13:30:13.092 : 8=FIX.4.2|9=000258|35=F|49=4G8287N|50=ST1|56=CME|57=G|142=IL|1603=3redatf|1604=1|1605=3red|34=77|52=20130808-13:30:16.088|369=106|1=test|11=00000000000000000028|37=79|41=0000000000000000001N|54=1|55=ES|60=20130808-13:30:16.088|107=ESU3|167=FUT|1028=N|9717=0000000000000000001N|10=070|
20130808-13:30:13.093 : 8=FIX.4.2|9=000258|35=F|49=4G8287N|50=ST1|56=CME|57=G|142=IL|1603=3redatf|1604=1|1605=3red|34=78|52=20130808-13:30:16.088|369=106|1=test|11=00000000000000000029|37=85|41=0000000000000000001Q|54=1|55=ES|60=20130808-13:30:16.088|107=ESU3|167=FUT|1028=N|9717=0000000000000000001Q|10=075|
20130808-13:30:13.093 : 8=FIX.4.2|9=000258|35=F|49=4G8287N|50=ST1|56=CME|57=G|142=IL|1603=3redatf|1604=1|1605=3red|34=79|52=20130808-13:30:16.089|369=106|1=test|11=0000000000000000002A|37=87|41=0000000000000000001T|54=1|55=ES|60=20130808-13:30:16.089|107=ESU3|167=FUT|1028=N|9717=0000000000000000001T|10=094|
20130808-13:30:13.093 : 8=FIX.4.2|9=000258|35=F|49=4G8287N|50=ST1|56=CME|57=G|142=IL|1603=3redatf|1604=1|1605=3red|34=80|52=20130808-13:30:16.089|369=106|1=test|11=0000000000000000002B|37=88|41=0000000000000000001U|54=1|55=ES|60=20130808-13:30:16.089|107=ESU3|167=FUT|1028=N|9717=0000000000000000001U|10=090|
20130808-13:30:13.093 : 8=FIX.4.2|9=000258|35=F|49=4G8287N|50=ST1|56=CME|57=G|142=IL|1603=3redatf|1604=1|1605=3red|34=81|52=20130808-13:30:16.090|369=106|1=test|11=0000000000000000002C|37=91|41=0000000000000000001W|54=1|55=ES|60=20130808-13:30:16.090|107=ESU3|167=FUT|1028=N|9717=0000000000000000001W|10=074|
20130808-13:30:13.093 : 8=FIX.4.2|9=000258|35=F|49=4G8287N|50=ST1|56=CME|57=G|142=IL|1603=3redatf|1604=1|1605=3red|34=82|52=20130808-13:30:16.090|369=106|1=test|11=0000000000000000002D|37=97|41=00000000000000000021|54=1|55=ES|60=20130808-13:30:16.090|107=ESU3|167=FUT|1028=N|9717=00000000000000000021|10=008|
20130808-13:30:13.093 : 8=FIX.4.2|9=000259|35=F|49=4G8287N|50=ST1|56=CME|57=G|142=IL|1603=3redatf|1604=1|1605=3red|34=83|52=20130808-13:30:16.090|369=106|1=test|11=0000000000000000002E|37=100|41=00000000000000000023|54=1|55=ES|60=20130808-13:30:16.090|107=ESU3|167=FUT|1028=N|9717=00000000000000000023|10=048|
20130808-13:30:13.097 : 8=FIX.4.2|9=302|35=8|34=108|49=CME|50=G|52=20130808-13:30:13.096|56=4G8287N|57=ST1|143=IL|369=83|1=test|6=0|11=00000000000000000025|14=0|17=000000000000000000000000000000000000006A|20=0|37=00000000000000073|38=4|39=4|40=2|41=0000000000000000001H|44=169525|48=17704|54=1|55=ES|60=20130808-13:30:13|107=ESU3|150=4|151=4|10=195|
20130808-13:30:13.098 : 8=FIX.4.2|9=302|35=8|34=109|49=CME|50=G|52=20130808-13:30:13.097|56=4G8287N|57=ST1|143=IL|369=83|1=test|6=0|11=00000000000000000026|14=0|17=000000000000000000000000000000000000006B|20=0|37=00000000000000075|38=7|39=4|40=2|41=0000000000000000001J|44=169525|48=17704|54=1|55=ES|60=20130808-13:30:13|107=ESU3|150=4|151=7|10=209|
20130808-13:30:13.099 : 8=FIX.4.2|9=302|35=8|34=110|49=CME|50=G|52=20130808-13:30:13.098|56=4G8287N|57=ST1|143=IL|369=83|1=test|6=0|11=00000000000000000027|14=0|17=000000000000000000000000000000000000006C|20=0|37=00000000000000078|38=7|39=4|40=2|41=0000000000000000001M|44=169525|48=17704|54=1|55=ES|60=20130808-13:30:13|107=ESU3|150=4|151=7|10=210|
20130808-13:30:13.099 : 8=FIX.4.2|9=302|35=8|34=111|49=CME|50=G|52=20130808-13:30:13.099|56=4G8287N|57=ST1|143=IL|369=83|1=test|6=0|11=00000000000000000028|14=0|17=000000000000000000000000000000000000006D|20=0|37=00000000000000079|38=8|39=4|40=2|41=0000000000000000001N|44=169525|48=17704|54=1|55=ES|60=20130808-13:30:13|107=ESU3|150=4|151=8|10=218|
20130808-13:30:13.100 : 8=FIX.4.2|9=302|35=8|34=112|49=CME|50=G|52=20130808-13:30:13.100|56=4G8287N|57=ST1|143=IL|369=83|1=test|6=0|11=00000000000000000029|14=0|17=000000000000000000000000000000000000006E|20=0|37=00000000000000085|38=6|39=4|40=2|41=0000000000000000001Q|44=169525|48=17704|54=1|55=ES|60=20130808-13:30:13|107=ESU3|150=4|151=6|10=200|
20130808-13:30:13.101 : 8=FIX.4.2|9=302|35=8|34=113|49=CME|50=G|52=20130808-13:30:13.100|56=4G8287N|57=ST1|143=IL|369=83|1=test|6=0|11=0000000000000000002A|14=0|17=000000000000000000000000000000000000006F|20=0|37=00000000000000087|38=4|39=4|40=2|41=0000000000000000001T|44=169525|48=17704|54=1|55=ES|60=20130808-13:30:13|107=ESU3|150=4|151=4|10=211|
20130808-13:30:13.102 : 8=FIX.4.2|9=302|35=8|34=114|49=CME|50=G|52=20130808-13:30:13.101|56=4G8287N|57=ST1|143=IL|369=83|1=test|6=0|11=0000000000000000002B|14=0|17=000000000000000000000000000000000000006G|20=0|37=00000000000000088|38=5|39=4|40=2|41=0000000000000000001U|44=169525|48=17704|54=1|55=ES|60=20130808-13:30:13|107=ESU3|150=4|151=5|10=219|
20130808-13:30:13.102 : 8=FIX.4.2|9=302|35=8|34=115|49=CME|50=G|52=20130808-13:30:13.102|56=4G8287N|57=ST1|143=IL|369=83|1=test|6=0|11=0000000000000000002C|14=0|17=000000000000000000000000000000000000006H|20=0|37=00000000000000091|38=5|39=4|40=2|41=0000000000000000001W|44=169525|48=17704|54=1|55=ES|60=20130808-13:30:13|107=ESU3|150=4|151=5|10=219|
20130808-13:30:13.103 : 8=FIX.4.2|9=302|35=8|34=116|49=CME|50=G|52=20130808-13:30:13.102|56=4G8287N|57=ST1|143=IL|369=83|1=test|6=0|11=0000000000000000002D|14=0|17=000000000000000000000000000000000000006I|20=0|37=00000000000000097|38=4|39=4|40=2|41=00000000000000000021|44=169525|48=17704|54=1|55=ES|60=20130808-13:30:13|107=ESU3|150=4|151=4|10=189|
20130808-13:30:13.104 : 8=FIX.4.2|9=302|35=8|34=117|49=CME|50=G|52=20130808-13:30:13.103|56=4G8287N|57=ST1|143=IL|369=83|1=test|6=0|11=0000000000000000002E|14=0|17=000000000000000000000000000000000000006J|20=0|37=00000000000000100|38=7|39=4|40=2|41=00000000000000000023|44=169525|48=17704|54=1|55=ES|60=20130808-13:30:13|107=ESU3|150=4|151=7|10=186|
20130808-13:30:13.343 : 8=FIX.4.2|9=000250|35=D|49=4G8287N|50=ST1|56=CME|57=G|142=IL|1603=3redatf|1604=1|1605=3red|34=84|52=20130808-13:30:16.342|369=117|1=test|11=0000000000000000002F|21=1|38=5|40=2|44=169525|54=2|55=ES|59=0|60=20130808-13:30:16.342|77=O|107=ESU3|167=FUT|204=1|1028=N|9702=1|10=049|
20130808-13:30:13.348 : 8=FIX.4.2|9=278|35=8|34=118|49=CME|50=G|52=20130808-13:30:13.348|56=4G8287N|57=ST1|143=IL|369=84|1=test|6=0|11=0000000000000000002F|14=0|17=000000000000000000000000000000000000006R|20=0|37=00000000000000117|38=5|39=0|40=2|44=169525|48=17704|54=2|55=ES|60=20130808-13:30:13|107=ESU3|150=0|151=5|10=113|
20130808-13:30:13.348 : 8=FIX.4.2|9=000250|35=D|49=4G8287N|50=ST1|56=CME|57=G|142=IL|1603=3redatf|1604=1|1605=3red|34=85|52=20130808-13:30:16.342|369=117|1=test|11=0000000000000000002G|21=1|38=4|40=2|44=169525|54=2|55=ES|59=0|60=20130808-13:30:16.342|77=O|107=ESU3|167=FUT|204=1|1028=N|9702=1|10=050|
20130808-13:30:13.349 : 8=FIX.4.2|9=293|35=8|34=119|49=CME|50=G|52=20130808-13:30:13.348|56=4G8287N|57=ST1|143=IL|369=84|1=test|6=0|11=0000000000000000002F|14=5|17=000000000000000000000000000000000000006S|20=0|31=169600|32=5|37=00000000000000117|38=5|39=2|40=2|44=169600|48=17704|54=2|55=ES|60=20130808-13:30:13|107=ESU3|150=2|151=0|10=030|
20130808-13:30:13.349 : 8=FIX.4.2|9=000250|35=D|49=4G8287N|50=ST1|56=CME|57=G|142=IL|1603=3redatf|1604=1|1605=3red|34=86|52=20130808-13:30:16.343|369=117|1=test|11=0000000000000000002H|21=1|38=7|40=2|44=169500|54=1|55=ES|59=0|60=20130808-13:30:16.343|77=O|107=ESU3|167=FUT|204=1|1028=N|9702=1|10=049|
20130808-13:30:13.350 : 8=FIX.4.2|9=000250|35=D|49=4G8287N|50=ST1|56=CME|57=G|142=IL|1603=3redatf|1604=1|1605=3red|34=87|52=20130808-13:30:16.343|369=117|1=test|11=0000000000000000002I|21=1|38=8|40=2|44=169500|54=1|55=ES|59=0|60=20130808-13:30:16.343|77=O|107=ESU3|167=FUT|204=1|1028=N|9702=1|10=052|
20130808-13:30:13.350 : 8=FIX.4.2|9=000250|35=D|49=4G8287N|50=ST1|56=CME|57=G|142=IL|1603=3redatf|1604=1|1605=3red|34=88|52=20130808-13:30:16.344|369=117|1=test|11=0000000000000000002J|21=1|38=7|40=2|44=169525|54=2|55=ES|59=0|60=20130808-13:30:16.344|77=O|107=ESU3|167=FUT|204=1|1028=N|9702=1|10=063|
20130808-13:30:13.350 : 8=FIX.4.2|9=000250|35=D|49=4G8287N|50=ST1|56=CME|57=G|142=IL|1603=3redatf|1604=1|1605=3red|34=89|52=20130808-13:30:16.345|369=117|1=test|11=0000000000000000002K|21=1|38=7|40=2|44=169525|54=2|55=ES|59=0|60=20130808-13:30:16.345|77=O|107=ESU3|167=FUT|204=1|1028=N|9702=1|10=067|
20130808-13:30:13.350 : 8=FIX.4.2|9=000250|35=D|49=4G8287N|50=ST1|56=CME|57=G|142=IL|1603=3redatf|1604=1|1605=3red|34=90|52=20130808-13:30:16.345|369=117|1=test|11=0000000000000000002L|21=1|38=5|40=2|44=169500|54=1|55=ES|59=0|60=20130808-13:30:16.345|77=O|107=ESU3|167=FUT|204=1|1028=N|9702=1|10=050|
20130808-13:30:13.350 : 8=FIX.4.2|9=000250|35=D|49=4G8287N|50=ST1|56=CME|57=G|142=IL|1603=3redatf|1604=1|1605=3red|34=91|52=20130808-13:30:16.346|369=117|1=test|11=0000000000000000002M|21=1|38=5|40=2|44=169500|54=1|55=ES|59=0|60=20130808-13:30:16.346|77=O|107=ESU3|167=FUT|204=1|1028=N|9702=1|10=054|
20130808-13:30:13.350 : 8=FIX.4.2|9=000250|35=D|49=4G8287N|50=ST1|56=CME|57=G|142=IL|1603=3redatf|1604=1|1605=3red|34=92|52=20130808-13:30:16.346|369=117|1=test|11=0000000000000000002N|21=1|38=8|40=2|44=169525|54=2|55=ES|59=0|60=20130808-13:30:16.346|77=O|107=ESU3|167=FUT|204=1|1028=N|9702=1|10=067|
20130808-13:30:13.350 : 8=FIX.4.2|9=000250|35=D|49=4G8287N|50=ST1|56=CME|57=G|142=IL|1603=3redatf|1604=1|1605=3red|34=93|52=20130808-13:30:16.347|369=117|1=test|11=0000000000000000002O|21=1|38=7|40=2|44=169525|54=2|55=ES|59=0|60=20130808-13:30:16.347|77=O|107=ESU3|167=FUT|204=1|1028=N|9702=1|10=070|
20130808-13:30:13.351 : 8=FIX.4.2|9=000250|35=D|49=4G8287N|50=ST1|56=CME|57=G|142=IL|1603=3redatf|1604=1|1605=3red|34=94|52=20130808-13:30:16.347|369=117|1=test|11=0000000000000000002P|21=1|38=7|40=2|44=169525|54=2|55=ES|59=0|60=20130808-13:30:16.347|77=O|107=ESU3|167=FUT|204=1|1028=N|9702=1|10=072|
20130808-13:30:13.355 : 8=FIX.4.2|9=278|35=8|34=120|49=CME|50=G|52=20130808-13:30:13.354|56=4G8287N|57=ST1|143=IL|369=94|1=test|6=0|11=0000000000000000002G|14=0|17=000000000000000000000000000000000000006T|20=0|37=00000000000000118|38=4|39=0|40=2|44=169525|48=17704|54=2|55=ES|60=20130808-13:30:13|107=ESU3|150=0|151=4|10=106|
20130808-13:30:13.356 : 8=FIX.4.2|9=293|35=8|34=121|49=CME|50=G|52=20130808-13:30:13.355|56=4G8287N|57=ST1|143=IL|369=94|1=test|6=0|11=0000000000000000002G|14=4|17=000000000000000000000000000000000000006U|20=0|31=169600|32=4|37=00000000000000118|38=4|39=2|40=2|44=169600|48=17704|54=2|55=ES|60=20130808-13:30:13|107=ESU3|150=2|151=0|10=023|
20130808-13:30:13.356 : 8=FIX.4.2|9=278|35=8|34=122|49=CME|50=G|52=20130808-13:30:13.356|56=4G8287N|57=ST1|143=IL|369=94|1=test|6=0|11=0000000000000000002H|14=0|17=000000000000000000000000000000000000006V|20=0|37=00000000000000119|38=7|39=0|40=2|44=169500|48=17704|54=1|55=ES|60=20130808-13:30:13|107=ESU3|150=0|151=7|10=112|
20130808-13:30:13.357 : 8=FIX.4.2|9=278|35=8|34=123|49=CME|50=G|52=20130808-13:30:13.356|56=4G8287N|57=ST1|143=IL|369=94|1=test|6=0|11=0000000000000000002I|14=0|17=000000000000000000000000000000000000006W|20=0|37=00000000000000120|38=8|39=0|40=2|44=169500|48=17704|54=1|55=ES|60=20130808-13:30:13|107=ESU3|150=0|151=8|10=109|
20130808-13:30:13.358 : 8=FIX.4.2|9=278|35=8|34=124|49=CME|50=G|52=20130808-13:30:13.357|56=4G8287N|57=ST1|143=IL|369=94|1=test|6=0|11=0000000000000000002J|14=0|17=000000000000000000000000000000000000006X|20=0|37=00000000000000121|38=7|39=0|40=2|44=169525|48=17704|54=2|55=ES|60=20130808-13:30:13|107=ESU3|150=0|151=7|10=120|
20130808-13:30:13.358 : 8=FIX.4.2|9=293|35=8|34=125|49=CME|50=G|52=20130808-13:30:13.358|56=4G8287N|57=ST1|143=IL|369=94|1=test|6=0|11=0000000000000000002J|14=7|17=000000000000000000000000000000000000006Y|20=0|31=169600|32=7|37=00000000000000121|38=7|39=2|40=2|44=169600|48=17704|54=2|55=ES|60=20130808-13:30:13|107=ESU3|150=2|151=0|10=040|
20130808-13:30:13.359 : 8=FIX.4.2|9=278|35=8|34=126|49=CME|50=G|52=20130808-13:30:13.358|56=4G8287N|57=ST1|143=IL|369=94|1=test|6=0|11=0000000000000000002K|14=0|17=000000000000000000000000000000000000006Z|20=0|37=00000000000000122|38=7|39=0|40=2|44=169525|48=17704|54=2|55=ES|60=20130808-13:30:13|107=ESU3|150=0|151=7|10=127|
20130808-13:30:13.359 : 8=FIX.4.2|9=293|35=8|34=127|49=CME|50=G|52=20130808-13:30:13.359|56=4G8287N|57=ST1|143=IL|369=94|1=test|6=0|11=0000000000000000002K|14=7|17=0000000000000000000000000000000000000070|20=0|31=169600|32=7|37=00000000000000122|38=7|39=2|40=2|44=169600|48=17704|54=2|55=ES|60=20130808-13:30:13|107=ESU3|150=2|151=0|10=005|
20130808-13:30:13.360 : 8=FIX.4.2|9=278|35=8|34=128|49=CME|50=G|52=20130808-13:30:13.360|56=4G8287N|57=ST1|143=IL|369=94|1=test|6=0|11=0000000000000000002L|14=0|17=0000000000000000000000000000000000000071|20=0|37=00000000000000123|38=5|39=0|40=2|44=169500|48=17704|54=1|55=ES|60=20130808-13:30:13|107=ESU3|150=0|151=5|10=072|
20130808-13:30:13.361 : 8=FIX.4.2|9=278|35=8|34=129|49=CME|50=G|52=20130808-13:30:13.360|56=4G8287N|57=ST1|143=IL|369=94|1=test|6=0|11=0000000000000000002M|14=0|17=0000000000000000000000000000000000000072|20=0|37=00000000000000124|38=5|39=0|40=2|44=169500|48=17704|54=1|55=ES|60=20130808-13:30:13|107=ESU3|150=0|151=5|10=076|
20130808-13:30:13.361 : 8=FIX.4.2|9=278|35=8|34=130|49=CME|50=G|52=20130808-13:30:13.361|56=4G8287N|57=ST1|143=IL|369=94|1=test|6=0|11=0000000000000000002N|14=0|17=0000000000000000000000000000000000000073|20=0|37=00000000000000125|38=8|39=0|40=2|44=169525|48=17704|54=2|55=ES|60=20130808-13:30:13|107=ESU3|150=0|151=8|10=086|
20130808-13:30:13.362 : 8=FIX.4.2|9=293|35=8|34=131|49=CME|50=G|52=20130808-13:30:13.361|56=4G8287N|57=ST1|143=IL|369=94|1=test|6=0|11=0000000000000000002N|14=8|17=0000000000000000000000000000000000000074|20=0|31=169600|32=8|37=00000000000000125|38=8|39=2|40=2|44=169600|48=17704|54=2|55=ES|60=20130808-13:30:13|107=ESU3|150=2|151=0|10=006|
20130808-13:30:13.363 : 8=FIX.4.2|9=278|35=8|34=132|49=CME|50=G|52=20130808-13:30:13.362|56=4G8287N|57=ST1|143=IL|369=94|1=test|6=0|11=0000000000000000002O|14=0|17=0000000000000000000000000000000000000075|20=0|37=00000000000000126|38=7|39=0|40=2|44=169525|48=17704|54=2|55=ES|60=20130808-13:30:13|107=ESU3|150=0|151=7|10=091|
20130808-13:30:13.363 : 8=FIX.4.2|9=293|35=8|34=133|49=CME|50=G|52=20130808-13:30:13.363|56=4G8287N|57=ST1|143=IL|369=94|1=test|6=0|11=0000000000000000002O|14=7|17=0000000000000000000000000000000000000076|20=0|31=169600|32=7|37=00000000000000126|38=7|39=2|40=2|44=169600|48=17704|54=2|55=ES|60=20130808-13:30:13|107=ESU3|150=2|151=0|10=011|
20130808-13:30:13.364 : 8=FIX.4.2|9=278|35=8|34=134|49=CME|50=G|52=20130808-13:30:13.363|56=4G8287N|57=ST1|143=IL|369=94|1=test|6=0|11=0000000000000000002P|14=0|17=0000000000000000000000000000000000000077|20=0|37=00000000000000127|38=7|39=0|40=2|44=169525|48=17704|54=2|55=ES|60=20130808-13:30:13|107=ESU3|150=0|151=7|10=098|
20130808-13:30:13.365 : 8=FIX.4.2|9=293|35=8|34=135|49=CME|50=G|52=20130808-13:30:13.364|56=4G8287N|57=ST1|143=IL|369=94|1=test|6=0|11=0000000000000000002P|14=7|17=0000000000000000000000000000000000000078|20=0|31=169600|32=7|37=00000000000000127|38=7|39=2|40=2|44=169600|48=17704|54=2|55=ES|60=20130808-13:30:13|107=ESU3|150=2|151=0|10=018|
20130808-13:30:13.600 : 8=FIX.4.2|9=000250|35=D|49=4G8287N|50=ST1|56=CME|57=G|142=IL|1603=3redatf|1604=1|1605=3red|34=95|52=20130808-13:30:16.600|369=135|1=test|11=0000000000000000002Q|21=1|38=4|40=2|44=169500|54=1|55=ES|59=0|60=20130808-13:30:16.600|77=O|107=ESU3|167=FUT|204=1|1028=N|9702=1|10=047|
20130808-13:30:13.606 : 8=FIX.4.2|9=278|35=8|34=136|49=CME|50=G|52=20130808-13:30:13.605|56=4G8287N|57=ST1|143=IL|369=95|1=test|6=0|11=0000000000000000002Q|14=0|17=000000000000000000000000000000000000007A|20=0|37=00000000000000128|38=4|39=0|40=2|44=169500|48=17704|54=1|55=ES|60=20130808-13:30:13|107=ESU3|150=0|151=4|10=098|
20130808-13:30:13.606 : 8=FIX.4.2|9=000250|35=D|49=4G8287N|50=ST1|56=CME|57=G|142=IL|1603=3redatf|1604=1|1605=3red|34=96|52=20130808-13:30:16.600|369=135|1=test|11=0000000000000000002R|21=1|38=8|40=2|44=169500|54=1|55=ES|59=0|60=20130808-13:30:16.600|77=O|107=ESU3|167=FUT|204=1|1028=N|9702=1|10=053|
20130808-13:30:13.607 : 8=FIX.4.2|9=000250|35=D|49=4G8287N|50=ST1|56=CME|57=G|142=IL|1603=3redatf|1604=1|1605=3red|34=97|52=20130808-13:30:16.601|369=135|1=test|11=0000000000000000002S|21=1|38=5|40=2|44=169500|54=1|55=ES|59=0|60=20130808-13:30:16.601|77=O|107=ESU3|167=FUT|204=1|1028=N|9702=1|10=054|
20130808-13:30:13.607 : 8=FIX.4.2|9=000250|35=D|49=4G8287N|50=ST1|56=CME|57=G|142=IL|1603=3redatf|1604=1|1605=3red|34=98|52=20130808-13:30:16.602|369=135|1=test|11=0000000000000000002T|21=1|38=8|40=2|44=169500|54=1|55=ES|59=0|60=20130808-13:30:16.602|77=O|107=ESU3|167=FUT|204=1|1028=N|9702=1|10=061|
20130808-13:30:13.607 : 8=FIX.4.2|9=000259|35=F|49=4G8287N|50=ST1|56=CME|57=G|142=IL|1603=3redatf|1604=1|1605=3red|34=99|52=20130808-13:30:16.602|369=135|1=test|11=0000000000000000002U|37=123|41=0000000000000000002L|54=1|55=ES|60=20130808-13:30:16.602|107=ESU3|167=FUT|1028=N|9717=0000000000000000002L|10=126|
20130808-13:30:13.607 : 8=FIX.4.2|9=000251|35=D|49=4G8287N|50=ST1|56=CME|57=G|142=IL|1603=3redatf|1604=1|1605=3red|34=100|52=20130808-13:30:16.603|369=135|1=test|11=0000000000000000002W|21=1|38=6|40=2|44=169500|54=1|55=ES|59=0|60=20130808-13:30:16.603|77=O|107=ESU3|167=FUT|204=1|1028=N|9702=1|10=097|
20130808-13:30:13.607 : 8=FIX.4.2|9=000251|35=D|49=4G8287N|50=ST1|56=CME|57=G|142=IL|1603=3redatf|1604=1|1605=3red|34=101|52=20130808-13:30:16.604|369=135|1=test|11=0000000000000000002X|21=1|38=8|40=2|44=169500|54=1|55=ES|59=0|60=20130808-13:30:16.604|77=O|107=ESU3|167=FUT|204=1|1028=N|9702=1|10=103|
20130808-13:30:13.607 : 8=FIX.4.2|9=000251|35=D|49=4G8287N|50=ST1|56=CME|57=G|142=IL|1603=3redatf|1604=1|1605=3red|34=102|52=20130808-13:30:16.604|369=135|1=test|11=0000000000000000002Y|21=1|38=7|40=2|44=169500|54=1|55=ES|59=0|60=20130808-13:30:16.604|77=O|107=ESU3|167=FUT|204=1|1028=N|9702=1|10=104|
20130808-13:30:13.671 : 8=FIX.4.2|9=279|35=8|34=137|49=CME|50=G|52=20130808-13:30:13.611|56=4G8287N|57=ST1|143=IL|369=102|1=test|6=0|11=0000000000000000002R|14=0|17=000000000000000000000000000000000000007B|20=0|37=00000000000000129|38=8|39=0|40=2|44=169500|48=17704|54=1|55=ES|60=20130808-13:30:13|107=ESU3|150=0|151=8|10=145|
20130808-13:30:13.672 : 8=FIX.4.2|9=279|35=8|34=138|49=CME|50=G|52=20130808-13:30:13.671|56=4G8287N|57=ST1|143=IL|369=102|1=test|6=0|11=0000000000000000002S|14=0|17=000000000000000000000000000000000000007C|20=0|37=00000000000000130|38=5|39=0|40=2|44=169500|48=17704|54=1|55=ES|60=20130808-13:30:13|107=ESU3|150=0|151=5|10=140|
20130808-13:30:13.672 : 8=FIX.4.2|9=279|35=8|34=139|49=CME|50=G|52=20130808-13:30:13.672|56=4G8287N|57=ST1|143=IL|369=102|1=test|6=0|11=0000000000000000002T|14=0|17=000000000000000000000000000000000000007D|20=0|37=00000000000000131|38=8|39=0|40=2|44=169500|48=17704|54=1|55=ES|60=20130808-13:30:13|107=ESU3|150=0|151=8|10=151|
20130808-13:30:13.673 : 8=FIX.4.2|9=303|35=8|34=140|49=CME|50=G|52=20130808-13:30:13.672|56=4G8287N|57=ST1|143=IL|369=102|1=test|6=0|11=0000000000000000002U|14=0|17=000000000000000000000000000000000000007E|20=0|37=00000000000000123|38=5|39=4|40=2|41=0000000000000000002L|44=169500|48=17704|54=1|55=ES|60=20130808-13:30:13|107=ESU3|150=4|151=5|10=009|
20130808-13:30:13.674 : 8=FIX.4.2|9=279|35=8|34=141|49=CME|50=G|52=20130808-13:30:13.673|56=4G8287N|57=ST1|143=IL|369=102|1=test|6=0|11=0000000000000000002W|14=0|17=000000000000000000000000000000000000007F|20=0|37=00000000000000132|38=6|39=0|40=2|44=169500|48=17704|54=1|55=ES|60=20130808-13:30:13|107=ESU3|150=0|151=6|10=147|
20130808-13:30:13.675 : 8=FIX.4.2|9=279|35=8|34=142|49=CME|50=G|52=20130808-13:30:13.674|56=4G8287N|57=ST1|143=IL|369=102|1=test|6=0|11=0000000000000000002X|14=0|17=000000000000000000000000000000000000007G|20=0|37=00000000000000133|38=8|39=0|40=2|44=169500|48=17704|54=1|55=ES|60=20130808-13:30:13|107=ESU3|150=0|151=8|10=156|
20130808-13:30:13.676 : 8=FIX.4.2|9=279|35=8|34=143|49=CME|50=G|52=20130808-13:30:13.675|56=4G8287N|57=ST1|143=IL|369=102|1=test|6=0|11=0000000000000000002Y|14=0|17=000000000000000000000000000000000000007H|20=0|37=00000000000000134|38=7|39=0|40=2|44=169500|48=17704|54=1|55=ES|60=20130808-13:30:13|107=ESU3|150=0|151=7|10=159|
20130808-13:30:13.862 : 8=FIX.4.2|9=000251|35=D|49=4G8287N|50=ST1|56=CME|57=G|142=IL|1603=3redatf|1604=1|1605=3red|34=103|52=20130808-13:30:16.861|369=143|1=test|11=0000000000000000002Z|21=1|38=8|40=2|44=169500|54=1|55=ES|59=0|60=20130808-13:30:16.861|77=O|107=ESU3|167=FUT|204=1|1028=N|9702=1|10=116|
20130808-13:30:13.863 : 8=FIX.4.2|9=000260|35=F|49=4G8287N|50=ST1|56=CME|57=G|142=IL|1603=3redatf|1604=1|1605=3red|34=104|52=20130808-13:30:16.862|369=143|1=test|11=00000000000000000030|37=132|41=0000000000000000002W|54=1|55=ES|60=20130808-13:30:16.862|107=ESU3|167=FUT|1028=N|9717=0000000000000000002W|10=154|
20130808-13:30:13.867 : 8=FIX.4.2|9=279|35=8|34=144|49=CME|50=G|52=20130808-13:30:13.866|56=4G8287N|57=ST1|143=IL|369=104|1=test|6=0|11=0000000000000000002Z|14=0|17=000000000000000000000000000000000000007J|20=0|37=00000000000000136|38=8|39=0|40=2|44=169500|48=17704|54=1|55=ES|60=20130808-13:30:13|107=ESU3|150=0|151=8|10=171|
20130808-13:30:13.868 : 8=FIX.4.2|9=303|35=8|34=145|49=CME|50=G|52=20130808-13:30:13.867|56=4G8287N|57=ST1|143=IL|369=104|1=test|6=0|11=00000000000000000030|14=0|17=000000000000000000000000000000000000007K|20=0|37=00000000000000132|38=6|39=4|40=2|41=0000000000000000002W|44=169500|48=17704|54=1|55=ES|60=20130808-13:30:13|107=ESU3|150=4|151=6|10=005|
20130808-13:30:14.114 : 8=FIX.4.2|9=000260|35=F|49=4G8287N|50=ST1|56=CME|57=G|142=IL|1603=3redatf|1604=1|1605=3red|34=105|52=20130808-13:30:17.113|369=145|1=test|11=00000000000000000031|37=136|41=0000000000000000002Z|54=1|55=ES|60=20130808-13:30:17.113|107=ESU3|167=FUT|1028=N|9717=0000000000000000002Z|10=148|
20130808-13:30:14.119 : 8=FIX.4.2|9=303|35=8|34=146|49=CME|50=G|52=20130808-13:30:14.118|56=4G8287N|57=ST1|143=IL|369=105|1=test|6=0|11=00000000000000000031|14=0|17=000000000000000000000000000000000000007L|20=0|37=00000000000000136|38=8|39=4|40=2|41=0000000000000000002Z|44=169500|48=17704|54=1|55=ES|60=20130808-13:30:14|107=ESU3|150=4|151=8|10=011|
20130808-13:30:14.119 : 8=FIX.4.2|9=000251|35=D|49=4G8287N|50=ST1|56=CME|57=G|142=IL|1603=3redatf|1604=1|1605=3red|34=106|52=20130808-13:30:17.114|369=145|1=test|11=00000000000000000032|21=1|38=6|40=2|44=169500|54=1|55=ES|59=0|60=20130808-13:30:17.114|77=O|107=ESU3|167=FUT|204=1|1028=N|9702=1|10=064|
20130808-13:30:14.124 : 8=FIX.4.2|9=279|35=8|34=147|49=CME|50=G|52=20130808-13:30:14.124|56=4G8287N|57=ST1|143=IL|369=106|1=test|6=0|11=00000000000000000032|14=0|17=000000000000000000000000000000000000007M|20=0|37=00000000000000137|38=6|39=0|40=2|44=169500|48=17704|54=1|55=ES|60=20130808-13:30:14|107=ESU3|150=0|151=6|10=126|
20130808-13:30:14.367 : 8=FIX.4.2|9=000251|35=D|49=4G8287N|50=ST1|56=CME|57=G|142=IL|1603=3redatf|1604=1|1605=3red|34=107|52=20130808-13:30:17.366|369=147|1=test|11=00000000000000000033|21=1|38=7|40=2|44=169500|54=1|55=ES|59=0|60=20130808-13:30:17.366|77=O|107=ESU3|167=FUT|204=1|1028=N|9702=1|10=087|
20130808-13:30:14.372 : 8=FIX.4.2|9=279|35=8|34=148|49=CME|50=G|52=20130808-13:30:14.371|56=4G8287N|57=ST1|143=IL|369=107|1=test|6=0|11=00000000000000000033|14=0|17=000000000000000000000000000000000000007N|20=0|37=00000000000000138|38=7|39=0|40=2|44=169500|48=17704|54=1|55=ES|60=20130808-13:30:14|107=ESU3|150=0|151=7|10=137|
20130808-13:30:24.644 : 8=FIX.4.2|9=000260|35=F|49=4G8287N|50=ST1|56=CME|57=G|142=IL|1603=3redatf|1604=1|1605=3red|34=108|52=20130808-13:30:27.643|369=148|1=test|11=00000000000000000034|37=119|41=0000000000000000002H|54=1|55=ES|60=20130808-13:30:27.643|107=ESU3|167=FUT|1028=N|9717=0000000000000000002H|10=140|
20130808-13:30:24.649 : 8=FIX.4.2|9=303|35=8|34=149|49=CME|50=G|52=20130808-13:30:24.649|56=4G8287N|57=ST1|143=IL|369=108|1=test|6=0|11=00000000000000000034|14=0|17=0000000000000000000000000000000000000086|20=0|37=00000000000000119|38=7|39=4|40=2|41=0000000000000000002H|44=169500|48=17704|54=1|55=ES|60=20130808-13:30:24|107=ESU3|150=4|151=7|10=247|
20130808-13:30:24.649 : 8=FIX.4.2|9=000260|35=F|49=4G8287N|50=ST1|56=CME|57=G|142=IL|1603=3redatf|1604=1|1605=3red|34=109|52=20130808-13:30:27.644|369=148|1=test|11=00000000000000000035|37=120|41=0000000000000000002I|54=1|55=ES|60=20130808-13:30:27.644|107=ESU3|167=FUT|1028=N|9717=0000000000000000002I|10=138|
20130808-13:30:24.649 : 8=FIX.4.2|9=000260|35=F|49=4G8287N|50=ST1|56=CME|57=G|142=IL|1603=3redatf|1604=1|1605=3red|34=110|52=20130808-13:30:27.644|369=148|1=test|11=00000000000000000036|37=124|41=0000000000000000002M|54=1|55=ES|60=20130808-13:30:27.644|107=ESU3|167=FUT|1028=N|9717=0000000000000000002M|10=143|
20130808-13:30:24.650 : 8=FIX.4.2|9=000260|35=F|49=4G8287N|50=ST1|56=CME|57=G|142=IL|1603=3redatf|1604=1|1605=3red|34=111|52=20130808-13:30:27.644|369=148|1=test|11=00000000000000000037|37=128|41=0000000000000000002Q|54=1|55=ES|60=20130808-13:30:27.644|107=ESU3|167=FUT|1028=N|9717=0000000000000000002Q|10=157|
20130808-13:30:24.650 : 8=FIX.4.2|9=000260|35=F|49=4G8287N|50=ST1|56=CME|57=G|142=IL|1603=3redatf|1604=1|1605=3red|34=112|52=20130808-13:30:27.644|369=148|1=test|11=00000000000000000038|37=129|41=0000000000000000002R|54=1|55=ES|60=20130808-13:30:27.644|107=ESU3|167=FUT|1028=N|9717=0000000000000000002R|10=162|
20130808-13:30:24.650 : 8=FIX.4.2|9=000260|35=F|49=4G8287N|50=ST1|56=CME|57=G|142=IL|1603=3redatf|1604=1|1605=3red|34=113|52=20130808-13:30:27.644|369=148|1=test|11=00000000000000000039|37=130|41=0000000000000000002S|54=1|55=ES|60=20130808-13:30:27.644|107=ESU3|167=FUT|1028=N|9717=0000000000000000002S|10=158|
20130808-13:30:24.650 : 8=FIX.4.2|9=000260|35=F|49=4G8287N|50=ST1|56=CME|57=G|142=IL|1603=3redatf|1604=1|1605=3red|34=114|52=20130808-13:30:27.645|369=148|1=test|11=0000000000000000003A|37=131|41=0000000000000000002T|54=1|55=ES|60=20130808-13:30:27.645|107=ESU3|167=FUT|1028=N|9717=0000000000000000002T|10=172|
20130808-13:30:24.650 : 8=FIX.4.2|9=000260|35=F|49=4G8287N|50=ST1|56=CME|57=G|142=IL|1603=3redatf|1604=1|1605=3red|34=115|52=20130808-13:30:27.645|369=148|1=test|11=0000000000000000003B|37=133|41=0000000000000000002X|54=1|55=ES|60=20130808-13:30:27.645|107=ESU3|167=FUT|1028=N|9717=0000000000000000002X|10=184|
20130808-13:30:24.650 : 8=FIX.4.2|9=000260|35=F|49=4G8287N|50=ST1|56=CME|57=G|142=IL|1603=3redatf|1604=1|1605=3red|34=116|52=20130808-13:30:27.645|369=148|1=test|11=0000000000000000003C|37=134|41=0000000000000000002Y|54=1|55=ES|60=20130808-13:30:27.645|107=ESU3|167=FUT|1028=N|9717=0000000000000000002Y|10=189|
20130808-13:30:24.650 : 8=FIX.4.2|9=000260|35=F|49=4G8287N|50=ST1|56=CME|57=G|142=IL|1603=3redatf|1604=1|1605=3red|34=117|52=20130808-13:30:27.645|369=148|1=test|11=0000000000000000003D|37=137|41=00000000000000000032|54=1|55=ES|60=20130808-13:30:27.645|107=ESU3|167=FUT|1028=N|9717=00000000000000000032|10=118|
20130808-13:30:24.650 : 8=FIX.4.2|9=000260|35=F|49=4G8287N|50=ST1|56=CME|57=G|142=IL|1603=3redatf|1604=1|1605=3red|34=118|52=20130808-13:30:27.645|369=148|1=test|11=0000000000000000003E|37=138|41=00000000000000000033|54=1|55=ES|60=20130808-13:30:27.645|107=ESU3|167=FUT|1028=N|9717=00000000000000000033|10=123|
20130808-13:30:24.654 : 8=FIX.4.2|9=303|35=8|34=150|49=CME|50=G|52=20130808-13:30:24.654|56=4G8287N|57=ST1|143=IL|369=118|1=test|6=0|11=00000000000000000035|14=0|17=0000000000000000000000000000000000000087|20=0|37=00000000000000120|38=8|39=4|40=2|41=0000000000000000002I|44=169500|48=17704|54=1|55=ES|60=20130808-13:30:24|107=ESU3|150=4|151=8|10=233|
20130808-13:30:24.655 : 8=FIX.4.2|9=303|35=8|34=151|49=CME|50=G|52=20130808-13:30:24.654|56=4G8287N|57=ST1|143=IL|369=118|1=test|6=0|11=00000000000000000036|14=0|17=0000000000000000000000000000000000000088|20=0|37=00000000000000124|38=5|39=4|40=2|41=0000000000000000002M|44=169500|48=17704|54=1|55=ES|60=20130808-13:30:24|107=ESU3|150=4|151=5|10=238|
20130808-13:30:24.656 : 8=FIX.4.2|9=303|35=8|34=152|49=CME|50=G|52=20130808-13:30:24.655|56=4G8287N|57=ST1|143=IL|369=118|1=test|6=0|11=00000000000000000037|14=0|17=0000000000000000000000000000000000000089|20=0|37=00000000000000128|38=4|39=4|40=2|41=0000000000000000002Q|44=169500|48=17704|54=1|55=ES|60=20130808-13:30:24|107=ESU3|150=4|151=4|10=248|
20130808-13:30:24.656 : 8=FIX.4.2|9=303|35=8|34=153|49=CME|50=G|52=20130808-13:30:24.656|56=4G8287N|57=ST1|143=IL|369=118|1=test|6=0|11=00000000000000000038|14=0|17=000000000000000000000000000000000000008A|20=0|37=00000000000000129|38=8|39=4|40=2|41=0000000000000000002R|44=169500|48=17704|54=1|55=ES|60=20130808-13:30:24|107=ESU3|150=4|151=8|10=013|
20130808-13:30:24.657 : 8=FIX.4.2|9=303|35=8|34=154|49=CME|50=G|52=20130808-13:30:24.656|56=4G8287N|57=ST1|143=IL|369=118|1=test|6=0|11=00000000000000000039|14=0|17=000000000000000000000000000000000000008B|20=0|37=00000000000000130|38=5|39=4|40=2|41=0000000000000000002S|44=169500|48=17704|54=1|55=ES|60=20130808-13:30:24|107=ESU3|150=4|151=5|10=003|
20130808-13:30:24.657 : 8=FIX.4.2|9=303|35=8|34=155|49=CME|50=G|52=20130808-13:30:24.657|56=4G8287N|57=ST1|143=IL|369=118|1=test|6=0|11=0000000000000000003A|14=0|17=000000000000000000000000000000000000008C|20=0|37=00000000000000131|38=8|39=4|40=2|41=0000000000000000002T|44=169500|48=17704|54=1|55=ES|60=20130808-13:30:24|107=ESU3|150=4|151=8|10=022|
20130808-13:30:24.659 : 8=FIX.4.2|9=303|35=8|34=156|49=CME|50=G|52=20130808-13:30:24.658|56=4G8287N|57=ST1|143=IL|369=118|1=test|6=0|11=0000000000000000003B|14=0|17=000000000000000000000000000000000000008D|20=0|37=00000000000000133|38=8|39=4|40=2|41=0000000000000000002X|44=169500|48=17704|54=1|55=ES|60=20130808-13:30:24|107=ESU3|150=4|151=8|10=032|
20130808-13:30:24.659 : 8=FIX.4.2|9=303|35=8|34=157|49=CME|50=G|52=20130808-13:30:24.659|56=4G8287N|57=ST1|143=IL|369=118|1=test|6=0|11=0000000000000000003C|14=0|17=000000000000000000000000000000000000008E|20=0|37=00000000000000134|38=7|39=4|40=2|41=0000000000000000002Y|44=169500|48=17704|54=1|55=ES|60=20130808-13:30:24|107=ESU3|150=4|151=7|10=036|
20130808-13:30:24.660 : 8=FIX.4.2|9=303|35=8|34=158|49=CME|50=G|52=20130808-13:30:24.659|56=4G8287N|57=ST1|143=IL|369=118|1=test|6=0|11=0000000000000000003D|14=0|17=000000000000000000000000000000000000008F|20=0|37=00000000000000137|38=6|39=4|40=2|41=00000000000000000032|44=169500|48=17704|54=1|55=ES|60=20130808-13:30:24|107=ESU3|150=4|151=6|10=002|
20130808-13:30:24.661 : 8=FIX.4.2|9=303|35=8|34=159|49=CME|50=G|52=20130808-13:30:24.660|56=4G8287N|57=ST1|143=IL|369=118|1=test|6=0|11=0000000000000000003E|14=0|17=000000000000000000000000000000000000008G|20=0|37=00000000000000138|38=7|39=4|40=2|41=00000000000000000033|44=169500|48=17704|54=1|55=ES|60=20130808-13:30:24|107=ESU3|150=4|151=7|10=001|
20130808-13:30:24.900 : 8=FIX.4.2|9=000251|35=D|49=4G8287N|50=ST1|56=CME|57=G|142=IL|1603=3redatf|1604=1|1605=3red|34=119|52=20130808-13:30:27.899|369=159|1=test|11=0000000000000000003F|21=1|38=6|40=2|44=169500|54=1|55=ES|59=0|60=20130808-13:30:27.899|77=O|107=ESU3|167=FUT|204=1|1028=N|9702=1|10=135|
20130808-13:30:24.906 : 8=FIX.4.2|9=279|35=8|34=160|49=CME|50=G|52=20130808-13:30:24.905|56=4G8287N|57=ST1|143=IL|369=119|1=test|6=0|11=0000000000000000003F|14=0|17=000000000000000000000000000000000000008H|20=0|37=00000000000000148|38=6|39=0|40=2|44=169500|48=17704|54=1|55=ES|60=20130808-13:30:24|107=ESU3|150=0|151=6|10=152|
20130808-13:30:24.906 : 8=FIX.4.2|9=000251|35=D|49=4G8287N|50=ST1|56=CME|57=G|142=IL|1603=3redatf|1604=1|1605=3red|34=120|52=20130808-13:30:27.900|369=159|1=test|11=0000000000000000003G|21=1|38=8|40=2|44=169500|54=1|55=ES|59=0|60=20130808-13:30:27.900|77=O|107=ESU3|167=FUT|204=1|1028=N|9702=1|10=096|
20130808-13:30:24.907 : 8=FIX.4.2|9=000251|35=D|49=4G8287N|50=ST1|56=CME|57=G|142=IL|1603=3redatf|1604=1|1605=3red|34=121|52=20130808-13:30:27.900|369=159|1=test|11=0000000000000000003H|21=1|38=6|40=2|44=169500|54=1|55=ES|59=0|60=20130808-13:30:27.900|77=O|107=ESU3|167=FUT|204=1|1028=N|9702=1|10=096|
20130808-13:30:24.907 : 8=FIX.4.2|9=000251|35=D|49=4G8287N|50=ST1|56=CME|57=G|142=IL|1603=3redatf|1604=1|1605=3red|34=122|52=20130808-13:30:27.901|369=159|1=test|11=0000000000000000003I|21=1|38=6|40=2|44=169500|54=1|55=ES|59=0|60=20130808-13:30:27.901|77=O|107=ESU3|167=FUT|204=1|1028=N|9702=1|10=100|
20130808-13:30:24.907 : 8=FIX.4.2|9=000251|35=D|49=4G8287N|50=ST1|56=CME|57=G|142=IL|1603=3redatf|1604=1|1605=3red|34=123|52=20130808-13:30:27.902|369=159|1=test|11=0000000000000000003J|21=1|38=6|40=2|44=169500|54=1|55=ES|59=0|60=20130808-13:30:27.902|77=O|107=ESU3|167=FUT|204=1|1028=N|9702=1|10=104|
20130808-13:30:24.907 : 8=FIX.4.2|9=000251|35=D|49=4G8287N|50=ST1|56=CME|57=G|142=IL|1603=3redatf|1604=1|1605=3red|34=124|52=20130808-13:30:27.902|369=159|1=test|11=0000000000000000003K|21=1|38=7|40=2|44=169500|54=1|55=ES|59=0|60=20130808-13:30:27.902|77=O|107=ESU3|167=FUT|204=1|1028=N|9702=1|10=107|
20130808-13:30:24.907 : 8=FIX.4.2|9=000251|35=D|49=4G8287N|50=ST1|56=CME|57=G|142=IL|1603=3redatf|1604=1|1605=3red|34=125|52=20130808-13:30:27.903|369=159|1=test|11=0000000000000000003L|21=1|38=5|40=2|44=169500|54=1|55=ES|59=0|60=20130808-13:30:27.903|77=O|107=ESU3|167=FUT|204=1|1028=N|9702=1|10=109|
20130808-13:30:24.907 : 8=FIX.4.2|9=000251|35=D|49=4G8287N|50=ST1|56=CME|57=G|142=IL|1603=3redatf|1604=1|1605=3red|34=126|52=20130808-13:30:27.903|369=159|1=test|11=0000000000000000003M|21=1|38=7|40=2|44=169500|54=1|55=ES|59=0|60=20130808-13:30:27.903|77=O|107=ESU3|167=FUT|204=1|1028=N|9702=1|10=113|
20130808-13:30:24.907 : 8=FIX.4.2|9=000251|35=D|49=4G8287N|50=ST1|56=CME|57=G|142=IL|1603=3redatf|1604=1|1605=3red|34=127|52=20130808-13:30:27.904|369=159|1=test|11=0000000000000000003N|21=1|38=6|40=2|44=169500|54=1|55=ES|59=0|60=20130808-13:30:27.904|77=O|107=ESU3|167=FUT|204=1|1028=N|9702=1|10=116|
20130808-13:30:24.908 : 8=FIX.4.2|9=000251|35=D|49=4G8287N|50=ST1|56=CME|57=G|142=IL|1603=3redatf|1604=1|1605=3red|34=128|52=20130808-13:30:27.905|369=159|1=test|11=0000000000000000003O|21=1|38=4|40=2|44=169500|54=1|55=ES|59=0|60=20130808-13:30:27.905|77=O|107=ESU3|167=FUT|204=1|1028=N|9702=1|10=118|
20130808-13:30:24.908 : 8=FIX.4.2|9=000251|35=D|49=4G8287N|50=ST1|56=CME|57=G|142=IL|1603=3redatf|1604=1|1605=3red|34=129|52=20130808-13:30:27.905|369=159|1=test|11=0000000000000000003P|21=1|38=4|40=2|44=169500|54=1|55=ES|59=0|60=20130808-13:30:27.905|77=O|107=ESU3|167=FUT|204=1|1028=N|9702=1|10=120|
20130808-13:30:24.912 : 8=FIX.4.2|9=279|35=8|34=161|49=CME|50=G|52=20130808-13:30:24.911|56=4G8287N|57=ST1|143=IL|369=129|1=test|6=0|11=0000000000000000003G|14=0|17=000000000000000000000000000000000000008I|20=0|37=00000000000000149|38=8|39=0|40=2|44=169500|48=17704|54=1|55=ES|60=20130808-13:30:24|107=ESU3|150=0|151=8|10=158|
20130808-13:30:24.913 : 8=FIX.4.2|9=279|35=8|34=162|49=CME|50=G|52=20130808-13:30:24.912|56=4G8287N|57=ST1|143=IL|369=129|1=test|6=0|11=0000000000000000003H|14=0|17=000000000000000000000000000000000000008J|20=0|37=00000000000000150|38=6|39=0|40=2|44=169500|48=17704|54=1|55=ES|60=20130808-13:30:24|107=ESU3|150=0|151=6|10=150|
20130808-13:30:24.913 : 8=FIX.4.2|9=279|35=8|34=163|49=CME|50=G|52=20130808-13:30:24.913|56=4G8287N|57=ST1|143=IL|369=129|1=test|6=0|11=0000000000000000003I|14=0|17=000000000000000000000000000000000000008K|20=0|37=00000000000000151|38=6|39=0|40=2|44=169500|48=17704|54=1|55=ES|60=20130808-13:30:24|107=ESU3|150=0|151=6|10=155|
20130808-13:30:24.914 : 8=FIX.4.2|9=279|35=8|34=164|49=CME|50=G|52=20130808-13:30:24.914|56=4G8287N|57=ST1|143=IL|369=129|1=test|6=0|11=0000000000000000003J|14=0|17=000000000000000000000000000000000000008L|20=0|37=00000000000000152|38=6|39=0|40=2|44=169500|48=17704|54=1|55=ES|60=20130808-13:30:24|107=ESU3|150=0|151=6|10=160|
20130808-13:30:24.915 : 8=FIX.4.2|9=279|35=8|34=165|49=CME|50=G|52=20130808-13:30:24.915|56=4G8287N|57=ST1|143=IL|369=129|1=test|6=0|11=0000000000000000003K|14=0|17=000000000000000000000000000000000000008M|20=0|37=00000000000000153|38=7|39=0|40=2|44=169500|48=17704|54=1|55=ES|60=20130808-13:30:24|107=ESU3|150=0|151=7|10=167|
20130808-13:30:24.916 : 8=FIX.4.2|9=279|35=8|34=166|49=CME|50=G|52=20130808-13:30:24.916|56=4G8287N|57=ST1|143=IL|369=129|1=test|6=0|11=0000000000000000003L|14=0|17=000000000000000000000000000000000000008N|20=0|37=00000000000000154|38=5|39=0|40=2|44=169500|48=17704|54=1|55=ES|60=20130808-13:30:24|107=ESU3|150=0|151=5|10=168|
20130808-13:30:24.917 : 8=FIX.4.2|9=279|35=8|34=167|49=CME|50=G|52=20130808-13:30:24.917|56=4G8287N|57=ST1|143=IL|369=129|1=test|6=0|11=0000000000000000003M|14=0|17=000000000000000000000000000000000000008O|20=0|37=00000000000000155|38=7|39=0|40=2|44=169500|48=17704|54=1|55=ES|60=20130808-13:30:24|107=ESU3|150=0|151=7|10=177|
20130808-13:30:24.918 : 8=FIX.4.2|9=279|35=8|34=168|49=CME|50=G|52=20130808-13:30:24.918|56=4G8287N|57=ST1|143=IL|369=129|1=test|6=0|11=0000000000000000003N|14=0|17=000000000000000000000000000000000000008P|20=0|37=00000000000000156|38=6|39=0|40=2|44=169500|48=17704|54=1|55=ES|60=20130808-13:30:24|107=ESU3|150=0|151=6|10=180|
20130808-13:30:24.919 : 8=FIX.4.2|9=279|35=8|34=169|49=CME|50=G|52=20130808-13:30:24.918|56=4G8287N|57=ST1|143=IL|369=129|1=test|6=0|11=0000000000000000003O|14=0|17=000000000000000000000000000000000000008Q|20=0|37=00000000000000157|38=4|39=0|40=2|44=169500|48=17704|54=1|55=ES|60=20130808-13:30:24|107=ESU3|150=0|151=4|10=180|
20130808-13:30:24.920 : 8=FIX.4.2|9=279|35=8|34=170|49=CME|50=G|52=20130808-13:30:24.919|56=4G8287N|57=ST1|143=IL|369=129|1=test|6=0|11=0000000000000000003P|14=0|17=000000000000000000000000000000000000008R|20=0|37=00000000000000158|38=4|39=0|40=2|44=169500|48=17704|54=1|55=ES|60=20130808-13:30:24|107=ESU3|150=0|151=4|10=176|
20130808-13:30:25.161 : 8=FIX.4.2|9=000260|35=F|49=4G8287N|50=ST1|56=CME|57=G|142=IL|1603=3redatf|1604=1|1605=3red|34=130|52=20130808-13:30:28.160|369=170|1=test|11=0000000000000000003Q|37=150|41=0000000000000000003H|54=1|55=ES|60=20130808-13:30:28.160|107=ESU3|167=FUT|1028=N|9717=0000000000000000003H|10=146|
20130808-13:30:25.166 : 8=FIX.4.2|9=303|35=8|34=171|49=CME|50=G|52=20130808-13:30:25.165|56=4G8287N|57=ST1|143=IL|369=130|1=test|6=0|11=0000000000000000003Q|14=0|17=000000000000000000000000000000000000008S|20=0|37=00000000000000150|38=6|39=4|40=2|41=0000000000000000003H|44=169500|48=17704|54=1|55=ES|60=20130808-13:30:25|107=ESU3|150=4|151=6|10=028|
20130808-13:30:25.166 : 8=FIX.4.2|9=000260|35=F|49=4G8287N|50=ST1|56=CME|57=G|142=IL|1603=3redatf|1604=1|1605=3red|34=131|52=20130808-13:30:28.161|369=170|1=test|11=0000000000000000003R|37=153|41=0000000000000000003K|54=1|55=ES|60=20130808-13:30:28.161|107=ESU3|167=FUT|1028=N|9717=0000000000000000003K|10=159|
20130808-13:30:25.172 : 8=FIX.4.2|9=303|35=8|34=172|49=CME|50=G|52=20130808-13:30:25.171|56=4G8287N|57=ST1|143=IL|369=131|1=test|6=0|11=0000000000000000003R|14=0|17=000000000000000000000000000000000000008T|20=0|37=00000000000000153|38=7|39=4|40=2|41=0000000000000000003K|44=169500|48=17704|54=1|55=ES|60=20130808-13:30:25|107=ESU3|150=4|151=7|10=037|
20130808-13:30:25.415 : 8=FIX.4.2|9=000251|35=D|49=4G8287N|50=ST1|56=CME|57=G|142=IL|1603=3redatf|1604=1|1605=3red|34=132|52=20130808-13:30:28.414|369=172|1=test|11=0000000000000000003S|21=1|38=6|40=2|44=169500|54=1|55=ES|59=0|60=20130808-13:30:28.414|77=O|107=ESU3|167=FUT|204=1|1028=N|9702=1|10=106|
20130808-13:30:25.421 : 8=FIX.4.2|9=279|35=8|34=173|49=CME|50=G|52=20130808-13:30:25.420|56=4G8287N|57=ST1|143=IL|369=132|1=test|6=0|11=0000000000000000003S|14=0|17=000000000000000000000000000000000000008U|20=0|37=00000000000000159|38=6|39=0|40=2|44=169500|48=17704|54=1|55=ES|60=20130808-13:30:25|107=ESU3|150=0|151=6|10=173|
20130808-13:30:25.421 : 8=FIX.4.2|9=000251|35=D|49=4G8287N|50=ST1|56=CME|57=G|142=IL|1603=3redatf|1604=1|1605=3red|34=133|52=20130808-13:30:28.415|369=172|1=test|11=0000000000000000003T|21=1|38=4|40=2|44=169500|54=1|55=ES|59=0|60=20130808-13:30:28.415|77=O|107=ESU3|167=FUT|204=1|1028=N|9702=1|10=108|
20130808-13:30:25.426 : 8=FIX.4.2|9=279|35=8|34=174|49=CME|50=G|52=20130808-13:30:25.425|56=4G8287N|57=ST1|143=IL|369=133|1=test|6=0|11=0000000000000000003T|14=0|17=000000000000000000000000000000000000008V|20=0|37=00000000000000160|38=4|39=0|40=2|44=169500|48=17704|54=1|55=ES|60=20130808-13:30:25|107=ESU3|150=0|151=4|10=170|
20130808-13:30:25.668 : 8=FIX.4.2|9=000260|35=F|49=4G8287N|50=ST1|56=CME|57=G|142=IL|1603=3redatf|1604=1|1605=3red|34=134|52=20130808-13:30:28.667|369=174|1=test|11=0000000000000000003U|37=160|41=0000000000000000003T|54=1|55=ES|60=20130808-13:30:28.667|107=ESU3|167=FUT|1028=N|9717=0000000000000000003T|10=207|
20130808-13:30:25.673 : 8=FIX.4.2|9=303|35=8|34=175|49=CME|50=G|52=20130808-13:30:25.672|56=4G8287N|57=ST1|143=IL|369=134|1=test|6=0|11=0000000000000000003U|14=0|17=000000000000000000000000000000000000008W|20=0|37=00000000000000160|38=4|39=4|40=2|41=0000000000000000003T|44=169500|48=17704|54=1|55=ES|60=20130808-13:30:25|107=ESU3|150=4|151=4|10=056|
20130808-13:30:25.919 : 8=FIX.4.2|9=000251|35=D|49=4G8287N|50=ST1|56=CME|57=G|142=IL|1603=3redatf|1604=1|1605=3red|34=135|52=20130808-13:30:28.919|369=175|1=test|11=0000000000000000003V|21=1|38=6|40=2|44=169500|54=1|55=ES|59=0|60=20130808-13:30:28.919|77=O|107=ESU3|167=FUT|204=1|1028=N|9702=1|10=135|
20130808-13:30:25.924 : 8=FIX.4.2|9=279|35=8|34=176|49=CME|50=G|52=20130808-13:30:25.924|56=4G8287N|57=ST1|143=IL|369=135|1=test|6=0|11=0000000000000000003V|14=0|17=000000000000000000000000000000000000008X|20=0|37=00000000000000161|38=6|39=0|40=2|44=169500|48=17704|54=1|55=ES|60=20130808-13:30:25|107=ESU3|150=0|151=6|10=187|
20130808-13:30:36.195 : 8=FIX.4.2|9=000260|35=F|49=4G8287N|50=ST1|56=CME|57=G|142=IL|1603=3redatf|1604=1|1605=3red|34=136|52=20130808-13:30:39.194|369=176|1=test|11=0000000000000000003W|37=148|41=0000000000000000003F|54=1|55=ES|60=20130808-13:30:39.194|107=ESU3|167=FUT|1028=N|9717=0000000000000000003F|10=185|
20130808-13:30:36.200 : 8=FIX.4.2|9=303|35=8|34=177|49=CME|50=G|52=20130808-13:30:36.199|56=4G8287N|57=ST1|143=IL|369=136|1=test|6=0|11=0000000000000000003W|14=0|17=000000000000000000000000000000000000009L|20=0|37=00000000000000148|38=6|39=4|40=2|41=0000000000000000003F|44=169500|48=17704|54=1|55=ES|60=20130808-13:30:36|107=ESU3|150=4|151=6|10=056|
