20130808-13:28:57.009 : 8=FIX.4.2|9=000132|35=A|49=4G8288N|50=ST2|56=CME|57=G|142=IL|1603=3redatf|1604=1|1605=3red|34=1|52=20130808-13:29:00.008|369=0|95=3|96=4G8|98=0|108=30|10=184|
20130808-13:28:57.010 : 8=FIX.4.2|9=65|35=A|34=1|49=CME|52=20130808-13:28:57.010|56=4G8288N|98=0|108=30|10=120|
20130808-13:29:27.322 : 8=FIX.4.2|9=53|35=0|34=2|49=CME|52=20130808-13:29:27.032|56=4G8288N|10=078|
20130808-13:29:33.330 : 8=FIX.4.2|9=62|35=1|34=3|49=CME|52=20130808-13:29:33.330|56=4G8288N|112=TEST|10=096|
20130808-13:29:34.292 : 8=FIX.4.2|9=000117|35=0|49=4G8288N|50=ST2|56=CME|57=G|142=IL|1603=3redatf|1604=1|1605=3red|34=2|52=20130808-13:29:37.291|369=3|112=TEST|10=118|
20130808-13:29:43.094 : 8=FIX.4.2|9=000247|35=D|49=4G8288N|50=ST2|56=CME|57=G|142=IL|1603=3redatf|1604=1|1605=3red|34=3|52=20130808-13:29:46.094|369=3|1=test|11=00000000000000000002|21=1|38=6|40=2|44=169525|54=1|55=ES|59=0|60=20130808-13:29:46.094|77=O|107=ESU3|167=FUT|204=1|1028=N|9702=1|10=162|
20130808-13:29:43.095 : 8=FIX.4.2|9=000247|35=D|49=4G8288N|50=ST2|56=CME|57=G|142=IL|1603=3redatf|1604=1|1605=3red|34=4|52=20130808-13:29:46.095|369=3|1=test|11=00000000000000000003|21=1|38=5|40=2|44=169500|54=1|55=ES|59=0|60=20130808-13:29:46.095|77=O|107=ESU3|167=FUT|204=1|1028=N|9702=1|10=158|
20130808-13:29:43.096 : 8=FIX.4.2|9=000247|35=D|49=4G8288N|50=ST2|56=CME|57=G|142=IL|1603=3redatf|1604=1|1605=3red|34=5|52=20130808-13:29:46.095|369=3|1=test|11=00000000000000000004|21=1|38=5|40=2|44=169475|54=1|55=ES|59=0|60=20130808-13:29:46.095|77=O|107=ESU3|167=FUT|204=1|1028=N|9702=1|10=171|
20130808-13:29:43.096 : 8=FIX.4.2|9=000247|35=D|49=4G8288N|50=ST2|56=CME|57=G|142=IL|1603=3redatf|1604=1|1605=3red|34=6|52=20130808-13:29:46.096|369=3|1=test|11=00000000000000000005|21=1|38=6|40=2|44=169450|54=1|55=ES|59=0|60=20130808-13:29:46.096|77=O|107=ESU3|167=FUT|204=1|1028=N|9702=1|10=169|
20130808-13:29:43.097 : 8=FIX.4.2|9=000247|35=D|49=4G8288N|50=ST2|56=CME|57=G|142=IL|1603=3redatf|1604=1|1605=3red|34=7|52=20130808-13:29:46.096|369=3|1=test|11=00000000000000000006|21=1|38=4|40=2|44=169550|54=2|55=ES|59=0|60=20130808-13:29:46.096|77=O|107=ESU3|167=FUT|204=1|1028=N|9702=1|10=171|
20130808-13:29:43.098 : 8=FIX.4.2|9=000247|35=D|49=4G8288N|50=ST2|56=CME|57=G|142=IL|1603=3redatf|1604=1|1605=3red|34=8|52=20130808-13:29:46.097|369=3|1=test|11=00000000000000000007|21=1|38=7|40=2|44=169575|54=2|55=ES|59=0|60=20130808-13:29:46.097|77=O|107=ESU3|167=FUT|204=1|1028=N|9702=1|10=185|
20130808-13:29:43.098 : 8=FIX.4.2|9=000247|35=D|49=4G8288N|50=ST2|56=CME|57=G|142=IL|1603=3redatf|1604=1|1605=3red|34=9|52=20130808-13:29:46.098|369=3|1=test|11=00000000000000000008|21=1|38=5|40=2|44=169600|54=2|55=ES|59=0|60=20130808-13:29:46.098|77=O|107=ESU3|167=FUT|204=1|1028=N|9702=1|10=176|
20130808-13:29:43.099 : 8=FIX.4.2|9=000248|35=D|49=4G8288N|50=ST2|56=CME|57=G|142=IL|1603=3redatf|1604=1|1605=3red|34=10|52=20130808-13:29:46.098|369=3|1=test|11=00000000000000000009|21=1|38=4|40=2|44=169625|54=2|55=ES|59=0|60=20130808-13:29:46.098|77=O|107=ESU3|167=FUT|204=1|1028=N|9702=1|10=224|
20130808-13:29:43.103 : 8=FIX.4.2|9=276|35=8|34=4|49=CME|50=G|52=20130808-13:29:43.102|56=4G8288N|57=ST2|143=IL|369=10|1=test|6=0|11=00000000000000000002|14=0|17=000000000000000000000000000000000000000H|20=0|37=00000000000000013|38=6|39=0|40=2|44=169525|48=17704|54=1|55=ES|60=20130808-13:29:43|107=ESU3|150=0|151=6|10=224|
20130808-13:29:43.104 : 8=FIX.4.2|9=291|35=8|34=5|49=CME|50=G|52=20130808-13:29:43.103|56=4G8288N|57=ST2|143=IL|369=10|1=test|6=0|11=00000000000000000002|14=6|17=000000000000000000000000000000000000000I|20=0|31=169525|32=6|37=00000000000000013|38=6|39=2|40=2|44=169525|48=17704|54=1|55=ES|60=20130808-13:29:43|107=ESU3|150=2|151=0|10=155|
20130808-13:29:43.105 : 8=FIX.4.2|9=276|35=8|34=6|49=CME|50=G|52=20130808-13:29:43.104|56=4G8288N|57=ST2|143=IL|369=10|1=test|6=0|11=00000000000000000003|14=0|17=000000000000000000000000000000000000000J|20=0|37=00000000000000014|38=5|39=0|40=2|44=169500|48=17704|54=1|55=ES|60=20130808-13:29:43|107=ESU3|150=0|151=5|10=223|
20130808-13:29:43.105 : 8=FIX.4.2|9=276|35=8|34=7|49=CME|50=G|52=20130808-13:29:43.105|56=4G8288N|57=ST2|143=IL|369=10|1=test|6=0|11=00000000000000000004|14=0|17=000000000000000000000000000000000000000K|20=0|37=00000000000000015|38=5|39=0|40=2|44=169475|48=17704|54=1|55=ES|60=20130808-13:29:43|107=ESU3|150=0|151=5|10=239|
20130808-13:29:43.106 : 8=FIX.4.2|9=276|35=8|34=8|49=CME|50=G|52=20130808-13:29:43.105|56=4G8288N|57=ST2|143=IL|369=10|1=test|6=0|11=00000000000000000005|14=0|17=000000000000000000000000000000000000000L|20=0|37=00000000000000016|38=6|39=0|40=2|44=169450|48=17704|54=1|55=ES|60=20130808-13:29:43|107=ESU3|150=0|151=6|10=238|
20130808-13:29:43.107 : 8=FIX.4.2|9=276|35=8|34=9|49=CME|50=G|52=20130808-13:29:43.106|56=4G8288N|57=ST2|143=IL|369=10|1=test|6=0|11=00000000000000000006|14=0|17=000000000000000000000000000000000000000M|20=0|37=00000000000000017|38=4|39=0|40=2|44=169550|48=17704|54=2|55=ES|60=20130808-13:29:43|107=ESU3|150=0|151=4|10=241|
20130808-13:29:43.107 : 8=FIX.4.2|9=277|35=8|34=10|49=CME|50=G|52=20130808-13:29:43.107|56=4G8288N|57=ST2|143=IL|369=10|1=test|6=0|11=00000000000000000007|14=0|17=000000000000000000000000000000000000000N|20=0|37=00000000000000018|38=7|39=0|40=2|44=169575|48=17704|54=2|55=ES|60=20130808-13:29:43|107=ESU3|150=0|151=7|10=043|
20130808-13:29:43.108 : 8=FIX.4.2|9=277|35=8|34=11|49=CME|50=G|52=20130808-13:29:43.107|56=4G8288N|57=ST2|143=IL|369=10|1=test|6=0|11=00000000000000000008|14=0|17=000000000000000000000000000000000000000O|20=0|37=00000000000000019|38=5|39=0|40=2|44=169600|48=17704|54=2|55=ES|60=20130808-13:29:43|107=ESU3|150=0|151=5|10=032|
20130808-13:29:43.109 : 8=FIX.4.2|9=277|35=8|34=12|49=CME|50=G|52=20130808-13:29:43.108|56=4G8288N|57=ST2|143=IL|369=10|1=test|6=0|11=00000000000000000009|14=0|17=000000000000000000000000000000000000000P|20=0|37=00000000000000020|38=4|39=0|40=2|44=169625|48=17704|54=2|55=ES|60=20130808-13:29:43|107=ESU3|150=0|151=4|10=033|
20130808-13:29:43.350 : 8=FIX.4.2|9=000249|35=D|49=4G8288N|50=ST2|56=CME|57=G|142=IL|1603=3redatf|1604=1|1605=3red|34=11|52=20130808-13:29:46.349|369=12|1=test|11=0000000000000000000A|21=1|38=8|40=2|44=169525|54=1|55=ES|59=0|60=20130808-13:29:46.349|77=O|107=ESU3|167=FUT|204=1|1028=N|9702=1|10=026|
20130808-13:29:43.355 : 8=FIX.4.2|9=277|35=8|34=13|49=CME|50=G|52=20130808-13:29:43.354|56=4G8288N|57=ST2|143=IL|369=11|1=test|6=0|11=0000000000000000000A|14=0|17=000000000000000000000000000000000000000Q|20=0|37=00000000000000021|38=8|39=0|40=2|44=169525|48=17704|54=1|55=ES|60=20130808-13:29:43|107=ESU3|150=0|151=8|10=054|
20130808-13:29:43.356 : 8=FIX.4.2|9=292|35=8|34=14|49=CME|50=G|52=20130808-13:29:43.355|56=4G8288N|57=ST2|143=IL|369=11|1=test|6=0|11=0000000000000000000A|14=8|17=000000000000000000000000000000000000000R|20=0|31=169525|32=8|37=00000000000000021|38=8|39=2|40=2|44=169525|48=17704|54=1|55=ES|60=20130808-13:29:43|107=ESU3|150=2|151=0|10=243|
20130808-13:29:43.356 : 8=FIX.4.2|9=000257|35=F|49=4G8288N|50=ST2|56=CME|57=G|142=IL|1603=3redatf|1604=1|1605=3red|34=12|52=20130808-13:29:46.350|369=12|1=test|11=0000000000000000000B|37=18|41=00000000000000000007|54=2|55=ES|60=20130808-13:29:46.350|107=ESU3|167=FUT|1028=N|9717=00000000000000000007|10=224|
20130808-13:29:43.361 : 8=FIX.4.2|9=301|35=8|34=15|49=CME|50=G|52=20130808-13:29:43.360|56=4G8288N|57=ST2|143=IL|369=12|1=test|6=0|11=0000000000000000000B|14=0|17=000000000000000000000000000000000000000S|20=0|37=00000000000000018|38=7|39=4|40=2|41=00000000000000000007|44=169575|48=17704|54=2|55=ES|60=20130808-13:29:43|107=ESU3|150=4|151=7|10=169|
20130808-13:29:43.603 : 8=FIX.4.2|9=000249|35=D|49=4G8288N|50=ST2|56=CME|57=G|142=IL|1603=3redatf|1604=1|1605=3red|34=13|52=20130808-13:29:46.603|369=15|1=test|11=0000000000000000000C|21=1|38=5|40=2|44=169550|54=2|55=ES|59=0|60=20130808-13:29:46.603|77=O|107=ESU3|167=FUT|204=1|1028=N|9702=1|10=015|
20130808-13:29:43.608 : 8=FIX.4.2|9=277|35=8|34=16|49=CME|50=G|52=20130808-13:29:43.608|56=4G8288N|57=ST2|143=IL|369=13|1=test|6=0|11=0000000000000000000C|14=0|17=000000000000000000000000000000000000000T|20=0|37=00000000000000022|38=5|39=0|40=2|44=169550|48=17704|54=2|55=ES|60=20130808-13:29:43|107=ESU3|150=0|151=5|10=060|
20130808-13:29:43.608 : 8=FIX.4.2|9=000249|35=D|49=4G8288N|50=ST2|56=CME|57=G|142=IL|1603=3redatf|1604=1|1605=3red|34=14|52=20130808-13:29:46.603|369=15|1=test|11=0000000000000000000D|21=1|38=8|40=2|44=169550|54=2|55=ES|59=0|60=20130808-13:29:46.603|77=O|107=ESU3|167=FUT|204=1|1028=N|9702=1|10=020|
20130808-13:29:43.613 : 8=FIX.4.2|9=277|35=8|34=17|49=CME|50=G|52=20130808-13:29:43.613|56=4G8288N|57=ST2|143=IL|369=14|1=test|6=0|11=0000000000000000000D|14=0|17=000000000000000000000000000000000000000U|20=0|37=00000000000000023|38=8|39=0|40=2|44=169550|48=17704|54=2|55=ES|60=20130808-13:29:43|107=ESU3|150=0|151=8|10=067|
20130808-13:29:53.882 : 8=FIX.4.2|9=000257|35=F|49=4G8288N|50=ST2|56=CME|57=G|142=IL|1603=3redatf|1604=1|1605=3red|34=15|52=20130808-13:29:56.881|369=17|1=test|11=0000000000000000000E|37=14|41=00000000000000000003|54=1|55=ES|60=20130808-13:29:56.881|107=ESU3|167=FUT|1028=N|9717=00000000000000000003|10=242|
20130808-13:29:53.887 : 8=FIX.4.2|9=301|35=8|34=18|49=CME|50=G|52=20130808-13:29:53.886|56=4G8288N|57=ST2|143=IL|369=15|1=test|6=0|11=0000000000000000000E|14=0|17=000000000000000000000000000000000000001V|20=0|37=00000000000000014|38=5|39=4|40=2|41=00000000000000000003|44=169500|48=17704|54=1|55=ES|60=20130808-13:29:53|107=ESU3|150=4|151=5|10=172|
20130808-13:29:53.887 : 8=FIX.4.2|9=000257|35=F|49=4G8288N|50=ST2|56=CME|57=G|142=IL|1603=3redatf|1604=1|1605=3red|34=16|52=20130808-13:29:56.881|369=17|1=test|11=0000000000000000000F|37=15|41=00000000000000000004|54=1|55=ES|60=20130808-13:29:56.881|107=ESU3|167=FUT|1028=N|9717=00000000000000000004|10=247|
20130808-13:29:53.887 : 8=FIX.4.2|9=000257|35=F|49=4G8288N|50=ST2|56=CME|57=G|142=IL|1603=3redatf|1604=1|1605=3red|34=17|52=20130808-13:29:56.881|369=17|1=test|11=0000000000000000000G|37=16|41=00000000000000000005|54=1|55=ES|60=20130808-13:29:56.881|107=ESU3|167=FUT|1028=N|9717=00000000000000000005|10=252|
20130808-13:29:53.887 : 8=FIX.4.2|9=000257|35=F|49=4G8288N|50=ST2|56=CME|57=G|142=IL|1603=3redatf|1604=1|1605=3red|34=18|52=20130808-13:29:56.882|369=17|1=test|11=0000000000000000000H|37=17|41=00000000000000000006|54=2|55=ES|60=20130808-13:29:56.882|107=ESU3|167=FUT|1028=N|9717=00000000000000000006|10=004|
20130808-13:29:53.887 : 8=FIX.4.2|9=000257|35=F|49=4G8288N|50=ST2|56=CME|57=G|142=IL|1603=3redatf|1604=1|1605=3red|34=19|52=20130808-13:29:56.882|369=17|1=test|11=0000000000000000000I|37=19|41=00000000000000000008|54=2|55=ES|60=20130808-13:29:56.882|107=ESU3|167=FUT|1028=N|9717=00000000000000000008|10=012|
20130808-13:29:53.887 : 8=FIX.4.2|9=000257|35=F|49=4G8288N|50=ST2|56=CME|57=G|142=IL|1603=3redatf|1604=1|1605=3red|34=20|52=20130808-13:29:56.882|369=17|1=test|11=0000000000000000000J|37=20|41=00000000000000000009|54=2|55=ES|60=20130808-13:29:56.882|107=ESU3|167=FUT|1028=N|9717=00000000000000000009|10=255|
20130808-13:29:53.887 : 8=FIX.4.2|9=000257|35=F|49=4G8288N|50=ST2|56=CME|57=G|142=IL|1603=3redatf|1604=1|1605=3red|34=21|52=20130808-13:29:56.882|369=17|1=test|11=0000000000000000000K|37=22|41=0000000000000000000C|54=2|55=ES|60=20130808-13:29:56.882|107=ESU3|167=FUT|1028=N|9717=0000000000000000000C|10=023|
20130808-13:29:53.888 : 8=FIX.4.2|9=000257|35=F|49=4G8288N|50=ST2|56=CME|57=G|142=IL|1603=3redatf|1604=1|1605=3red|34=22|52=20130808-13:29:56.882|369=17|1=test|11=0000000000000000000L|37=23|41=0000000000000000000D|54=2|55=ES|60=20130808-13:29:56.882|107=ESU3|167=FUT|1028=N|9717=0000000000000000000D|10=028|
20130808-13:29:53.892 : 8=FIX.4.2|9=301|35=8|34=19|49=CME|50=G|52=20130808-13:29:53.891|56=4G8288N|57=ST2|143=IL|369=22|1=test|6=0|11=0000000000000000000F|14=0|17=000000000000000000000000000000000000001W|20=0|37=00000000000000015|38=5|39=4|40=2|41=00000000000000000004|44=169475|48=17704|54=1|55=ES|60=20130808-13:29:53|107=ESU3|150=4|151=5|10=182|
20130808-13:29:53.892 : 8=FIX.4.2|9=301|35=8|34=20|49=CME|50=G|52=20130808-13:29:53.892|56=4G8288N|57=ST2|143=IL|369=22|1=test|6=0|11=0000000000000000000G|14=0|17=000000000000000000000000000000000000001X|20=0|37=00000000000000016|38=6|39=4|40=2|41=00000000000000000005|44=169450|48=17704|54=1|55=ES|60=20130808-13:29:53|107=ESU3|150=4|151=6|10=174|
20130808-13:29:53.893 : 8=FIX.4.2|9=301|35=8|34=21|49=CME|50=G|52=20130808-13:29:53.892|56=4G8288N|57=ST2|143=IL|369=22|1=test|6=0|11=0000000000000000000H|14=0|17=000000000000000000000000000000000000001Y|20=0|37=00000000000000017|38=4|39=4|40=2|41=00000000000000000006|44=169550|48=17704|54=2|55=ES|60=20130808-13:29:53|107=ESU3|150=4|151=4|10=177|
20130808-13:29:53.894 : 8=FIX.4.2|9=301|35=8|34=22|49=CME|50=G|52=20130808-13:29:53.893|56=4G8288N|57=ST2|143=IL|369=22|1=test|6=0|11=0000000000000000000I|14=0|17=000000000000000000000000000000000000001Z|20=0|37=00000000000000019|38=5|39=4|40=2|41=00000000000000000008|44=169600|48=17704|54=2|55=ES|60=20130808-13:29:53|107=ESU3|150=4|151=5|10=183|
20130808-13:29:53.894 : 8=FIX.4.2|9=301|35=8|34=23|49=CME|50=G|52=20130808-13:29:53.894|56=4G8288N|57=ST2|143=IL|369=22|1=test|6=0|11=0000000000000000000J|14=0|17=0000000000000000000000000000000000000020|20=0|37=00000000000000020|38=4|39=4|40=2|41=00000000000000000009|44=169625|48=17704|54=2|55=ES|60=20130808-13:29:53|107=ESU3|150=4|151=4|10=143|
20130808-13:29:53.895 : 8=FIX.4.2|9=301|35=8|34=24|49=CME|50=G|52=20130808-13:29:53.894|56=4G8288N|57=ST2|143=IL|369=22|1=test|6=0|11=0000000000000000000K|14=0|17=0000000000000000000000000000000000000021|20=0|37=00000000000000022|38=5|39=4|40=2|41=0000000000000000000C|44=169550|48=17704|54=2|55=ES|60=20130808-13:29:53|107=ESU3|150=4|151=5|10=157|
20130808-13:29:53.896 : 8=FIX.4.2|9=301|35=8|34=25|49=CME|50=G|52=20130808-13:29:53.895|56=4G8288N|57=ST2|143=IL|369=22|1=test|6=0|11=0000000000000000000L|14=0|17=0000000000000000000000000000000000000022|20=0|37=00000000000000023|38=8|39=4|40=2|41=0000000000000000000D|44=169550|48=17704|54=2|55=ES|60=20130808-13:29:53|107=ESU3|150=4|151=8|10=169|
20130808-13:29:54.137 : 8=FIX.4.2|9=000249|35=D|49=4G8288N|50=ST2|56=CME|57=G|142=IL|1603=3redatf|1604=1|1605=3red|34=23|52=20130808-13:29:57.135|369=25|1=test|11=0000000000000000000M|21=1|38=7|40=2|44=169525|54=1|55=ES|59=0|60=20130808-13:29:57.135|77=O|107=ESU3|167=FUT|204=1|1028=N|9702=1|10=034|
20130808-13:29:54.143 : 8=FIX.4.2|9=277|35=8|34=26|49=CME|50=G|52=20130808-13:29:54.141|56=4G8288N|57=ST2|143=IL|369=23|1=test|6=0|11=0000000000000000000M|14=0|17=0000000000000000000000000000000000000023|20=0|37=00000000000000042|38=7|39=0|40=2|44=169525|48=17704|54=1|55=ES|60=20130808-13:29:54|107=ESU3|150=0|151=7|10=044|
20130808-13:29:54.154 : 8=FIX.4.2|9=292|35=8|34=27|49=CME|50=G|52=20130808-13:29:54.143|56=4G8288N|57=ST2|143=IL|369=23|1=test|6=0|11=0000000000000000000M|14=7|17=0000000000000000000000000000000000000024|20=0|31=169525|32=7|37=00000000000000042|38=7|39=2|40=2|44=169525|48=17704|54=1|55=ES|60=20130808-13:29:54|107=ESU3|150=2|151=0|10=233|
20130808-13:29:54.154 : 8=FIX.4.2|9=000249|35=D|49=4G8288N|50=ST2|56=CME|57=G|142=IL|1603=3redatf|1604=1|1605=3red|34=24|52=20130808-13:29:57.136|369=25|1=test|11=0000000000000000000N|21=1|38=5|40=2|44=169550|54=2|55=ES|59=0|60=20130808-13:29:57.136|77=O|107=ESU3|167=FUT|204=1|1028=N|9702=1|10=035|
20130808-13:29:54.154 : 8=FIX.4.2|9=000249|35=D|49=4G8288N|50=ST2|56=CME|57=G|142=IL|1603=3redatf|1604=1|1605=3red|34=25|52=20130808-13:29:57.136|369=25|1=test|11=0000000000000000000O|21=1|38=8|40=2|44=169525|54=1|55=ES|59=0|60=20130808-13:29:57.136|77=O|107=ESU3|167=FUT|204=1|1028=N|9702=1|10=041|
20130808-13:29:54.154 : 8=FIX.4.2|9=000249|35=D|49=4G8288N|50=ST2|56=CME|57=G|142=IL|1603=3redatf|1604=1|1605=3red|34=26|52=20130808-13:29:57.137|369=25|1=test|11=0000000000000000000P|21=1|38=7|40=2|44=169550|54=2|55=ES|59=0|60=20130808-13:29:57.137|77=O|107=ESU3|167=FUT|204=1|1028=N|9702=1|10=043|
20130808-13:29:54.154 : 8=FIX.4.2|9=000249|35=D|49=4G8288N|50=ST2|56=CME|57=G|142=IL|1603=3redatf|1604=1|1605=3red|34=27|52=20130808-13:29:57.137|369=25|1=test|11=0000000000000000000Q|21=1|38=4|40=2|44=169550|54=2|55=ES|59=0|60=20130808-13:29:57.137|77=O|107=ESU3|167=FUT|204=1|1028=N|9702=1|10=042|
20130808-13:29:54.154 : 8=FIX.4.2|9=000249|35=D|49=4G8288N|50=ST2|56=CME|57=G|142=IL|1603=3redatf|1604=1|1605=3red|34=28|52=20130808-13:29:57.138|369=25|1=test|11=0000000000000000000R|21=1|38=4|40=2|44=169525|54=1|55=ES|59=0|60=20130808-13:29:57.138|77=O|107=ESU3|167=FUT|204=1|1028=N|9702=1|10=047|
20130808-13:29:54.155 : 8=FIX.4.2|9=000249|35=D|49=4G8288N|50=ST2|56=CME|57=G|142=IL|1603=3redatf|1604=1|1605=3red|34=29|52=20130808-13:29:57.138|369=25|1=test|11=0000000000000000000S|21=1|38=5|40=2|44=169525|54=1|55=ES|59=0|60=20130808-13:29:57.138|77=O|107=ESU3|167=FUT|204=1|1028=N|9702=1|10=050|
20130808-13:29:54.155 : 8=FIX.4.2|9=000249|35=D|49=4G8288N|50=ST2|56=CME|57=G|142=IL|1603=3redatf|1604=1|1605=3red|34=30|52=20130808-13:29:57.139|369=25|1=test|11=0000000000000000000T|21=1|38=5|40=2|44=169525|54=1|55=ES|59=0|60=20130808-13:29:57.139|77=O|107=ESU3|167=FUT|204=1|1028=N|9702=1|10=045|
20130808-13:29:54.161 : 8=FIX.4.2|9=277|35=8|34=28|49=CME|50=G|52=20130808-13:29:54.158|56=4G8288N|57=ST2|143=IL|369=30|1=test|6=0|11=0000000000000000000N|14=0|17=0000000000000000000000000000000000000025|20=0|37=00000000000000043|38=5|39=0|40=2|44=169550|48=17704|54=2|55=ES|60=20130808-13:29:54|107=ESU3|150=0|151=5|10=051|
20130808-13:29:54.162 : 8=FIX.4.2|9=277|35=8|34=29|49=CME|50=G|52=20130808-13:29:54.161|56=4G8288N|57=ST2|143=IL|369=30|1=test|6=0|11=0000000000000000000O|14=0|17=0000000000000000000000000000000000000026|20=0|37=00000000000000044|38=8|39=0|40=2|44=169525|48=17704|54=1|55=ES|60=20130808-13:29:54|107=ESU3|150=0|151=8|10=056|
20130808-13:29:54.162 : 8=FIX.4.2|9=292|35=8|34=30|49=CME|50=G|52=20130808-13:29:54.162|56=4G8288N|57=ST2|143=IL|369=30|1=test|6=0|11=0000000000000000000O|14=8|17=0000000000000000000000000000000000000027|20=0|31=169525|32=8|37=00000000000000044|38=8|39=2|40=2|44=169525|48=17704|54=1|55=ES|60=20130808-13:29:54|107=ESU3|150=2|151=0|10=236|
20130808-13:29:54.163 : 8=FIX.4.2|9=277|35=8|34=31|49=CME|50=G|52=20130808-13:29:54.163|56=4G8288N|57=ST2|143=IL|369=30|1=test|6=0|11=0000000000000000000P|14=0|17=0000000000000000000000000000000000000028|20=0|37=00000000000000045|38=7|39=0|40=2|44=169550|48=17704|54=2|55=ES|60=20130808-13:29:54|107=ESU3|150=0|151=7|10=052|
20130808-13:29:54.164 : 8=FIX.4.2|9=277|35=8|34=32|49=CME|50=G|52=20130808-13:29:54.163|56=4G8288N|57=ST2|143=IL|369=30|1=test|6=0|11=0000000000000000000Q|14=0|17=0000000000000000000000000000000000000029|20=0|37=00000000000000046|38=4|39=0|40=2|44=169550|48=17704|54=2|55=ES|60=20130808-13:29:54|107=ESU3|150=0|151=4|10=050|
20130808-13:29:54.164 : 8=FIX.4.2|9=277|35=8|34=33|49=CME|50=G|52=20130808-13:29:54.164|56=4G8288N|57=ST2|143=IL|369=30|1=test|6=0|11=0000000000000000000R|14=0|17=000000000000000000000000000000000000002A|20=0|37=00000000000000047|38=4|39=0|40=2|44=169525|48=17704|54=1|55=ES|60=20130808-13:29:54|107=ESU3|150=0|151=4|10=063|
20130808-13:29:54.165 : 8=FIX.4.2|9=292|35=8|34=34|49=CME|50=G|52=20130808-13:29:54.165|56=4G8288N|57=ST2|143=IL|369=30|1=test|6=0|11=0000000000000000000R|14=4|17=000000000000000000000000000000000000002B|20=0|31=169525|32=4|37=00000000000000047|38=4|39=2|40=2|44=169525|48=17704|54=1|55=ES|60=20130808-13:29:54|107=ESU3|150=2|151=0|10=248|
20130808-13:29:54.166 : 8=FIX.4.2|9=277|35=8|34=35|49=CME|50=G|52=20130808-13:29:54.165|56=4G8288N|57=ST2|143=IL|369=30|1=test|6=0|11=0000000000000000000S|14=0|17=000000000000000000000000000000000000002C|20=0|37=00000000000000048|38=5|39=0|40=2|44=169525|48=17704|54=1|55=ES|60=20130808-13:29:54|107=ESU3|150=0|151=5|10=072|
20130808-13:29:54.167 : 8=FIX.4.2|9=292|35=8|34=36|49=CME|50=G|52=20130808-13:29:54.166|56=4G8288N|57=ST2|143=IL|369=30|1=test|6=0|11=0000000000000000000S|14=5|17=000000000000000000000000000000000000002D|20=0|31=169525|32=5|37=00000000000000048|38=5|39=2|40=2|44=169525|48=17704|54=1|55=ES|60=20130808-13:29:54|107=ESU3|150=2|151=0|10=002|
20130808-13:29:54.168 : 8=FIX.4.2|9=277|35=8|34=37|49=CME|50=G|52=20130808-13:29:54.167|56=4G8288N|57=ST2|143=IL|369=30|1=test|6=0|11=0000000000000000000T|14=0|17=000000000000000000000000000000000000002E|20=0|37=00000000000000049|38=5|39=0|40=2|44=169525|48=17704|54=1|55=ES|60=20130808-13:29:54|107=ESU3|150=0|151=5|10=080|
20130808-13:29:54.168 : 8=FIX.4.2|9=292|35=8|34=38|49=CME|50=G|52=20130808-13:29:54.168|56=4G8288N|57=ST2|143=IL|369=30|1=test|6=0|11=0000000000000000000T|14=5|17=000000000000000000000000000000000000002F|20=0|31=169525|32=5|37=00000000000000049|38=5|39=2|40=2|44=169525|48=17704|54=1|55=ES|60=20130808-13:29:54|107=ESU3|150=2|151=0|10=010|
20130808-13:29:54.393 : 8=FIX.4.2|9=000249|35=D|49=4G8288N|50=ST2|56=CME|57=G|142=IL|1603=3redatf|1604=1|1605=3red|34=31|52=20130808-13:29:57.392|369=38|1=test|11=0000000000000000000U|21=1|38=8|40=2|44=169525|54=1|55=ES|59=0|60=20130808-13:29:57.392|77=O|107=ESU3|167=FUT|204=1|1028=N|9702=1|10=056|
20130808-13:29:54.398 : 8=FIX.4.2|9=277|35=8|34=39|49=CME|50=G|52=20130808-13:29:54.397|56=4G8288N|57=ST2|143=IL|369=31|1=test|6=0|11=0000000000000000000U|14=0|17=000000000000000000000000000000000000002G|20=0|37=00000000000000050|38=8|39=0|40=2|44=169525|48=17704|54=1|55=ES|60=20130808-13:29:54|107=ESU3|150=0|151=8|10=089|
20130808-13:29:54.399 : 8=FIX.4.2|9=292|35=8|34=40|49=CME|50=G|52=20130808-13:29:54.398|56=4G8288N|57=ST2|143=IL|369=31|1=test|6=0|11=0000000000000000000U|14=8|17=000000000000000000000000000000000000002H|20=0|31=169525|32=8|37=00000000000000050|38=8|39=2|40=2|44=169525|48=17704|54=1|55=ES|60=20130808-13:29:54|107=ESU3|150=2|151=0|10=013|
20130808-13:29:54.399 : 8=FIX.4.2|9=000249|35=D|49=4G8288N|50=ST2|56=CME|57=G|142=IL|1603=3redatf|1604=1|1605=3red|34=32|52=20130808-13:29:57.393|369=38|1=test|11=0000000000000000000V|21=1|38=7|40=2|44=169550|54=2|55=ES|59=0|60=20130808-13:29:57.393|77=O|107=ESU3|167=FUT|204=1|1028=N|9702=1|10=058|
20130808-13:29:54.399 : 8=FIX.4.2|9=000257|35=F|49=4G8288N|50=ST2|56=CME|57=G|142=IL|1603=3redatf|1604=1|1605=3red|34=33|52=20130808-13:29:57.393|369=38|1=test|11=0000000000000000000W|37=45|41=0000000000000000000P|54=2|55=ES|60=20130808-13:29:57.393|107=ESU3|167=FUT|1028=N|9717=0000000000000000000P|10=068|
20130808-13:29:54.399 : 8=FIX.4.2|9=000257|35=F|49=4G8288N|50=ST2|56=CME|57=G|142=IL|1603=3redatf|1604=1|1605=3red|34=34|52=20130808-13:29:57.394|369=38|1=test|11=0000000000000000000X|37=46|41=0000000000000000000Q|54=2|55=ES|60=20130808-13:29:57.394|107=ESU3|167=FUT|1028=N|9717=0000000000000000000Q|10=075|
20130808-13:29:54.399 : 8=FIX.4.2|9=000249|35=D|49=4G8288N|50=ST2|56=CME|57=G|142=IL|1603=3redatf|1604=1|1605=3red|34=35|52=20130808-13:29:57.395|369=38|1=test|11=0000000000000000000Z|21=1|38=7|40=2|44=169525|54=1|55=ES|59=0|60=20130808-13:29:57.395|77=O|107=ESU3|167=FUT|204=1|1028=N|9702=1|10=070|
20130808-13:29:54.399 : 8=FIX.4.2|9=000249|35=D|49=4G8288N|50=ST2|56=CME|57=G|142=IL|1603=3redatf|1604=1|1605=3red|34=36|52=20130808-13:29:57.395|369=38|1=test|11=00000000000000000010|21=1|38=5|40=2|44=169525|54=1|55=ES|59=0|60=20130808-13:29:57.395|77=O|107=ESU3|167=FUT|204=1|1028=N|9702=1|10=028|
20130808-13:29:54.399 : 8=FIX.4.2|9=000249|35=D|49=4G8288N|50=ST2|56=CME|57=G|142=IL|1603=3redatf|1604=1|1605=3red|34=37|52=20130808-13:29:57.396|369=38|1=test|11=00000000000000000011|21=1|38=8|40=2|44=169550|54=2|55=ES|59=0|60=20130808-13:29:57.396|77=O|107=ESU3|167=FUT|204=1|1028=N|9702=1|10=034|
20130808-13:29:54.404 : 8=FIX.4.2|9=277|35=8|34=41|49=CME|50=G|52=20130808-13:29:54.403|56=4G8288N|57=ST2|143=IL|369=37|1=test|6=0|11=0000000000000000000V|14=0|17=000000000000000000000000000000000000002I|20=0|37=00000000000000051|38=7|39=0|40=2|44=169550|48=17704|54=2|55=ES|60=20130808-13:29:54|107=ESU3|150=0|151=7|10=077|
20130808-13:29:54.404 : 8=FIX.4.2|9=301|35=8|34=42|49=CME|50=G|52=20130808-13:29:54.404|56=4G8288N|57=ST2|143=IL|369=37|1=test|6=0|11=0000000000000000000W|14=0|17=000000000000000000000000000000000000002J|20=0|37=00000000000000045|38=7|39=4|40=2|41=0000000000000000000P|44=169550|48=17704|54=2|55=ES|60=20130808-13:29:54|107=ESU3|150=4|151=7|10=211|
20130808-13:29:54.406 : 8=FIX.4.2|9=301|35=8|34=43|49=CME|50=G|52=20130808-13:29:54.404|56=4G8288N|57=ST2|143=IL|369=37|1=test|6=0|11=0000000000000000000X|14=0|17=000000000000000000000000000000000000002K|20=0|37=00000000000000046|38=4|39=4|40=2|41=0000000000000000000Q|44=169550|48=17704|54=2|55=ES|60=20130808-13:29:54|107=ESU3|150=4|151=4|10=210|
20130808-13:29:54.406 : 8=FIX.4.2|9=277|35=8|34=44|49=CME|50=G|52=20130808-13:29:54.406|56=4G8288N|57=ST2|143=IL|369=37|1=test|6=0|11=0000000000000000000Z|14=0|17=000000000000000000000000000000000000002L|20=0|37=00000000000000052|38=7|39=0|40=2|44=169525|48=17704|54=1|55=ES|60=20130808-13:29:54|107=ESU3|150=0|151=7|10=092|
20130808-13:29:54.407 : 8=FIX.4.2|9=292|35=8|34=45|49=CME|50=G|52=20130808-13:29:54.407|56=4G8288N|57=ST2|143=IL|369=37|1=test|6=0|11=0000000000000000000Z|14=7|17=000000000000000000000000000000000000002M|20=0|31=169525|32=7|37=00000000000000052|38=7|39=2|40=2|44=169525|48=17704|54=1|55=ES|60=20130808-13:29:54|107=ESU3|150=2|151=0|10=024|
20130808-13:29:54.408 : 8=FIX.4.2|9=277|35=8|34=46|49=CME|50=G|52=20130808-13:29:54.407|56=4G8288N|57=ST2|143=IL|369=37|1=test|6=0|11=00000000000000000010|14=0|17=000000000000000000000000000000000000002N|20=0|37=00000000000000053|38=5|39=0|40=2|44=169525|48=17704|54=1|55=ES|60=20130808-13:29:54|107=ESU3|150=0|151=5|10=053|
20130808-13:29:54.409 : 8=FIX.4.2|9=292|35=8|34=47|49=CME|50=G|52=20130808-13:29:54.408|56=4G8288N|57=ST2|143=IL|369=37|1=test|6=0|11=00000000000000000010|14=5|17=000000000000000000000000000000000000002O|20=0|31=169525|32=5|37=00000000000000053|38=5|39=2|40=2|44=169525|48=17704|54=1|55=ES|60=20130808-13:29:54|107=ESU3|150=2|151=0|10=239|
20130808-13:29:54.409 : 8=FIX.4.2|9=277|35=8|34=48|49=CME|50=G|52=20130808-13:29:54.409|56=4G8288N|57=ST2|143=IL|369=37|1=test|6=0|11=00000000000000000011|14=0|17=000000000000000000000000000000000000002P|20=0|37=00000000000000054|38=8|39=0|40=2|44=169550|48=17704|54=2|55=ES|60=20130808-13:29:54|107=ESU3|150=0|151=8|10=066|
20130808-13:29:54.651 : 8=FIX.4.2|9=000249|35=D|49=4G8288N|50=ST2|56=CME|57=G|142=IL|1603=3redatf|1604=1|1605=3red|34=38|52=20130808-13:29:57.650|369=48|1=test|11=00000000000000000012|21=1|38=4|40=2|44=169550|54=2|55=ES|59=0|60=20130808-13:29:57.650|77=O|107=ESU3|167=FUT|204=1|1028=N|9702=1|10=019|
20130808-13:29:54.656 : 8=FIX.4.2|9=277|35=8|34=49|49=CME|50=G|52=20130808-13:29:54.655|56=4G8288N|57=ST2|143=IL|369=38|1=test|6=0|11=00000000000000000012|14=0|17=000000000000000000000000000000000000002Q|20=0|37=00000000000000055|38=4|39=0|40=2|44=169550|48=17704|54=2|55=ES|60=20130808-13:29:54|107=ESU3|150=0|151=4|10=066|
20130808-13:29:54.656 : 8=FIX.4.2|9=000249|35=D|49=4G8288N|50=ST2|56=CME|57=G|142=IL|1603=3redatf|1604=1|1605=3red|34=39|52=20130808-13:29:57.651|369=48|1=test|11=00000000000000000013|21=1|38=8|40=2|44=169550|54=2|55=ES|59=0|60=20130808-13:29:57.651|77=O|107=ESU3|167=FUT|204=1|1028=N|9702=1|10=027|
20130808-13:29:54.656 : 8=FIX.4.2|9=000249|35=D|49=4G8288N|50=ST2|56=CME|57=G|142=IL|1603=3redatf|1604=1|1605=3red|34=40|52=20130808-13:29:57.651|369=48|1=test|11=00000000000000000014|21=1|38=6|40=2|44=169550|54=2|55=ES|59=0|60=20130808-13:29:57.651|77=O|107=ESU3|167=FUT|204=1|1028=N|9702=1|10=018|
20130808-13:29:54.656 : 8=FIX.4.2|9=000249|35=D|49=4G8288N|50=ST2|56=CME|57=G|142=IL|1603=3redatf|1604=1|1605=3red|34=41|52=20130808-13:29:57.652|369=48|1=test|11=00000000000000000015|21=1|38=8|40=2|44=169550|54=2|55=ES|59=0|60=20130808-13:29:57.652|77=O|107=ESU3|167=FUT|204=1|1028=N|9702=1|10=024|
20130808-13:29:54.656 : 8=FIX.4.2|9=000249|35=D|49=4G8288N|50=ST2|56=CME|57=G|142=IL|1603=3redatf|1604=1|1605=3red|34=42|52=20130808-13:29:57.653|369=48|1=test|11=00000000000000000016|21=1|38=5|40=2|44=169550|54=2|55=ES|59=0|60=20130808-13:29:57.653|77=O|107=ESU3|167=FUT|204=1|1028=N|9702=1|10=025|
20130808-13:29:54.661 : 8=FIX.4.2|9=277|35=8|34=50|49=CME|50=G|52=20130808-13:29:54.660|56=4G8288N|57=ST2|143=IL|369=42|1=test|6=0|11=00000000000000000013|14=0|17=000000000000000000000000000000000000002R|20=0|37=00000000000000056|38=8|39=0|40=2|44=169550|48=17704|54=2|55=ES|60=20130808-13:29:54|107=ESU3|150=0|151=8|10=060|
20130808-13:29:54.661 : 8=FIX.4.2|9=277|35=8|34=51|49=CME|50=G|52=20130808-13:29:54.661|56=4G8288N|57=ST2|143=IL|369=42|1=test|6=0|11=00000000000000000014|14=0|17=000000000000000000000000000000000000002S|20=0|37=00000000000000057|38=6|39=0|40=2|44=169550|48=17704|54=2|55=ES|60=20130808-13:29:54|107=ESU3|150=0|151=6|10=061|
20130808-13:29:54.662 : 8=FIX.4.2|9=277|35=8|34=52|49=CME|50=G|52=20130808-13:29:54.661|56=4G8288N|57=ST2|143=IL|369=42|1=test|6=0|11=00000000000000000015|14=0|17=000000000000000000000000000000000000002T|20=0|37=00000000000000058|38=8|39=0|40=2|44=169550|48=17704|54=2|55=ES|60=20130808-13:29:54|107=ESU3|150=0|151=8|10=069|
20130808-13:29:54.663 : 8=FIX.4.2|9=277|35=8|34=53|49=CME|50=G|52=20130808-13:29:54.662|56=4G8288N|57=ST2|143=IL|369=42|1=test|6=0|11=00000000000000000016|14=0|17=000000000000000000000000000000000000002U|20=0|37=00000000000000059|38=5|39=0|40=2|44=169550|48=17704|54=2|55=ES|60=20130808-13:29:54|107=ESU3|150=0|151=5|10=068|
20130808-13:30:01.143 : 8=FIX.4.2|9=292|35=8|34=54|49=CME|50=G|52=20130808-13:30:01.142|56=4G8288N|57=ST2|143=IL|369=42|1=test|6=0|11=0000000000000000000N|14=1|17=0000000000000000000000000000000000000033|20=0|31=169550|32=1|37=00000000000000043|38=5|39=1|40=2|44=169550|48=17704|54=2|55=ES|60=20130808-13:30:01|107=ESU3|150=1|151=4|10=188|
20130808-13:30:01.144 : 8=FIX.4.2|9=292|35=8|34=55|49=CME|50=G|52=20130808-13:30:01.143|56=4G8288N|57=ST2|143=IL|369=42|1=test|6=0|11=0000000000000000000V|14=1|17=0000000000000000000000000000000000000034|20=0|31=169550|32=1|37=00000000000000051|38=7|39=1|40=2|44=169550|48=17704|54=2|55=ES|60=20130808-13:30:01|107=ESU3|150=1|151=6|10=202|
20130808-13:30:01.145 : 8=FIX.4.2|9=292|35=8|34=56|49=CME|50=G|52=20130808-13:30:01.144|56=4G8288N|57=ST2|143=IL|369=42|1=test|6=0|11=00000000000000000011|14=1|17=0000000000000000000000000000000000000035|20=0|31=169550|32=1|37=00000000000000054|38=8|39=1|40=2|44=169550|48=17704|54=2|55=ES|60=20130808-13:30:01|107=ESU3|150=1|151=7|10=174|
20130808-13:30:01.145 : 8=FIX.4.2|9=292|35=8|34=57|49=CME|50=G|52=20130808-13:30:01.145|56=4G8288N|57=ST2|143=IL|369=42|1=test|6=0|11=00000000000000000012|14=1|17=0000000000000000000000000000000000000036|20=0|31=169550|32=1|37=00000000000000055|38=4|39=1|40=2|44=169550|48=17704|54=2|55=ES|60=20130808-13:30:01|107=ESU3|150=1|151=3|10=171|
20130808-13:30:01.146 : 8=FIX.4.2|9=292|35=8|34=58|49=CME|50=G|52=20130808-13:30:01.145|56=4G8288N|57=ST2|143=IL|369=42|1=test|6=0|11=00000000000000000013|14=1|17=0000000000000000000000000000000000000037|20=0|31=169550|32=1|37=00000000000000056|38=8|39=1|40=2|44=169550|48=17704|54=2|55=ES|60=20130808-13:30:01|107=ESU3|150=1|151=7|10=183|
20130808-13:30:01.147 : 8=FIX.4.2|9=292|35=8|34=59|49=CME|50=G|52=20130808-13:30:01.146|56=4G8288N|57=ST2|143=IL|369=42|1=test|6=0|11=00000000000000000014|14=1|17=0000000000000000000000000000000000000038|20=0|31=169550|32=1|37=00000000000000057|38=6|39=1|40=2|44=169550|48=17704|54=2|55=ES|60=20130808-13:30:01|107=ESU3|150=1|151=5|10=184|
20130808-13:30:01.147 : 8=FIX.4.2|9=292|35=8|34=60|49=CME|50=G|52=20130808-13:30:01.147|56=4G8288N|57=ST2|143=IL|369=42|1=test|6=0|11=00000000000000000015|14=1|17=0000000000000000000000000000000000000039|20=0|31=169550|32=1|37=00000000000000058|38=8|39=1|40=2|44=169550|48=17704|54=2|55=ES|60=20130808-13:30:01|107=ESU3|150=1|151=7|10=184|
20130808-13:30:01.148 : 8=FIX.4.2|9=292|35=8|34=61|49=CME|50=G|52=20130808-13:30:01.148|56=4G8288N|57=ST2|143=IL|369=42|1=test|6=0|11=00000000000000000016|14=1|17=000000000000000000000000000000000000003A|20=0|31=169550|32=1|37=00000000000000059|38=5|39=1|40=2|44=169550|48=17704|54=2|55=ES|60=20130808-13:30:01|107=ESU3|150=1|151=4|10=190|
20130808-13:30:01.155 : 8=FIX.4.2|9=292|35=8|34=62|49=CME|50=G|52=20130808-13:30:01.154|56=4G8288N|57=ST2|143=IL|369=42|1=test|6=0|11=0000000000000000000N|14=5|17=000000000000000000000000000000000000003J|20=0|31=169550|32=4|37=00000000000000043|38=5|39=2|40=2|44=169550|48=17704|54=2|55=ES|60=20130808-13:30:01|107=ESU3|150=2|151=0|10=218|
20130808-13:30:01.155 : 8=FIX.4.2|9=292|35=8|34=63|49=CME|50=G|52=20130808-13:30:01.155|56=4G8288N|57=ST2|143=IL|369=42|1=test|6=0|11=0000000000000000000V|14=7|17=000000000000000000000000000000000000003K|20=0|31=169550|32=6|37=00000000000000051|38=7|39=2|40=2|44=169550|48=17704|54=2|55=ES|60=20130808-13:30:01|107=ESU3|150=2|151=0|10=234|
20130808-13:30:01.156 : 8=FIX.4.2|9=292|35=8|34=64|49=CME|50=G|52=20130808-13:30:01.155|56=4G8288N|57=ST2|143=IL|369=42|1=test|6=0|11=00000000000000000011|14=7|17=000000000000000000000000000000000000003L|20=0|31=169550|32=6|37=00000000000000054|38=8|39=1|40=2|44=169550|48=17704|54=2|55=ES|60=20130808-13:30:01|107=ESU3|150=1|151=1|10=203|
20130808-13:30:01.157 : 8=FIX.4.2|9=292|35=8|34=65|49=CME|50=G|52=20130808-13:30:01.156|56=4G8288N|57=ST2|143=IL|369=42|1=test|6=0|11=00000000000000000012|14=4|17=000000000000000000000000000000000000003M|20=0|31=169550|32=3|37=00000000000000055|38=4|39=2|40=2|44=169550|48=17704|54=2|55=ES|60=20130808-13:30:01|107=ESU3|150=2|151=0|10=199|
20130808-13:30:01.158 : 8=FIX.4.2|9=292|35=8|34=66|49=CME|50=G|52=20130808-13:30:01.157|56=4G8288N|57=ST2|143=IL|369=42|1=test|6=0|11=00000000000000000013|14=7|17=000000000000000000000000000000000000003N|20=0|31=169550|32=6|37=00000000000000056|38=8|39=1|40=2|44=169550|48=17704|54=2|55=ES|60=20130808-13:30:01|107=ESU3|150=1|151=1|10=213|
20130808-13:30:01.159 : 8=FIX.4.2|9=292|35=8|34=67|49=CME|50=G|52=20130808-13:30:01.158|56=4G8288N|57=ST2|143=IL|369=42|1=test|6=0|11=00000000000000000014|14=6|17=000000000000000000000000000000000000003O|20=0|31=169550|32=5|37=00000000000000057|38=6|39=2|40=2|44=169550|48=17704|54=2|55=ES|60=20130808-13:30:01|107=ESU3|150=2|151=0|10=215|
20130808-13:30:01.159 : 8=FIX.4.2|9=292|35=8|34=68|49=CME|50=G|52=20130808-13:30:01.159|56=4G8288N|57=ST2|143=IL|369=42|1=test|6=0|11=00000000000000000015|14=7|17=000000000000000000000000000000000000003P|20=0|31=169550|32=6|37=00000000000000058|38=8|39=1|40=2|44=169550|48=17704|54=2|55=ES|60=20130808-13:30:01|107=ESU3|150=1|151=1|10=223|
20130808-13:30:01.160 : 8=FIX.4.2|9=292|35=8|34=69|49=CME|50=G|52=20130808-13:30:01.159|56=4G8288N|57=ST2|143=IL|369=42|1=test|6=0|11=00000000000000000016|14=5|17=000000000000000000000000000000000000003Q|20=0|31=169550|32=4|37=00000000000000059|38=5|39=2|40=2|44=169550|48=17704|54=2|55=ES|60=20130808-13:30:01|107=ESU3|150=2|151=0|10=221|
20130808-13:30:01.161 : 8=FIX.4.2|9=292|35=8|34=70|49=CME|50=G|52=20130808-13:30:01.160|56=4G8288N|57=ST2|143=IL|369=42|1=test|6=0|11=00000000000000000011|14=8|17=000000000000000000000000000000000000003R|20=0|31=169550|32=1|37=00000000000000054|38=8|39=2|40=2|44=169550|48=17704|54=2|55=ES|60=20130808-13:30:01|107=ESU3|150=2|151=0|10=199|
20130808-13:30:01.162 : 8=FIX.4.2|9=292|35=8|34=71|49=CME|50=G|52=20130808-13:30:01.161|56=4G8288N|57=ST2|143=IL|369=42|1=test|6=0|11=00000000000000000013|14=8|17=000000000000000000000000000000000000003S|20=0|31=169550|32=1|37=00000000000000056|38=8|39=2|40=2|44=169550|48=17704|54=2|55=ES|60=20130808-13:30:01|107=ESU3|150=2|151=0|10=206|
20130808-13:30:01.163 : 8=FIX.4.2|9=292|35=8|34=72|49=CME|50=G|52=20130808-13:30:01.162|56=4G8288N|57=ST2|143=IL|369=42|1=test|6=0|11=00000000000000000015|14=8|17=000000000000000000000000000000000000003T|20=0|31=169550|32=1|37=00000000000000058|38=8|39=2|40=2|44=169550|48=17704|54=2|55=ES|60=20130808-13:30:01|107=ESU3|150=2|151=0|10=213|
20130808-13:30:01.173 : 8=FIX.4.2|9=000249|35=D|49=4G8288N|50=ST2|56=CME|57=G|142=IL|1603=3redatf|1604=1|1605=3red|34=43|52=20130808-13:30:04.172|369=72|1=test|11=00000000000000000019|21=1|38=8|40=2|44=169550|54=2|55=ES|59=0|60=20130808-13:30:04.172|77=O|107=ESU3|167=FUT|204=1|1028=N|9702=1|10=245|
20130808-13:30:01.182 : 8=FIX.4.2|9=277|35=8|34=73|49=CME|50=G|52=20130808-13:30:01.181|56=4G8288N|57=ST2|143=IL|369=43|1=test|6=0|11=00000000000000000019|14=0|17=000000000000000000000000000000000000003U|20=0|37=00000000000000060|38=8|39=0|40=2|44=169550|48=17704|54=2|55=ES|60=20130808-13:30:01|107=ESU3|150=0|151=8|10=037|
20130808-13:30:01.182 : 8=FIX.4.2|9=000249|35=D|49=4G8288N|50=ST2|56=CME|57=G|142=IL|1603=3redatf|1604=1|1605=3red|34=44|52=20130808-13:30:04.173|369=72|1=test|11=0000000000000000001A|21=1|38=8|40=2|44=169550|54=2|55=ES|59=0|60=20130808-13:30:04.173|77=O|107=ESU3|167=FUT|204=1|1028=N|9702=1|10=000|
20130808-13:30:01.182 : 8=FIX.4.2|9=000249|35=D|49=4G8288N|50=ST2|56=CME|57=G|142=IL|1603=3redatf|1604=1|1605=3red|34=45|52=20130808-13:30:04.174|369=72|1=test|11=0000000000000000001B|21=1|38=4|40=2|44=169525|54=1|55=ES|59=0|60=20130808-13:30:04.174|77=O|107=ESU3|167=FUT|204=1|1028=N|9702=1|10=001|
20130808-13:30:01.182 : 8=FIX.4.2|9=000249|35=D|49=4G8288N|50=ST2|56=CME|57=G|142=IL|1603=3redatf|1604=1|1605=3red|34=46|52=20130808-13:30:04.174|369=72|1=test|11=0000000000000000001C|21=1|38=8|40=2|44=169525|54=1|55=ES|59=0|60=20130808-13:30:04.174|77=O|107=ESU3|167=FUT|204=1|1028=N|9702=1|10=007|
20130808-13:30:01.182 : 8=FIX.4.2|9=000249|35=D|49=4G8288N|50=ST2|56=CME|57=G|142=IL|1603=3redatf|1604=1|1605=3red|34=47|52=20130808-13:30:04.175|369=72|1=test|11=0000000000000000001D|21=1|38=4|40=2|44=169550|54=2|55=ES|59=0|60=20130808-13:30:04.175|77=O|107=ESU3|167=FUT|204=1|1028=N|9702=1|10=006|
20130808-13:30:01.182 : 8=FIX.4.2|9=000249|35=D|49=4G8288N|50=ST2|56=CME|57=G|142=IL|1603=3redatf|1604=1|1605=3red|34=48|52=20130808-13:30:04.176|369=72|1=test|11=0000000000000000001F|21=1|38=6|40=2|44=169525|54=1|55=ES|59=0|60=20130808-13:30:04.176|77=O|107=ESU3|167=FUT|204=1|1028=N|9702=1|10=014|
20130808-13:30:01.182 : 8=FIX.4.2|9=000249|35=D|49=4G8288N|50=ST2|56=CME|57=G|142=IL|1603=3redatf|1604=1|1605=3red|34=49|52=20130808-13:30:04.176|369=72|1=test|11=0000000000000000001G|21=1|38=4|40=2|44=169550|54=2|55=ES|59=0|60=20130808-13:30:04.176|77=O|107=ESU3|167=FUT|204=1|1028=N|9702=1|10=013|
20130808-13:30:01.183 : 8=FIX.4.2|9=000249|35=D|49=4G8288N|50=ST2|56=CME|57=G|142=IL|1603=3redatf|1604=1|1605=3red|34=50|52=20130808-13:30:04.177|369=72|1=test|11=0000000000000000001H|21=1|38=6|40=2|44=169525|54=1|55=ES|59=0|60=20130808-13:30:04.177|77=O|107=ESU3|167=FUT|204=1|1028=N|9702=1|10=011|
20130808-13:30:01.183 : 8=FIX.4.2|9=000249|35=D|49=4G8288N|50=ST2|56=CME|57=G|142=IL|1603=3redatf|1604=1|1605=3red|34=51|52=20130808-13:30:04.178|369=72|1=test|11=0000000000000000001I|21=1|38=8|40=2|44=169550|54=2|55=ES|59=0|60=20130808-13:30:04.178|77=O|107=ESU3|167=FUT|204=1|1028=N|9702=1|10=016|
20130808-13:30:01.187 : 8=FIX.4.2|9=292|35=8|34=74|49=CME|50=G|52=20130808-13:30:01.186|56=4G8288N|57=ST2|143=IL|369=51|1=test|6=0|11=00000000000000000019|14=8|17=000000000000000000000000000000000000003V|20=0|31=169550|32=8|37=00000000000000060|38=8|39=2|40=2|44=169550|48=17704|54=2|55=ES|60=20130808-13:30:01|107=ESU3|150=2|151=0|10=227|
20130808-13:30:01.195 : 8=FIX.4.2|9=277|35=8|34=75|49=CME|50=G|52=20130808-13:30:01.194|56=4G8288N|57=ST2|143=IL|369=51|1=test|6=0|11=0000000000000000001A|14=0|17=000000000000000000000000000000000000003W|20=0|37=00000000000000061|38=8|39=0|40=2|44=169550|48=17704|54=2|55=ES|60=20130808-13:30:01|107=ESU3|150=0|151=8|10=053|
20130808-13:30:01.195 : 8=FIX.4.2|9=292|35=8|34=76|49=CME|50=G|52=20130808-13:30:01.195|56=4G8288N|57=ST2|143=IL|369=51|1=test|6=0|11=0000000000000000001A|14=8|17=000000000000000000000000000000000000003X|20=0|31=169575|32=8|37=00000000000000061|38=8|39=2|40=2|44=169575|48=17704|54=2|55=ES|60=20130808-13:30:01|107=ESU3|150=2|151=0|10=254|
20130808-13:30:01.196 : 8=FIX.4.2|9=277|35=8|34=77|49=CME|50=G|52=20130808-13:30:01.196|56=4G8288N|57=ST2|143=IL|369=51|1=test|6=0|11=0000000000000000001B|14=0|17=000000000000000000000000000000000000003Y|20=0|37=00000000000000062|38=4|39=0|40=2|44=169525|48=17704|54=1|55=ES|60=20130808-13:30:01|107=ESU3|150=0|151=4|10=054|
20130808-13:30:01.197 : 8=FIX.4.2|9=277|35=8|34=78|49=CME|50=G|52=20130808-13:30:01.196|56=4G8288N|57=ST2|143=IL|369=51|1=test|6=0|11=0000000000000000001C|14=0|17=000000000000000000000000000000000000003Z|20=0|37=00000000000000063|38=8|39=0|40=2|44=169525|48=17704|54=1|55=ES|60=20130808-13:30:01|107=ESU3|150=0|151=8|10=066|
20130808-13:30:01.198 : 8=FIX.4.2|9=277|35=8|34=79|49=CME|50=G|52=20130808-13:30:01.197|56=4G8288N|57=ST2|143=IL|369=51|1=test|6=0|11=0000000000000000001D|14=0|17=0000000000000000000000000000000000000040|20=0|37=00000000000000064|38=4|39=0|40=2|44=169550|48=17704|54=2|55=ES|60=20130808-13:30:01|107=ESU3|150=0|151=4|10=020|
20130808-13:30:01.199 : 8=FIX.4.2|9=292|35=8|34=80|49=CME|50=G|52=20130808-13:30:01.198|56=4G8288N|57=ST2|143=IL|369=51|1=test|6=0|11=0000000000000000001D|14=4|17=0000000000000000000000000000000000000041|20=0|31=169575|32=4|37=00000000000000064|38=4|39=2|40=2|44=169575|48=17704|54=2|55=ES|60=20130808-13:30:01|107=ESU3|150=2|151=0|10=208|
20130808-13:30:01.199 : 8=FIX.4.2|9=277|35=8|34=81|49=CME|50=G|52=20130808-13:30:01.199|56=4G8288N|57=ST2|143=IL|369=51|1=test|6=0|11=0000000000000000001F|14=0|17=0000000000000000000000000000000000000042|20=0|37=00000000000000065|38=6|39=0|40=2|44=169525|48=17704|54=1|55=ES|60=20130808-13:30:01|107=ESU3|150=0|151=6|10=025|
20130808-13:30:01.200 : 8=FIX.4.2|9=277|35=8|34=82|49=CME|50=G|52=20130808-13:30:01.200|56=4G8288N|57=ST2|143=IL|369=51|1=test|6=0|11=0000000000000000001G|14=0|17=0000000000000000000000000000000000000043|20=0|37=00000000000000066|38=4|39=0|40=2|44=169550|48=17704|54=2|55=ES|60=20130808-13:30:01|107=ESU3|150=0|151=4|10=007|
20130808-13:30:01.201 : 8=FIX.4.2|9=292|35=8|34=83|49=CME|50=G|52=20130808-13:30:01.201|56=4G8288N|57=ST2|143=IL|369=51|1=test|6=0|11=0000000000000000001G|14=4|17=0000000000000000000000000000000000000044|20=0|31=169575|32=4|37=00000000000000066|38=4|39=2|40=2|44=169575|48=17704|54=2|55=ES|60=20130808-13:30:01|107=ESU3|150=2|151=0|10=204|
20130808-13:30:01.203 : 8=FIX.4.2|9=277|35=8|34=84|49=CME|50=G|52=20130808-13:30:01.201|56=4G8288N|57=ST2|143=IL|369=51|1=test|6=0|11=0000000000000000001H|14=0|17=0000000000000000000000000000000000000045|20=0|37=00000000000000067|38=6|39=0|40=2|44=169525|48=17704|54=1|55=ES|60=20130808-13:30:01|107=ESU3|150=0|151=6|10=019|
20130808-13:30:01.203 : 8=FIX.4.2|9=277|35=8|34=85|49=CME|50=G|52=20130808-13:30:01.203|56=4G8288N|57=ST2|143=IL|369=51|1=test|6=0|11=0000000000000000001I|14=0|17=0000000000000000000000000000000000000046|20=0|37=00000000000000068|38=8|39=0|40=2|44=169550|48=17704|54=2|55=ES|60=20130808-13:30:01|107=ESU3|150=0|151=8|10=028|
20130808-13:30:01.205 : 8=FIX.4.2|9=292|35=8|34=86|49=CME|50=G|52=20130808-13:30:01.204|56=4G8288N|57=ST2|143=IL|369=51|1=test|6=0|11=0000000000000000001I|14=8|17=0000000000000000000000000000000000000047|20=0|31=169575|32=8|37=00000000000000068|38=8|39=2|40=2|44=169575|48=17704|54=2|55=ES|60=20130808-13:30:01|107=ESU3|150=2|151=0|10=229|
20130808-13:30:01.432 : 8=FIX.4.2|9=000249|35=D|49=4G8288N|50=ST2|56=CME|57=G|142=IL|1603=3redatf|1604=1|1605=3red|34=52|52=20130808-13:30:04.432|369=86|1=test|11=0000000000000000001J|21=1|38=7|40=2|44=169525|54=1|55=ES|59=0|60=20130808-13:30:04.432|77=O|107=ESU3|167=FUT|204=1|1028=N|9702=1|10=009|
20130808-13:30:01.438 : 8=FIX.4.2|9=277|35=8|34=87|49=CME|50=G|52=20130808-13:30:01.437|56=4G8288N|57=ST2|143=IL|369=52|1=test|6=0|11=0000000000000000001J|14=0|17=000000000000000000000000000000000000004N|20=0|37=00000000000000080|38=7|39=0|40=2|44=169525|48=17704|54=1|55=ES|60=20130808-13:30:01|107=ESU3|150=0|151=7|10=058|
20130808-13:30:01.438 : 8=FIX.4.2|9=000249|35=D|49=4G8288N|50=ST2|56=CME|57=G|142=IL|1603=3redatf|1604=1|1605=3red|34=53|52=20130808-13:30:04.433|369=86|1=test|11=0000000000000000001K|21=1|38=8|40=2|44=169525|54=1|55=ES|59=0|60=20130808-13:30:04.433|77=O|107=ESU3|167=FUT|204=1|1028=N|9702=1|10=014|
20130808-13:30:01.438 : 8=FIX.4.2|9=000249|35=D|49=4G8288N|50=ST2|56=CME|57=G|142=IL|1603=3redatf|1604=1|1605=3red|34=54|52=20130808-13:30:04.434|369=86|1=test|11=0000000000000000001L|21=1|38=7|40=2|44=169550|54=2|55=ES|59=0|60=20130808-13:30:04.434|77=O|107=ESU3|167=FUT|204=1|1028=N|9702=1|10=016|
20130808-13:30:01.438 : 8=FIX.4.2|9=000249|35=D|49=4G8288N|50=ST2|56=CME|57=G|142=IL|1603=3redatf|1604=1|1605=3red|34=55|52=20130808-13:30:04.435|369=86|1=test|11=0000000000000000001M|21=1|38=8|40=2|44=169525|54=1|55=ES|59=0|60=20130808-13:30:04.435|77=O|107=ESU3|167=FUT|204=1|1028=N|9702=1|10=022|
20130808-13:30:01.438 : 8=FIX.4.2|9=000249|35=D|49=4G8288N|50=ST2|56=CME|57=G|142=IL|1603=3redatf|1604=1|1605=3red|34=56|52=20130808-13:30:04.436|369=86|1=test|11=0000000000000000001N|21=1|38=8|40=2|44=169525|54=1|55=ES|59=0|60=20130808-13:30:04.436|77=O|107=ESU3|167=FUT|204=1|1028=N|9702=1|10=026|
20130808-13:30:01.444 : 8=FIX.4.2|9=277|35=8|34=88|49=CME|50=G|52=20130808-13:30:01.442|56=4G8288N|57=ST2|143=IL|369=56|1=test|6=0|11=0000000000000000001K|14=0|17=000000000000000000000000000000000000004O|20=0|37=00000000000000081|38=8|39=0|40=2|44=169525|48=17704|54=1|55=ES|60=20130808-13:30:01|107=ESU3|150=0|151=8|10=064|
20130808-13:30:01.445 : 8=FIX.4.2|9=277|35=8|34=89|49=CME|50=G|52=20130808-13:30:01.444|56=4G8288N|57=ST2|143=IL|369=56|1=test|6=0|11=0000000000000000001L|14=0|17=000000000000000000000000000000000000004P|20=0|37=00000000000000082|38=7|39=0|40=2|44=169550|48=17704|54=2|55=ES|60=20130808-13:30:01|107=ESU3|150=0|151=7|10=067|
20130808-13:30:01.445 : 8=FIX.4.2|9=292|35=8|34=90|49=CME|50=G|52=20130808-13:30:01.445|56=4G8288N|57=ST2|143=IL|369=56|1=test|6=0|11=0000000000000000001L|14=7|17=000000000000000000000000000000000000004Q|20=0|31=169575|32=7|37=00000000000000082|38=7|39=2|40=2|44=169575|48=17704|54=2|55=ES|60=20130808-13:30:01|107=ESU3|150=2|151=0|10=002|
20130808-13:30:01.446 : 8=FIX.4.2|9=277|35=8|34=91|49=CME|50=G|52=20130808-13:30:01.446|56=4G8288N|57=ST2|143=IL|369=56|1=test|6=0|11=0000000000000000001M|14=0|17=000000000000000000000000000000000000004R|20=0|37=00000000000000083|38=8|39=0|40=2|44=169525|48=17704|54=1|55=ES|60=20130808-13:30:01|107=ESU3|150=0|151=8|10=069|
20130808-13:30:01.447 : 8=FIX.4.2|9=277|35=8|34=92|49=CME|50=G|52=20130808-13:30:01.447|56=4G8288N|57=ST2|143=IL|369=56|1=test|6=0|11=0000000000000000001N|14=0|17=000000000000000000000000000000000000004S|20=0|37=00000000000000084|38=8|39=0|40=2|44=169525|48=17704|54=1|55=ES|60=20130808-13:30:01|107=ESU3|150=0|151=8|10=074|
20130808-13:30:01.690 : 8=FIX.4.2|9=000249|35=D|49=4G8288N|50=ST2|56=CME|57=G|142=IL|1603=3redatf|1604=1|1605=3red|34=57|52=20130808-13:30:04.689|369=92|1=test|11=0000000000000000001O|21=1|38=5|40=2|44=169550|54=2|55=ES|59=0|60=20130808-13:30:04.689|77=O|107=ESU3|167=FUT|204=1|1028=N|9702=1|10=041|
20130808-13:30:01.695 : 8=FIX.4.2|9=277|35=8|34=93|49=CME|50=G|52=20130808-13:30:01.694|56=4G8288N|57=ST2|143=IL|369=57|1=test|6=0|11=0000000000000000001O|14=0|17=0000000000000000000000000000000000000050|20=0|37=00000000000000089|38=5|39=0|40=2|44=169550|48=17704|54=2|55=ES|60=20130808-13:30:01|107=ESU3|150=0|151=5|10=045|
20130808-13:30:01.696 : 8=FIX.4.2|9=292|35=8|34=94|49=CME|50=G|52=20130808-13:30:01.695|56=4G8288N|57=ST2|143=IL|369=57|1=test|6=0|11=0000000000000000001O|14=5|17=0000000000000000000000000000000000000051|20=0|31=169575|32=5|37=00000000000000089|38=5|39=2|40=2|44=169575|48=17704|54=2|55=ES|60=20130808-13:30:01|107=ESU3|150=2|151=0|10=243|
20130808-13:30:01.942 : 8=FIX.4.2|9=000249|35=D|49=4G8288N|50=ST2|56=CME|57=G|142=IL|1603=3redatf|1604=1|1605=3red|34=58|52=20130808-13:30:04.942|369=94|1=test|11=0000000000000000001Q|21=1|38=7|40=2|44=169550|54=2|55=ES|59=0|60=20130808-13:30:04.942|77=O|107=ESU3|167=FUT|204=1|1028=N|9702=1|10=032|
20130808-13:30:01.947 : 8=FIX.4.2|9=277|35=8|34=95|49=CME|50=G|52=20130808-13:30:01.947|56=4G8288N|57=ST2|143=IL|369=58|1=test|6=0|11=0000000000000000001Q|14=0|17=0000000000000000000000000000000000000056|20=0|37=00000000000000093|38=7|39=0|40=2|44=169550|48=17704|54=2|55=ES|60=20130808-13:30:01|107=ESU3|150=0|151=7|10=056|
20130808-13:30:01.948 : 8=FIX.4.2|9=292|35=8|34=96|49=CME|50=G|52=20130808-13:30:01.947|56=4G8288N|57=ST2|143=IL|369=58|1=test|6=0|11=0000000000000000001Q|14=7|17=0000000000000000000000000000000000000057|20=0|31=169550|32=7|37=00000000000000093|38=7|39=2|40=2|44=169550|48=17704|54=2|55=ES|60=20130808-13:30:01|107=ESU3|150=2|151=0|10=241|
20130808-13:30:02.195 : 8=FIX.4.2|9=000249|35=D|49=4G8288N|50=ST2|56=CME|57=G|142=IL|1603=3redatf|1604=1|1605=3red|34=59|52=20130808-13:30:05.194|369=96|1=test|11=0000000000000000001R|21=1|38=5|40=2|44=169550|54=2|55=ES|59=0|60=20130808-13:30:05.194|77=O|107=ESU3|167=FUT|204=1|1028=N|9702=1|10=034|
20130808-13:30:02.200 : 8=FIX.4.2|9=277|35=8|34=97|49=CME|50=G|52=20130808-13:30:02.199|56=4G8288N|57=ST2|143=IL|369=59|1=test|6=0|11=0000000000000000001R|14=0|17=000000000000000000000000000000000000005B|20=0|37=00000000000000095|38=5|39=0|40=2|44=169550|48=17704|54=2|55=ES|60=20130808-13:30:02|107=ESU3|150=0|151=5|10=071|
20130808-13:30:02.200 : 8=FIX.4.2|9=292|35=8|34=98|49=CME|50=G|52=20130808-13:30:02.200|56=4G8288N|57=ST2|143=IL|369=59|1=test|6=0|11=0000000000000000001R|14=5|17=000000000000000000000000000000000000005C|20=0|31=169550|32=5|37=00000000000000095|38=5|39=2|40=2|44=169550|48=17704|54=2|55=ES|60=20130808-13:30:02|107=ESU3|150=2|151=0|10=237|
20130808-13:30:02.446 : 8=FIX.4.2|9=000249|35=D|49=4G8288N|50=ST2|56=CME|57=G|142=IL|1603=3redatf|1604=1|1605=3red|34=60|52=20130808-13:30:05.446|369=98|1=test|11=0000000000000000001S|21=1|38=5|40=2|44=169525|54=1|55=ES|59=0|60=20130808-13:30:05.446|77=O|107=ESU3|167=FUT|204=1|1028=N|9702=1|10=030|
20130808-13:30:02.451 : 8=FIX.4.2|9=277|35=8|34=99|49=CME|50=G|52=20130808-13:30:02.451|56=4G8288N|57=ST2|143=IL|369=60|1=test|6=0|11=0000000000000000001S|14=0|17=000000000000000000000000000000000000005G|20=0|37=00000000000000098|38=5|39=0|40=2|44=169525|48=17704|54=1|55=ES|60=20130808-13:30:02|107=ESU3|150=0|151=5|10=066|
20130808-13:30:12.718 : 8=FIX.4.2|9=000257|35=F|49=4G8288N|50=ST2|56=CME|57=G|142=IL|1603=3redatf|1604=1|1605=3red|34=61|52=20130808-13:30:15.717|369=99|1=test|11=0000000000000000001T|37=62|41=0000000000000000001B|54=1|55=ES|60=20130808-13:30:15.717|107=ESU3|167=FUT|1028=N|9717=0000000000000000001B|10=018|
20130808-13:30:12.723 : 8=FIX.4.2|9=302|35=8|34=100|49=CME|50=G|52=20130808-13:30:12.722|56=4G8288N|57=ST2|143=IL|369=61|1=test|6=0|11=0000000000000000001T|14=0|17=000000000000000000000000000000000000005K|20=0|37=00000000000000062|38=4|39=4|40=2|41=0000000000000000001B|44=169525|48=17704|54=1|55=ES|60=20130808-13:30:12|107=ESU3|150=4|151=4|10=210|
20130808-13:30:12.723 : 8=FIX.4.2|9=000257|35=F|49=4G8288N|50=ST2|56=CME|57=G|142=IL|1603=3redatf|1604=1|1605=3red|34=62|52=20130808-13:30:15.718|369=99|1=test|11=0000000000000000001U|37=63|41=0000000000000000001C|54=1|55=ES|60=20130808-13:30:15.718|107=ESU3|167=FUT|1028=N|9717=0000000000000000001C|10=025|
20130808-13:30:12.723 : 8=FIX.4.2|9=000257|35=F|49=4G8288N|50=ST2|56=CME|57=G|142=IL|1603=3redatf|1604=1|1605=3red|34=63|52=20130808-13:30:15.718|369=99|1=test|11=0000000000000000001V|37=65|41=0000000000000000001F|54=1|55=ES|60=20130808-13:30:15.718|107=ESU3|167=FUT|1028=N|9717=0000000000000000001F|10=035|
20130808-13:30:12.723 : 8=FIX.4.2|9=000257|35=F|49=4G8288N|50=ST2|56=CME|57=G|142=IL|1603=3redatf|1604=1|1605=3red|34=64|52=20130808-13:30:15.719|369=99|1=test|11=0000000000000000001W|37=67|41=0000000000000000001H|54=1|55=ES|60=20130808-13:30:15.719|107=ESU3|167=FUT|1028=N|9717=0000000000000000001H|10=045|
20130808-13:30:12.723 : 8=FIX.4.2|9=000257|35=F|49=4G8288N|50=ST2|56=CME|57=G|142=IL|1603=3redatf|1604=1|1605=3red|34=65|52=20130808-13:30:15.719|369=99|1=test|11=0000000000000000001X|37=80|41=0000000000000000001J|54=1|55=ES|60=20130808-13:30:15.719|107=ESU3|167=FUT|1028=N|9717=0000000000000000001J|10=046|
20130808-13:30:12.723 : 8=FIX.4.2|9=000257|35=F|49=4G8288N|50=ST2|56=CME|57=G|142=IL|1603=3redatf|1604=1|1605=3red|34=66|52=20130808-13:30:15.720|369=99|1=test|11=0000000000000000001Y|37=81|41=0000000000000000001K|54=1|55=ES|60=20130808-13:30:15.720|107=ESU3|167=FUT|1028=N|9717=0000000000000000001K|10=035|
20130808-13:30:12.723 : 8=FIX.4.2|9=000257|35=F|49=4G8288N|50=ST2|56=CME|57=G|142=IL|1603=3redatf|1604=1|1605=3red|34=67|52=20130808-13:30:15.720|369=99|1=test|11=0000000000000000001Z|37=83|41=0000000000000000001M|54=1|55=ES|60=20130808-13:30:15.720|107=ESU3|167=FUT|1028=N|9717=0000000000000000001M|10=043|
20130808-13:30:12.723 : 8=FIX.4.2|9=000257|35=F|49=4G8288N|50=ST2|56=CME|57=G|142=IL|1603=3redatf|1604=1|1605=3red|34=68|52=20130808-13:30:15.720|369=99|1=test|11=00000000000000000020|37=84|41=0000000000000000001N|54=1|55=ES|60=20130808-13:30:15.720|107=ESU3|167=FUT|1028=N|9717=0000000000000000001N|10=006|
20130808-13:30:12.723 : 8=FIX.4.2|9=000257|35=F|49=4G8288N|50=ST2|56=CME|57=G|142=IL|1603=3redatf|1604=1|1605=3red|34=69|52=20130808-13:30:15.721|369=99|1=test|11=00000000000000000021|37=98|41=0000000000000000001S|54=1|55=ES|60=20130808-13:30:15.721|107=ESU3|167=FUT|1028=N|9717=0000000000000000001S|10=025|
20130808-13:30:12.728 : 8=FIX.4.2|9=302|35=8|34=101|49=CME|50=G|52=20130808-13:30:12.727|56=4G8288N|57=ST2|143=IL|369=69|1=test|6=0|11=0000000000000000001U|14=0|17=000000000000000000000000000000000000005L|20=0|37=00000000000000063|38=8|39=4|40=2|41=0000000000000000001C|44=169525|48=17704|54=1|55=ES|60=20130808-13:30:12|107=ESU3|150=4|151=8|10=236|
20130808-13:30:12.728 : 8=FIX.4.2|9=302|35=8|34=102|49=CME|50=G|52=20130808-13:30:12.728|56=4G8288N|57=ST2|143=IL|369=69|1=test|6=0|11=0000000000000000001V|14=0|17=000000000000000000000000000000000000005M|20=0|37=00000000000000065|38=6|39=4|40=2|41=0000000000000000001F|44=169525|48=17704|54=1|55=ES|60=20130808-13:30:12|107=ESU3|150=4|151=6|10=241|
20130808-13:30:12.729 : 8=FIX.4.2|9=302|35=8|34=103|49=CME|50=G|52=20130808-13:30:12.729|56=4G8288N|57=ST2|143=IL|369=69|1=test|6=0|11=0000000000000000001W|14=0|17=000000000000000000000000000000000000005N|20=0|37=00000000000000067|38=6|39=4|40=2|41=0000000000000000001H|44=169525|48=17704|54=1|55=ES|60=20130808-13:30:12|107=ESU3|150=4|151=6|10=249|
20130808-13:30:12.730 : 8=FIX.4.2|9=302|35=8|34=104|49=CME|50=G|52=20130808-13:30:12.729|56=4G8288N|57=ST2|143=IL|369=69|1=test|6=0|11=0000000000000000001X|14=0|17=000000000000000000000000000000000000005O|20=0|37=00000000000000080|38=7|39=4|40=2|41=0000000000000000001J|44=169525|48=17704|54=1|55=ES|60=20130808-13:30:12|107=ESU3|150=4|151=7|10=251|
20130808-13:30:12.731 : 8=FIX.4.2|9=302|35=8|34=105|49=CME|50=G|52=20130808-13:30:12.730|56=4G8288N|57=ST2|143=IL|369=69|1=test|6=0|11=0000000000000000001Y|14=0|17=000000000000000000000000000000000000005P|20=0|37=00000000000000081|38=8|39=4|40=2|41=0000000000000000001K|44=169525|48=17704|54=1|55=ES|60=20130808-13:30:12|107=ESU3|150=4|151=8|10=250|
20130808-13:30:12.731 : 8=FIX.4.2|9=302|35=8|34=106|49=CME|50=G|52=20130808-13:30:12.731|56=4G8288N|57=ST2|143=IL|369=69|1=test|6=0|11=0000000000000000001Z|14=0|17=000000000000000000000000000000000000005Q|20=0|37=00000000000000083|38=8|39=4|40=2|41=0000000000000000001M|44=169525|48=17704|54=1|55=ES|60=20130808-13:30:12|107=ESU3|150=4|151=8|10=002|
20130808-13:30:12.732 : 8=FIX.4.2|9=302|35=8|34=107|49=CME|50=G|52=20130808-13:30:12.731|56=4G8288N|57=ST2|143=IL|369=69|1=test|6=0|11=00000000000000000020|14=0|17=000000000000000000000000000000000000005R|20=0|37=00000000000000084|38=8|39=4|40=2|41=0000000000000000001N|44=169525|48=17704|54=1|55=ES|60=20130808-13:30:12|107=ESU3|150=4|151=8|10=221|
20130808-13:30:12.733 : 8=FIX.4.2|9=302|35=8|34=108|49=CME|50=G|52=20130808-13:30:12.732|56=4G8288N|57=ST2|143=IL|369=69|1=test|6=0|11=00000000000000000021|14=0|17=000000000000000000000000000000000000005S|20=0|37=00000000000000098|38=5|39=4|40=2|41=0000000000000000001S|44=169525|48=17704|54=1|55=ES|60=20130808-13:30:12|107=ESU3|150=4|151=5|10=229|
20130808-13:30:12.973 : 8=FIX.4.2|9=000250|35=D|49=4G8288N|50=ST2|56=CME|57=G|142=IL|1603=3redatf|1604=1|1605=3red|34=70|52=20130808-13:30:15.972|369=108|1=test|11=00000000000000000022|21=1|38=8|40=2|44=169550|54=2|55=ES|59=0|60=20130808-13:30:15.972|77=O|107=ESU3|167=FUT|204=1|1028=N|9702=1|10=043|
20130808-13:30:12.978 : 8=FIX.4.2|9=278|35=8|34=109|49=CME|50=G|52=20130808-13:30:12.977|56=4G8288N|57=ST2|143=IL|369=70|1=test|6=0|11=00000000000000000022|14=0|17=000000000000000000000000000000000000005T|20=0|37=00000000000000101|38=8|39=0|40=2|44=169550|48=17704|54=2|55=ES|60=20130808-13:30:12|107=ESU3|150=0|151=8|10=094|
20130808-13:30:12.978 : 8=FIX.4.2|9=000250|35=D|49=4G8288N|50=ST2|56=CME|57=G|142=IL|1603=3redatf|1604=1|1605=3red|34=71|52=20130808-13:30:15.973|369=108|1=test|11=00000000000000000023|21=1|38=8|40=2|44=169550|54=2|55=ES|59=0|60=20130808-13:30:15.973|77=O|107=ESU3|167=FUT|204=1|1028=N|9702=1|10=047|
20130808-13:30:12.978 : 8=FIX.4.2|9=293|35=8|34=110|49=CME|50=G|52=20130808-13:30:12.978|56=4G8288N|57=ST2|143=IL|369=70|1=test|6=0|11=00000000000000000022|14=8|17=000000000000000000000000000000000000005U|20=0|31=169600|32=8|37=00000000000000101|38=8|39=2|40=2|44=169600|48=17704|54=2|55=ES|60=20130808-13:30:12|107=ESU3|150=2|151=0|10=008|
20130808-13:30:12.979 : 8=FIX.4.2|9=000250|35=D|49=4G8288N|50=ST2|56=CME|57=G|142=IL|1603=3redatf|1604=1|1605=3red|34=72|52=20130808-13:30:15.974|369=108|1=test|11=00000000000000000024|21=1|38=7|40=2|44=169550|54=2|55=ES|59=0|60=20130808-13:30:15.974|77=O|107=ESU3|167=FUT|204=1|1028=N|9702=1|10=050|
20130808-13:30:12.979 : 8=FIX.4.2|9=000250|35=D|49=4G8288N|50=ST2|56=CME|57=G|142=IL|1603=3redatf|1604=1|1605=3red|34=73|52=20130808-13:30:15.974|369=108|1=test|11=00000000000000000025|21=1|38=6|40=2|44=169525|54=1|55=ES|59=0|60=20130808-13:30:15.974|77=O|107=ESU3|167=FUT|204=1|1028=N|9702=1|10=052|
20130808-13:30:12.979 : 8=FIX.4.2|9=000250|35=D|49=4G8288N|50=ST2|56=CME|57=G|142=IL|1603=3redatf|1604=1|1605=3red|34=74|52=20130808-13:30:15.975|369=108|1=test|11=00000000000000000026|21=1|38=5|40=2|44=169550|54=2|55=ES|59=0|60=20130808-13:30:15.975|77=O|107=ESU3|167=FUT|204=1|1028=N|9702=1|10=054|
20130808-13:30:12.979 : 8=FIX.4.2|9=000250|35=D|49=4G8288N|50=ST2|56=CME|57=G|142=IL|1603=3redatf|1604=1|1605=3red|34=75|52=20130808-13:30:15.975|369=108|1=test|11=00000000000000000027|21=1|38=8|40=2|44=169550|54=2|55=ES|59=0|60=20130808-13:30:15.975|77=O|107=ESU3|167=FUT|204=1|1028=N|9702=1|10=059|
20130808-13:30:12.979 : 8=FIX.4.2|9=000250|35=D|49=4G8288N|50=ST2|56=CME|57=G|142=IL|1603=3redatf|1604=1|1605=3red|34=76|52=20130808-13:30:15.976|369=108|1=test|11=00000000000000000028|21=1|38=8|40=2|44=169525|54=1|55=ES|59=0|60=20130808-13:30:15.976|77=O|107=ESU3|167=FUT|204=1|1028=N|9702=1|10=064|
20130808-13:30:12.979 : 8=FIX.4.2|9=000250|35=D|49=4G8288N|50=ST2|56=CME|57=G|142=IL|1603=3redatf|1604=1|1605=3red|34=77|52=20130808-13:30:15.977|369=108|1=test|11=00000000000000000029|21=1|38=8|40=2|44=169550|54=2|55=ES|59=0|60=20130808-13:30:15.977|77=O|107=ESU3|167=FUT|204=1|1028=N|9702=1|10=067|
20130808-13:30:12.979 : 8=FIX.4.2|9=000250|35=D|49=4G8288N|50=ST2|56=CME|57=G|142=IL|1603=3redatf|1604=1|1605=3red|34=78|52=20130808-13:30:15.978|369=108|1=test|11=0000000000000000002A|21=1|38=5|40=2|44=169550|54=2|55=ES|59=0|60=20130808-13:30:15.978|77=O|107=ESU3|167=FUT|204=1|1028=N|9702=1|10=075|
20130808-13:30:12.983 : 8=FIX.4.2|9=278|35=8|34=111|49=CME|50=G|52=20130808-13:30:12.982|56=4G8288N|57=ST2|143=IL|369=78|1=test|6=0|11=00000000000000000023|14=0|17=000000000000000000000000000000000000005V|20=0|37=00000000000000102|38=8|39=0|40=2|44=169550|48=17704|54=2|55=ES|60=20130808-13:30:12|107=ESU3|150=0|151=8|10=095|
20130808-13:30:12.984 : 8=FIX.4.2|9=293|35=8|34=112|49=CME|50=G|52=20130808-13:30:12.983|56=4G8288N|57=ST2|143=IL|369=78|1=test|6=0|11=00000000000000000023|14=8|17=000000000000000000000000000000000000005W|20=0|31=169600|32=8|37=00000000000000102|38=8|39=2|40=2|44=169600|48=17704|54=2|55=ES|60=20130808-13:30:12|107=ESU3|150=2|151=0|10=018|
20130808-13:30:12.984 : 8=FIX.4.2|9=278|35=8|34=113|49=CME|50=G|52=20130808-13:30:12.984|56=4G8288N|57=ST2|143=IL|369=78|1=test|6=0|11=00000000000000000024|14=0|17=000000000000000000000000000000000000005X|20=0|37=00000000000000103|38=7|39=0|40=2|44=169550|48=17704|54=2|55=ES|60=20130808-13:30:12|107=ESU3|150=0|151=7|10=101|
20130808-13:30:12.985 : 8=FIX.4.2|9=293|35=8|34=114|49=CME|50=G|52=20130808-13:30:12.984|56=4G8288N|57=ST2|143=IL|369=78|1=test|6=0|11=00000000000000000024|14=7|17=000000000000000000000000000000000000005Y|20=0|31=169600|32=7|37=00000000000000103|38=7|39=2|40=2|44=169600|48=17704|54=2|55=ES|60=20130808-13:30:12|107=ESU3|150=2|151=0|10=022|
20130808-13:30:12.986 : 8=FIX.4.2|9=278|35=8|34=115|49=CME|50=G|52=20130808-13:30:12.985|56=4G8288N|57=ST2|143=IL|369=78|1=test|6=0|11=00000000000000000025|14=0|17=000000000000000000000000000000000000005Z|20=0|37=00000000000000104|38=6|39=0|40=2|44=169525|48=17704|54=1|55=ES|60=20130808-13:30:12|107=ESU3|150=0|151=6|10=107|
20130808-13:30:12.986 : 8=FIX.4.2|9=278|35=8|34=116|49=CME|50=G|52=20130808-13:30:12.986|56=4G8288N|57=ST2|143=IL|369=78|1=test|6=0|11=00000000000000000026|14=0|17=0000000000000000000000000000000000000060|20=0|37=00000000000000105|38=5|39=0|40=2|44=169550|48=17704|54=2|55=ES|60=20130808-13:30:12|107=ESU3|150=0|151=5|10=067|
20130808-13:30:12.987 : 8=FIX.4.2|9=293|35=8|34=117|49=CME|50=G|52=20130808-13:30:12.986|56=4G8288N|57=ST2|143=IL|369=78|1=test|6=0|11=00000000000000000026|14=5|17=0000000000000000000000000000000000000061|20=0|31=169600|32=5|37=00000000000000105|38=5|39=2|40=2|44=169600|48=17704|54=2|55=ES|60=20130808-13:30:12|107=ESU3|150=2|151=0|10=242|
20130808-13:30:12.988 : 8=FIX.4.2|9=278|35=8|34=118|49=CME|50=G|52=20130808-13:30:12.987|56=4G8288N|57=ST2|143=IL|369=78|1=test|6=0|11=00000000000000000027|14=0|17=0000000000000000000000000000000000000062|20=0|37=00000000000000106|38=8|39=0|40=2|44=169550|48=17704|54=2|55=ES|60=20130808-13:30:12|107=ESU3|150=0|151=8|10=080|
20130808-13:30:12.988 : 8=FIX.4.2|9=293|35=8|34=119|49=CME|50=G|52=20130808-13:30:12.988|56=4G8288N|57=ST2|143=IL|369=78|1=test|6=0|11=00000000000000000027|14=8|17=0000000000000000000000000000000000000063|20=0|31=169600|32=8|37=00000000000000106|38=8|39=2|40=2|44=169600|48=17704|54=2|55=ES|60=20130808-13:30:12|107=ESU3|150=2|151=0|10=003|
20130808-13:30:12.989 : 8=FIX.4.2|9=278|35=8|34=120|49=CME|50=G|52=20130808-13:30:12.988|56=4G8288N|57=ST2|143=IL|369=78|1=test|6=0|11=00000000000000000028|14=0|17=0000000000000000000000000000000000000064|20=0|37=00000000000000107|38=8|39=0|40=2|44=169525|48=17704|54=1|55=ES|60=20130808-13:30:12|107=ESU3|150=0|151=8|10=079|
20130808-13:30:12.990 : 8=FIX.4.2|9=278|35=8|34=121|49=CME|50=G|52=20130808-13:30:12.989|56=4G8288N|57=ST2|143=IL|369=78|1=test|6=0|11=00000000000000000029|14=0|17=0000000000000000000000000000000000000065|20=0|37=00000000000000108|38=8|39=0|40=2|44=169550|48=17704|54=2|55=ES|60=20130808-13:30:12|107=ESU3|150=0|151=8|10=083|
20130808-13:30:12.991 : 8=FIX.4.2|9=293|35=8|34=122|49=CME|50=G|52=20130808-13:30:12.990|56=4G8288N|57=ST2|143=IL|369=78|1=test|6=0|11=00000000000000000029|14=8|17=0000000000000000000000000000000000000066|20=0|31=169600|32=8|37=00000000000000108|38=8|39=2|40=2|44=169600|48=17704|54=2|55=ES|60=20130808-13:30:12|107=ESU3|150=2|151=0|10=253|
20130808-13:30:12.991 : 8=FIX.4.2|9=278|35=8|34=123|49=CME|50=G|52=20130808-13:30:12.991|56=4G8288N|57=ST2|143=IL|369=78|1=test|6=0|11=0000000000000000002A|14=0|17=0000000000000000000000000000000000000067|20=0|37=00000000000000109|38=5|39=0|40=2|44=169550|48=17704|54=2|55=ES|60=20130808-13:30:12|107=ESU3|150=0|151=5|10=083|
20130808-13:30:12.992 : 8=FIX.4.2|9=293|35=8|34=124|49=CME|50=G|52=20130808-13:30:12.992|56=4G8288N|57=ST2|143=IL|369=78|1=test|6=0|11=0000000000000000002A|14=5|17=0000000000000000000000000000000000000068|20=0|31=169600|32=5|37=00000000000000109|38=5|39=2|40=2|44=169600|48=17704|54=2|55=ES|60=20130808-13:30:12|107=ESU3|150=2|151=0|10=003|
20130808-13:30:13.231 : 8=FIX.4.2|9=000250|35=D|49=4G8288N|50=ST2|56=CME|57=G|142=IL|1603=3redatf|1604=1|1605=3red|34=79|52=20130808-13:30:16.230|369=124|1=test|11=0000000000000000002B|21=1|38=5|40=2|44=169525|54=1|55=ES|59=0|60=20130808-13:30:16.230|77=O|107=ESU3|167=FUT|204=1|1028=N|9702=1|10=040|
20130808-13:30:13.236 : 8=FIX.4.2|9=278|35=8|34=125|49=CME|50=G|52=20130808-13:30:13.235|56=4G8288N|57=ST2|143=IL|369=79|1=test|6=0|11=0000000000000000002B|14=0|17=000000000000000000000000000000000000006K|20=0|37=00000000000000110|38=5|39=0|40=2|44=169525|48=17704|54=1|55=ES|60=20130808-13:30:13|107=ESU3|150=0|151=5|10=093|
20130808-13:30:13.236 : 8=FIX.4.2|9=000250|35=D|49=4G8288N|50=ST2|56=CME|57=G|142=IL|1603=3redatf|1604=1|1605=3red|34=80|52=20130808-13:30:16.231|369=124|1=test|11=0000000000000000002C|21=1|38=8|40=2|44=169525|54=1|55=ES|59=0|60=20130808-13:30:16.231|77=O|107=ESU3|167=FUT|204=1|1028=N|9702=1|10=038|
20130808-13:30:13.236 : 8=FIX.4.2|9=000250|35=D|49=4G8288N|50=ST2|56=CME|57=G|142=IL|1603=3redatf|1604=1|1605=3red|34=81|52=20130808-13:30:16.232|369=124|1=test|11=0000000000000000002D|21=1|38=8|40=2|44=169525|54=1|55=ES|59=0|60=20130808-13:30:16.232|77=O|107=ESU3|167=FUT|204=1|1028=N|9702=1|10=042|
20130808-13:30:13.236 : 8=FIX.4.2|9=000250|35=D|49=4G8288N|50=ST2|56=CME|57=G|142=IL|1603=3redatf|1604=1|1605=3red|34=82|52=20130808-13:30:16.233|369=124|1=test|11=0000000000000000002E|21=1|38=5|40=2|44=169525|54=1|55=ES|59=0|60=20130808-13:30:16.233|77=O|107=ESU3|167=FUT|204=1|1028=N|9702=1|10=043|
20130808-13:30:13.236 : 8=FIX.4.2|9=000250|35=D|49=4G8288N|50=ST2|56=CME|57=G|142=IL|1603=3redatf|1604=1|1605=3red|34=83|52=20130808-13:30:16.233|369=124|1=test|11=0000000000000000002F|21=1|38=6|40=2|44=169525|54=1|55=ES|59=0|60=20130808-13:30:16.233|77=O|107=ESU3|167=FUT|204=1|1028=N|9702=1|10=046|
20130808-13:30:13.236 : 8=FIX.4.2|9=000250|35=D|49=4G8288N|50=ST2|56=CME|57=G|142=IL|1603=3redatf|1604=1|1605=3red|34=84|52=20130808-13:30:16.235|369=124|1=test|11=0000000000000000002H|21=1|38=8|40=2|44=169525|54=1|55=ES|59=0|60=20130808-13:30:16.235|77=O|107=ESU3|167=FUT|204=1|1028=N|9702=1|10=055|
20130808-13:30:13.241 : 8=FIX.4.2|9=278|35=8|34=126|49=CME|50=G|52=20130808-13:30:13.240|56=4G8288N|57=ST2|143=IL|369=84|1=test|6=0|11=0000000000000000002C|14=0|17=000000000000000000000000000000000000006L|20=0|37=00000000000000111|38=8|39=0|40=2|44=169525|48=17704|54=1|55=ES|60=20130808-13:30:13|107=ESU3|150=0|151=8|10=095|
20130808-13:30:13.241 : 8=FIX.4.2|9=000250|35=D|49=4G8288N|50=ST2|56=CME|57=G|142=IL|1603=3redatf|1604=1|1605=3red|34=85|52=20130808-13:30:16.235|369=124|1=test|11=0000000000000000002I|21=1|38=8|40=2|44=169525|54=1|55=ES|59=0|60=20130808-13:30:16.235|77=O|107=ESU3|167=FUT|204=1|1028=N|9702=1|10=057|
20130808-13:30:13.242 : 8=FIX.4.2|9=278|35=8|34=127|49=CME|50=G|52=20130808-13:30:13.241|56=4G8288N|57=ST2|143=IL|369=84|1=test|6=0|11=0000000000000000002D|14=0|17=000000000000000000000000000000000000006M|20=0|37=00000000000000112|38=8|39=0|40=2|44=169525|48=17704|54=1|55=ES|60=20130808-13:30:13|107=ESU3|150=0|151=8|10=100|
20130808-13:30:13.243 : 8=FIX.4.2|9=278|35=8|34=128|49=CME|50=G|52=20130808-13:30:13.242|56=4G8288N|57=ST2|143=IL|369=85|1=test|6=0|11=0000000000000000002E|14=0|17=000000000000000000000000000000000000006N|20=0|37=00000000000000113|38=5|39=0|40=2|44=169525|48=17704|54=1|55=ES|60=20130808-13:30:13|107=ESU3|150=0|151=5|10=100|
20130808-13:30:13.244 : 8=FIX.4.2|9=278|35=8|34=129|49=CME|50=G|52=20130808-13:30:13.243|56=4G8288N|57=ST2|143=IL|369=85|1=test|6=0|11=0000000000000000002F|14=0|17=000000000000000000000000000000000000006O|20=0|37=00000000000000114|38=6|39=0|40=2|44=169525|48=17704|54=1|55=ES|60=20130808-13:30:13|107=ESU3|150=0|151=6|10=107|
20130808-13:30:13.245 : 8=FIX.4.2|9=278|35=8|34=130|49=CME|50=G|52=20130808-13:30:13.244|56=4G8288N|57=ST2|143=IL|369=85|1=test|6=0|11=0000000000000000002H|14=0|17=000000000000000000000000000000000000006P|20=0|37=00000000000000115|38=8|39=0|40=2|44=169525|48=17704|54=1|55=ES|60=20130808-13:30:13|107=ESU3|150=0|151=8|10=108|
20130808-13:30:13.247 : 8=FIX.4.2|9=278|35=8|34=131|49=CME|50=G|52=20130808-13:30:13.246|56=4G8288N|57=ST2|143=IL|369=85|1=test|6=0|11=0000000000000000002I|14=0|17=000000000000000000000000000000000000006Q|20=0|37=00000000000000116|38=8|39=0|40=2|44=169525|48=17704|54=1|55=ES|60=20130808-13:30:13|107=ESU3|150=0|151=8|10=114|
20130808-13:30:13.490 : 8=FIX.4.2|9=000259|35=F|49=4G8288N|50=ST2|56=CME|57=G|142=IL|1603=3redatf|1604=1|1605=3red|34=86|52=20130808-13:30:16.489|369=131|1=test|11=0000000000000000002J|37=116|41=0000000000000000002I|54=1|55=ES|60=20130808-13:30:16.489|107=ESU3|167=FUT|1028=N|9717=0000000000000000002I|10=131|
20130808-13:30:13.495 : 8=FIX.4.2|9=302|35=8|34=132|49=CME|50=G|52=20130808-13:30:13.494|56=4G8288N|57=ST2|143=IL|369=86|1=test|6=0|11=0000000000000000002J|14=0|17=0000000000000000000000000000000000000079|20=0|37=00000000000000116|38=8|39=4|40=2|41=0000000000000000002I|44=169525|48=17704|54=1|55=ES|60=20130808-13:30:13|107=ESU3|150=4|151=8|10=221|
20130808-13:30:13.741 : 8=FIX.4.2|9=000250|35=D|49=4G8288N|50=ST2|56=CME|57=G|142=IL|1603=3redatf|1604=1|1605=3red|34=87|52=20130808-13:30:16.741|369=132|1=test|11=0000000000000000002K|21=1|38=4|40=2|44=169500|54=1|55=ES|59=0|60=20130808-13:30:16.741|77=O|107=ESU3|167=FUT|204=1|1028=N|9702=1|10=053|
20130808-13:30:13.747 : 8=FIX.4.2|9=278|35=8|34=133|49=CME|50=G|52=20130808-13:30:13.746|56=4G8288N|57=ST2|143=IL|369=87|1=test|6=0|11=0000000000000000002K|14=0|17=000000000000000000000000000000000000007I|20=0|37=00000000000000135|38=4|39=0|40=2|44=169500|48=17704|54=1|55=ES|60=20130808-13:30:13|107=ESU3|150=0|151=4|10=104|
20130808-13:30:24.015 : 8=FIX.4.2|9=000259|35=F|49=4G8288N|50=ST2|56=CME|57=G|142=IL|1603=3redatf|1604=1|1605=3red|34=88|52=20130808-13:30:27.014|369=133|1=test|11=0000000000000000002L|37=107|41=00000000000000000028|54=1|55=ES|60=20130808-13:30:27.014|107=ESU3|167=FUT|1028=N|9717=00000000000000000028|10=075|
20130808-13:30:24.021 : 8=FIX.4.2|9=302|35=8|34=134|49=CME|50=G|52=20130808-13:30:24.021|56=4G8288N|57=ST2|143=IL|369=88|1=test|6=0|11=0000000000000000002L|14=0|17=000000000000000000000000000000000000007O|20=0|37=00000000000000107|38=8|39=4|40=2|41=00000000000000000028|44=169525|48=17704|54=1|55=ES|60=20130808-13:30:24|107=ESU3|150=4|151=8|10=222|
20130808-13:30:24.022 : 8=FIX.4.2|9=000259|35=F|49=4G8288N|50=ST2|56=CME|57=G|142=IL|1603=3redatf|1604=1|1605=3red|34=89|52=20130808-13:30:27.015|369=133|1=test|11=0000000000000000002M|37=110|41=0000000000000000002B|54=1|55=ES|60=20130808-13:30:27.015|107=ESU3|167=FUT|1028=N|9717=0000000000000000002B|10=093|
20130808-13:30:24.022 : 8=FIX.4.2|9=000259|35=F|49=4G8288N|50=ST2|56=CME|57=G|142=IL|1603=3redatf|1604=1|1605=3red|34=90|52=20130808-13:30:27.015|369=133|1=test|11=0000000000000000002N|37=111|41=0000000000000000002C|54=1|55=ES|60=20130808-13:30:27.015|107=ESU3|167=FUT|1028=N|9717=0000000000000000002C|10=089|
20130808-13:30:24.022 : 8=FIX.4.2|9=000259|35=F|49=4G8288N|50=ST2|56=CME|57=G|142=IL|1603=3redatf|1604=1|1605=3red|34=91|52=20130808-13:30:27.015|369=133|1=test|11=0000000000000000002O|37=112|41=0000000000000000002D|54=1|55=ES|60=20130808-13:30:27.015|107=ESU3|167=FUT|1028=N|9717=0000000000000000002D|10=094|
20130808-13:30:24.022 : 8=FIX.4.2|9=000259|35=F|49=4G8288N|50=ST2|56=CME|57=G|142=IL|1603=3redatf|1604=1|1605=3red|34=92|52=20130808-13:30:27.015|369=133|1=test|11=0000000000000000002P|37=113|41=0000000000000000002E|54=1|55=ES|60=20130808-13:30:27.015|107=ESU3|167=FUT|1028=N|9717=0000000000000000002E|10=099|
20130808-13:30:24.022 : 8=FIX.4.2|9=000259|35=F|49=4G8288N|50=ST2|56=CME|57=G|142=IL|1603=3redatf|1604=1|1605=3red|34=93|52=20130808-13:30:27.015|369=133|1=test|11=0000000000000000002Q|37=114|41=0000000000000000002F|54=1|55=ES|60=20130808-13:30:27.015|107=ESU3|167=FUT|1028=N|9717=0000000000000000002F|10=104|
20130808-13:30:24.022 : 8=FIX.4.2|9=000259|35=F|49=4G8288N|50=ST2|56=CME|57=G|142=IL|1603=3redatf|1604=1|1605=3red|34=94|52=20130808-13:30:27.016|369=133|1=test|11=0000000000000000002R|37=115|41=0000000000000000002H|54=1|55=ES|60=20130808-13:30:27.016|107=ESU3|167=FUT|1028=N|9717=0000000000000000002H|10=113|
20130808-13:30:24.022 : 8=FIX.4.2|9=000259|35=F|49=4G8288N|50=ST2|56=CME|57=G|142=IL|1603=3redatf|1604=1|1605=3red|34=95|52=20130808-13:30:27.016|369=133|1=test|11=0000000000000000002S|37=135|41=0000000000000000002K|54=1|55=ES|60=20130808-13:30:27.016|107=ESU3|167=FUT|1028=N|9717=0000000000000000002K|10=123|
20130808-13:30:24.022 : 8=FIX.4.2|9=000259|35=F|49=4G8288N|50=ST2|56=CME|57=G|142=IL|1603=3redatf|1604=1|1605=3red|34=96|52=20130808-13:30:27.016|369=133|1=test|11=0000000000000000002T|37=104|41=00000000000000000025|54=1|55=ES|60=20130808-13:30:27.016|107=ESU3|167=FUT|1028=N|9717=00000000000000000025|10=077|
20130808-13:30:24.026 : 8=FIX.4.2|9=302|35=8|34=135|49=CME|50=G|52=20130808-13:30:24.026|56=4G8288N|57=ST2|143=IL|369=96|1=test|6=0|11=0000000000000000002M|14=0|17=000000000000000000000000000000000000007P|20=0|37=00000000000000110|38=5|39=4|40=2|41=0000000000000000002B|44=169525|48=17704|54=1|55=ES|60=20130808-13:30:24|107=ESU3|150=4|151=5|10=227|
20130808-13:30:24.027 : 8=FIX.4.2|9=302|35=8|34=136|49=CME|50=G|52=20130808-13:30:24.026|56=4G8288N|57=ST2|143=IL|369=96|1=test|6=0|11=0000000000000000002N|14=0|17=000000000000000000000000000000000000007Q|20=0|37=00000000000000111|38=8|39=4|40=2|41=0000000000000000002C|44=169525|48=17704|54=1|55=ES|60=20130808-13:30:24|107=ESU3|150=4|151=8|10=238|
20130808-13:30:24.028 : 8=FIX.4.2|9=302|35=8|34=137|49=CME|50=G|52=20130808-13:30:24.027|56=4G8288N|57=ST2|143=IL|369=96|1=test|6=0|11=0000000000000000002O|14=0|17=000000000000000000000000000000000000007R|20=0|37=00000000000000112|38=8|39=4|40=2|41=0000000000000000002D|44=169525|48=17704|54=1|55=ES|60=20130808-13:30:24|107=ESU3|150=4|151=8|10=244|
20130808-13:30:24.028 : 8=FIX.4.2|9=302|35=8|34=138|49=CME|50=G|52=20130808-13:30:24.028|56=4G8288N|57=ST2|143=IL|369=96|1=test|6=0|11=0000000000000000002P|14=0|17=000000000000000000000000000000000000007S|20=0|37=00000000000000113|38=5|39=4|40=2|41=0000000000000000002E|44=169525|48=17704|54=1|55=ES|60=20130808-13:30:24|107=ESU3|150=4|151=5|10=244|
20130808-13:30:24.029 : 8=FIX.4.2|9=302|35=8|34=139|49=CME|50=G|52=20130808-13:30:24.028|56=4G8288N|57=ST2|143=IL|369=96|1=test|6=0|11=0000000000000000002Q|14=0|17=000000000000000000000000000000000000007T|20=0|37=00000000000000114|38=6|39=4|40=2|41=0000000000000000002F|44=169525|48=17704|54=1|55=ES|60=20130808-13:30:24|107=ESU3|150=4|151=6|10=251|
20130808-13:30:24.030 : 8=FIX.4.2|9=302|35=8|34=140|49=CME|50=G|52=20130808-13:30:24.029|56=4G8288N|57=ST2|143=IL|369=96|1=test|6=0|11=0000000000000000002R|14=0|17=000000000000000000000000000000000000007U|20=0|37=00000000000000115|38=8|39=4|40=2|41=0000000000000000002H|44=169525|48=17704|54=1|55=ES|60=20130808-13:30:24|107=ESU3|150=4|151=8|10=253|
20130808-13:30:24.030 : 8=FIX.4.2|9=302|35=8|34=141|49=CME|50=G|52=20130808-13:30:24.030|56=4G8288N|57=ST2|143=IL|369=96|1=test|6=0|11=0000000000000000002S|14=0|17=000000000000000000000000000000000000007V|20=0|37=00000000000000135|38=4|39=4|40=2|41=0000000000000000002K|44=169500|48=17704|54=1|55=ES|60=20130808-13:30:24|107=ESU3|150=4|151=4|10=238|
20130808-13:30:24.031 : 8=FIX.4.2|9=302|35=8|34=142|49=CME|50=G|52=20130808-13:30:24.031|56=4G8288N|57=ST2|143=IL|369=96|1=test|6=0|11=0000000000000000002T|14=0|17=000000000000000000000000000000000000007W|20=0|37=00000000000000104|38=6|39=4|40=2|41=00000000000000000025|44=169525|48=17704|54=1|55=ES|60=20130808-13:30:24|107=ESU3|150=4|151=6|10=227|
20130808-13:30:24.269 : 8=FIX.4.2|9=000250|35=D|49=4G8288N|50=ST2|56=CME|57=G|142=IL|1603=3redatf|1604=1|1605=3red|34=97|52=20130808-13:30:27.269|369=142|1=test|11=0000000000000000002U|21=1|38=5|40=2|44=169500|54=1|55=ES|59=0|60=20130808-13:30:27.269|77=O|107=ESU3|167=FUT|204=1|1028=N|9702=1|10=080|
20130808-13:30:24.275 : 8=FIX.4.2|9=278|35=8|34=143|49=CME|50=G|52=20130808-13:30:24.274|56=4G8288N|57=ST2|143=IL|369=97|1=test|6=0|11=0000000000000000002U|14=0|17=000000000000000000000000000000000000007X|20=0|37=00000000000000139|38=5|39=0|40=2|44=169500|48=17704|54=1|55=ES|60=20130808-13:30:24|107=ESU3|150=0|151=5|10=137|
20130808-13:30:24.275 : 8=FIX.4.2|9=000250|35=D|49=4G8288N|50=ST2|56=CME|57=G|142=IL|1603=3redatf|1604=1|1605=3red|34=98|52=20130808-13:30:27.269|369=142|1=test|11=0000000000000000002V|21=1|38=5|40=2|44=169500|54=1|55=ES|59=0|60=20130808-13:30:27.269|77=O|107=ESU3|167=FUT|204=1|1028=N|9702=1|10=082|
20130808-13:30:24.275 : 8=FIX.4.2|9=000250|35=D|49=4G8288N|50=ST2|56=CME|57=G|142=IL|1603=3redatf|1604=1|1605=3red|34=99|52=20130808-13:30:27.270|369=142|1=test|11=0000000000000000002W|21=1|38=4|40=2|44=169500|54=1|55=ES|59=0|60=20130808-13:30:27.270|77=O|107=ESU3|167=FUT|204=1|1028=N|9702=1|10=067|
20130808-13:30:24.275 : 8=FIX.4.2|9=000251|35=D|49=4G8288N|50=ST2|56=CME|57=G|142=IL|1603=3redatf|1604=1|1605=3red|34=100|52=20130808-13:30:27.271|369=142|1=test|11=0000000000000000002X|21=1|38=7|40=2|44=169500|54=1|55=ES|59=0|60=20130808-13:30:27.271|77=O|107=ESU3|167=FUT|204=1|1028=N|9702=1|10=105|
20130808-13:30:24.275 : 8=FIX.4.2|9=000251|35=D|49=4G8288N|50=ST2|56=CME|57=G|142=IL|1603=3redatf|1604=1|1605=3red|34=101|52=20130808-13:30:27.271|369=142|1=test|11=0000000000000000002Y|21=1|38=7|40=2|44=169500|54=1|55=ES|59=0|60=20130808-13:30:27.271|77=O|107=ESU3|167=FUT|204=1|1028=N|9702=1|10=107|
20130808-13:30:24.276 : 8=FIX.4.2|9=000251|35=D|49=4G8288N|50=ST2|56=CME|57=G|142=IL|1603=3redatf|1604=1|1605=3red|34=102|52=20130808-13:30:27.272|369=142|1=test|11=0000000000000000002Z|21=1|38=8|40=2|44=169500|54=1|55=ES|59=0|60=20130808-13:30:27.272|77=O|107=ESU3|167=FUT|204=1|1028=N|9702=1|10=112|
20130808-13:30:24.276 : 8=FIX.4.2|9=000251|35=D|49=4G8288N|50=ST2|56=CME|57=G|142=IL|1603=3redatf|1604=1|1605=3red|34=103|52=20130808-13:30:27.272|369=142|1=test|11=00000000000000000030|21=1|38=5|40=2|44=169500|54=1|55=ES|59=0|60=20130808-13:30:27.272|77=O|107=ESU3|167=FUT|204=1|1028=N|9702=1|10=069|
20130808-13:30:24.276 : 8=FIX.4.2|9=000251|35=D|49=4G8288N|50=ST2|56=CME|57=G|142=IL|1603=3redatf|1604=1|1605=3red|34=104|52=20130808-13:30:27.273|369=142|1=test|11=00000000000000000031|21=1|38=6|40=2|44=169500|54=1|55=ES|59=0|60=20130808-13:30:27.273|77=O|107=ESU3|167=FUT|204=1|1028=N|9702=1|10=074|
20130808-13:30:24.276 : 8=FIX.4.2|9=000251|35=D|49=4G8288N|50=ST2|56=CME|57=G|142=IL|1603=3redatf|1604=1|1605=3red|34=105|52=20130808-13:30:27.273|369=142|1=test|11=00000000000000000032|21=1|38=6|40=2|44=169500|54=1|55=ES|59=0|60=20130808-13:30:27.273|77=O|107=ESU3|167=FUT|204=1|1028=N|9702=1|10=076|
20130808-13:30:24.280 : 8=FIX.4.2|9=279|35=8|34=144|49=CME|50=G|52=20130808-13:30:24.279|56=4G8288N|57=ST2|143=IL|369=105|1=test|6=0|11=0000000000000000002V|14=0|17=000000000000000000000000000000000000007Y|20=0|37=00000000000000140|38=5|39=0|40=2|44=169500|48=17704|54=1|55=ES|60=20130808-13:30:24|107=ESU3|150=0|151=5|10=176|
20130808-13:30:24.281 : 8=FIX.4.2|9=279|35=8|34=145|49=CME|50=G|52=20130808-13:30:24.280|56=4G8288N|57=ST2|143=IL|369=105|1=test|6=0|11=0000000000000000002W|14=0|17=000000000000000000000000000000000000007Z|20=0|37=00000000000000141|38=4|39=0|40=2|44=169500|48=17704|54=1|55=ES|60=20130808-13:30:24|107=ESU3|150=0|151=4|10=170|
20130808-13:30:24.282 : 8=FIX.4.2|9=279|35=8|34=146|49=CME|50=G|52=20130808-13:30:24.281|56=4G8288N|57=ST2|143=IL|369=105|1=test|6=0|11=0000000000000000002X|14=0|17=0000000000000000000000000000000000000080|20=0|37=00000000000000142|38=7|39=0|40=2|44=169500|48=17704|54=1|55=ES|60=20130808-13:30:24|107=ESU3|150=0|151=7|10=139|
20130808-13:30:24.282 : 8=FIX.4.2|9=279|35=8|34=147|49=CME|50=G|52=20130808-13:30:24.282|56=4G8288N|57=ST2|143=IL|369=105|1=test|6=0|11=0000000000000000002Y|14=0|17=0000000000000000000000000000000000000081|20=0|37=00000000000000143|38=7|39=0|40=2|44=169500|48=17704|54=1|55=ES|60=20130808-13:30:24|107=ESU3|150=0|151=7|10=144|
20130808-13:30:24.283 : 8=FIX.4.2|9=279|35=8|34=148|49=CME|50=G|52=20130808-13:30:24.283|56=4G8288N|57=ST2|143=IL|369=105|1=test|6=0|11=0000000000000000002Z|14=0|17=0000000000000000000000000000000000000082|20=0|37=00000000000000144|38=8|39=0|40=2|44=169500|48=17704|54=1|55=ES|60=20130808-13:30:24|107=ESU3|150=0|151=8|10=151|
20130808-13:30:24.284 : 8=FIX.4.2|9=279|35=8|34=149|49=CME|50=G|52=20130808-13:30:24.283|56=4G8288N|57=ST2|143=IL|369=105|1=test|6=0|11=00000000000000000030|14=0|17=0000000000000000000000000000000000000083|20=0|37=00000000000000145|38=5|39=0|40=2|44=169500|48=17704|54=1|55=ES|60=20130808-13:30:24|107=ESU3|150=0|151=5|10=107|
20130808-13:30:24.285 : 8=FIX.4.2|9=279|35=8|34=150|49=CME|50=G|52=20130808-13:30:24.284|56=4G8288N|57=ST2|143=IL|369=105|1=test|6=0|11=00000000000000000031|14=0|17=0000000000000000000000000000000000000084|20=0|37=00000000000000146|38=6|39=0|40=2|44=169500|48=17704|54=1|55=ES|60=20130808-13:30:24|107=ESU3|150=0|151=6|10=105|
20130808-13:30:24.286 : 8=FIX.4.2|9=279|35=8|34=151|49=CME|50=G|52=20130808-13:30:24.285|56=4G8288N|57=ST2|143=IL|369=105|1=test|6=0|11=00000000000000000032|14=0|17=0000000000000000000000000000000000000085|20=0|37=00000000000000147|38=6|39=0|40=2|44=169500|48=17704|54=1|55=ES|60=20130808-13:30:24|107=ESU3|150=0|151=6|10=110|
20130808-13:30:34.554 : 8=FIX.4.2|9=000260|35=F|49=4G8288N|50=ST2|56=CME|57=G|142=IL|1603=3redatf|1604=1|1605=3red|34=106|52=20130808-13:30:37.553|369=151|1=test|11=00000000000000000033|37=139|41=0000000000000000002U|54=1|55=ES|60=20130808-13:30:37.553|107=ESU3|167=FUT|1028=N|9717=0000000000000000002U|10=163|
20130808-13:30:34.559 : 8=FIX.4.2|9=303|35=8|34=152|49=CME|50=G|52=20130808-13:30:34.558|56=4G8288N|57=ST2|143=IL|369=106|1=test|6=0|11=00000000000000000033|14=0|17=000000000000000000000000000000000000008Y|20=0|37=00000000000000139|38=5|39=4|40=2|41=0000000000000000002U|44=169500|48=17704|54=1|55=ES|60=20130808-13:30:34|107=ESU3|150=4|151=5|10=031|
20130808-13:30:34.559 : 8=FIX.4.2|9=000260|35=F|49=4G8288N|50=ST2|56=CME|57=G|142=IL|1603=3redatf|1604=1|1605=3red|34=107|52=20130808-13:30:37.554|369=151|1=test|11=00000000000000000034|37=140|41=0000000000000000002V|54=1|55=ES|60=20130808-13:30:37.554|107=ESU3|167=FUT|1028=N|9717=0000000000000000002V|10=161|
20130808-13:30:34.559 : 8=FIX.4.2|9=000260|35=F|49=4G8288N|50=ST2|56=CME|57=G|142=IL|1603=3redatf|1604=1|1605=3red|34=108|52=20130808-13:30:37.554|369=151|1=test|11=00000000000000000035|37=141|41=0000000000000000002W|54=1|55=ES|60=20130808-13:30:37.554|107=ESU3|167=FUT|1028=N|9717=0000000000000000002W|10=166|
20130808-13:30:34.559 : 8=FIX.4.2|9=000260|35=F|49=4G8288N|50=ST2|56=CME|57=G|142=IL|1603=3redatf|1604=1|1605=3red|34=109|52=20130808-13:30:37.554|369=151|1=test|11=00000000000000000036|37=142|41=0000000000000000002X|54=1|55=ES|60=20130808-13:30:37.554|107=ESU3|167=FUT|1028=N|9717=0000000000000000002X|10=171|
20130808-13:30:34.559 : 8=FIX.4.2|9=000260|35=F|49=4G8288N|50=ST2|56=CME|57=G|142=IL|1603=3redatf|1604=1|1605=3red|34=110|52=20130808-13:30:37.554|369=151|1=test|11=00000000000000000037|37=143|41=0000000000000000002Y|54=1|55=ES|60=20130808-13:30:37.554|107=ESU3|167=FUT|1028=N|9717=0000000000000000002Y|10=167|
20130808-13:30:34.560 : 8=FIX.4.2|9=000260|35=F|49=4G8288N|50=ST2|56=CME|57=G|142=IL|1603=3redatf|1604=1|1605=3red|34=111|52=20130808-13:30:37.554|369=151|1=test|11=00000000000000000038|37=144|41=0000000000000000002Z|54=1|55=ES|60=20130808-13:30:37.554|107=ESU3|167=FUT|1028=N|9717=0000000000000000002Z|10=172|
20130808-13:30:34.560 : 8=FIX.4.2|9=000260|35=F|49=4G8288N|50=ST2|56=CME|57=G|142=IL|1603=3redatf|1604=1|1605=3red|34=112|52=20130808-13:30:37.555|369=151|1=test|11=00000000000000000039|37=145|41=00000000000000000030|54=1|55=ES|60=20130808-13:30:37.555|107=ESU3|167=FUT|1028=N|9717=00000000000000000030|10=095|
20130808-13:30:34.560 : 8=FIX.4.2|9=000260|35=F|49=4G8288N|50=ST2|56=CME|57=G|142=IL|1603=3redatf|1604=1|1605=3red|34=113|52=20130808-13:30:37.555|369=151|1=test|11=0000000000000000003A|37=146|41=00000000000000000031|54=1|55=ES|60=20130808-13:30:37.555|107=ESU3|167=FUT|1028=N|9717=00000000000000000031|10=107|
20130808-13:30:34.560 : 8=FIX.4.2|9=000260|35=F|49=4G8288N|50=ST2|56=CME|57=G|142=IL|1603=3redatf|1604=1|1605=3red|34=114|52=20130808-13:30:37.555|369=151|1=test|11=0000000000000000003B|37=147|41=00000000000000000032|54=1|55=ES|60=20130808-13:30:37.555|107=ESU3|167=FUT|1028=N|9717=00000000000000000032|10=112|
20130808-13:30:34.565 : 8=FIX.4.2|9=303|35=8|34=153|49=CME|50=G|52=20130808-13:30:34.564|56=4G8288N|57=ST2|143=IL|369=114|1=test|6=0|11=00000000000000000034|14=0|17=000000000000000000000000000000000000008Z|20=0|37=00000000000000140|38=5|39=4|40=2|41=0000000000000000002V|44=169500|48=17704|54=1|55=ES|60=20130808-13:30:34|107=ESU3|150=4|151=5|10=023|
20130808-13:30:34.566 : 8=FIX.4.2|9=303|35=8|34=154|49=CME|50=G|52=20130808-13:30:34.565|56=4G8288N|57=ST2|143=IL|369=114|1=test|6=0|11=00000000000000000035|14=0|17=0000000000000000000000000000000000000090|20=0|37=00000000000000141|38=4|39=4|40=2|41=0000000000000000002W|44=169500|48=17704|54=1|55=ES|60=20130808-13:30:34|107=ESU3|150=4|151=4|10=241|
20130808-13:30:34.566 : 8=FIX.4.2|9=303|35=8|34=155|49=CME|50=G|52=20130808-13:30:34.566|56=4G8288N|57=ST2|143=IL|369=114|1=test|6=0|11=00000000000000000036|14=0|17=0000000000000000000000000000000000000091|20=0|37=00000000000000142|38=7|39=4|40=2|41=0000000000000000002X|44=169500|48=17704|54=1|55=ES|60=20130808-13:30:34|107=ESU3|150=4|151=7|10=253|
20130808-13:30:34.567 : 8=FIX.4.2|9=303|35=8|34=156|49=CME|50=G|52=20130808-13:30:34.567|56=4G8288N|57=ST2|143=IL|369=114|1=test|6=0|11=00000000000000000037|14=0|17=0000000000000000000000000000000000000092|20=0|37=00000000000000143|38=7|39=4|40=2|41=0000000000000000002Y|44=169500|48=17704|54=1|55=ES|60=20130808-13:30:34|107=ESU3|150=4|151=7|10=003|
20130808-13:30:34.568 : 8=FIX.4.2|9=303|35=8|34=157|49=CME|50=G|52=20130808-13:30:34.567|56=4G8288N|57=ST2|143=IL|369=114|1=test|6=0|11=00000000000000000038|14=0|17=0000000000000000000000000000000000000093|20=0|37=00000000000000144|38=8|39=4|40=2|41=0000000000000000002Z|44=169500|48=17704|54=1|55=ES|60=20130808-13:30:34|107=ESU3|150=4|151=8|10=010|
20130808-13:30:34.568 : 8=FIX.4.2|9=303|35=8|34=158|49=CME|50=G|52=20130808-13:30:34.568|56=4G8288N|57=ST2|143=IL|369=114|1=test|6=0|11=00000000000000000039|14=0|17=0000000000000000000000000000000000000094|20=0|37=00000000000000145|38=5|39=4|40=2|41=00000000000000000030|44=169500|48=17704|54=1|55=ES|60=20130808-13:30:34|107=ESU3|150=4|151=5|10=224|
20130808-13:30:34.569 : 8=FIX.4.2|9=303|35=8|34=159|49=CME|50=G|52=20130808-13:30:34.568|56=4G8288N|57=ST2|143=IL|369=114|1=test|6=0|11=0000000000000000003A|14=0|17=0000000000000000000000000000000000000095|20=0|37=00000000000000146|38=6|39=4|40=2|41=00000000000000000031|44=169500|48=17704|54=1|55=ES|60=20130808-13:30:34|107=ESU3|150=4|151=6|10=238|
20130808-13:30:34.570 : 8=FIX.4.2|9=303|35=8|34=160|49=CME|50=G|52=20130808-13:30:34.569|56=4G8288N|57=ST2|143=IL|369=114|1=test|6=0|11=0000000000000000003B|14=0|17=0000000000000000000000000000000000000096|20=0|37=00000000000000147|38=6|39=4|40=2|41=00000000000000000032|44=169500|48=17704|54=1|55=ES|60=20130808-13:30:34|107=ESU3|150=4|151=6|10=235|
20130808-13:30:34.809 : 8=FIX.4.2|9=000251|35=D|49=4G8288N|50=ST2|56=CME|57=G|142=IL|1603=3redatf|1604=1|1605=3red|34=115|52=20130808-13:30:37.808|369=160|1=test|11=0000000000000000003C|21=1|38=8|40=2|44=169525|54=1|55=ES|59=0|60=20130808-13:30:37.808|77=O|107=ESU3|167=FUT|204=1|1028=N|9702=1|10=113|
20130808-13:30:35.506 : 8=FIX.4.2|9=279|35=8|34=161|49=CME|50=G|52=20130808-13:30:34.816|56=4G8288N|57=ST2|143=IL|369=115|1=test|6=0|11=0000000000000000003C|14=0|17=0000000000000000000000000000000000000097|20=0|37=00000000000000162|38=8|39=0|40=2|44=169525|48=17704|54=1|55=ES|60=20130808-13:30:34|107=ESU3|150=0|151=8|10=142|
20130808-13:30:35.506 : 8=FIX.4.2|9=000251|35=D|49=4G8288N|50=ST2|56=CME|57=G|142=IL|1603=3redatf|1604=1|1605=3red|34=116|52=20130808-13:30:37.809|369=160|1=test|11=0000000000000000003D|21=1|38=5|40=2|44=169525|54=1|55=ES|59=0|60=20130808-13:30:37.809|77=O|107=ESU3|167=FUT|204=1|1028=N|9702=1|10=114|
20130808-13:30:35.507 : 8=FIX.4.2|9=000251|35=D|49=4G8288N|50=ST2|56=CME|57=G|142=IL|1603=3redatf|1604=1|1605=3red|34=117|52=20130808-13:30:37.810|369=160|1=test|11=0000000000000000003E|21=1|38=4|40=2|44=169525|54=1|55=ES|59=0|60=20130808-13:30:37.810|77=O|107=ESU3|167=FUT|204=1|1028=N|9702=1|10=099|
20130808-13:30:35.507 : 8=FIX.4.2|9=000251|35=D|49=4G8288N|50=ST2|56=CME|57=G|142=IL|1603=3redatf|1604=1|1605=3red|34=118|52=20130808-13:30:37.810|369=160|1=test|11=0000000000000000003F|21=1|38=8|40=2|44=169525|54=1|55=ES|59=0|60=20130808-13:30:37.810|77=O|107=ESU3|167=FUT|204=1|1028=N|9702=1|10=105|
20130808-13:30:35.507 : 8=FIX.4.2|9=000251|35=D|49=4G8288N|50=ST2|56=CME|57=G|142=IL|1603=3redatf|1604=1|1605=3red|34=119|52=20130808-13:30:37.811|369=160|1=test|11=0000000000000000003G|21=1|38=6|40=2|44=169525|54=1|55=ES|59=0|60=20130808-13:30:37.811|77=O|107=ESU3|167=FUT|204=1|1028=N|9702=1|10=107|
20130808-13:30:35.508 : 8=FIX.4.2|9=000251|35=D|49=4G8288N|50=ST2|56=CME|57=G|142=IL|1603=3redatf|1604=1|1605=3red|34=120|52=20130808-13:30:37.811|369=160|1=test|11=0000000000000000003H|21=1|38=6|40=2|44=169525|54=1|55=ES|59=0|60=20130808-13:30:37.811|77=O|107=ESU3|167=FUT|204=1|1028=N|9702=1|10=100|
20130808-13:30:35.508 : 8=FIX.4.2|9=000251|35=D|49=4G8288N|50=ST2|56=CME|57=G|142=IL|1603=3redatf|1604=1|1605=3red|34=121|52=20130808-13:30:37.812|369=160|1=test|11=0000000000000000003I|21=1|38=6|40=2|44=169525|54=1|55=ES|59=0|60=20130808-13:30:37.812|77=O|107=ESU3|167=FUT|204=1|1028=N|9702=1|10=104|
20130808-13:30:35.508 : 8=FIX.4.2|9=000251|35=D|49=4G8288N|50=ST2|56=CME|57=G|142=IL|1603=3redatf|1604=1|1605=3red|34=122|52=20130808-13:30:37.812|369=160|1=test|11=0000000000000000003J|21=1|38=6|40=2|44=169525|54=1|55=ES|59=0|60=20130808-13:30:37.812|77=O|107=ESU3|167=FUT|204=1|1028=N|9702=1|10=106|
20130808-13:30:35.508 : 8=FIX.4.2|9=000251|35=D|49=4G8288N|50=ST2|56=CME|57=G|142=IL|1603=3redatf|1604=1|1605=3red|34=123|52=20130808-13:30:37.813|369=160|1=test|11=0000000000000000003K|21=1|38=6|40=2|44=169525|54=1|55=ES|59=0|60=20130808-13:30:37.813|77=O|107=ESU3|167=FUT|204=1|1028=N|9702=1|10=110|
20130808-13:30:35.513 : 8=FIX.4.2|9=279|35=8|34=162|49=CME|50=G|52=20130808-13:30:35.511|56=4G8288N|57=ST2|143=IL|369=123|1=test|6=0|11=0000000000000000003D|14=0|17=0000000000000000000000000000000000000098|20=0|37=00000000000000163|38=5|39=0|40=2|44=169525|48=17704|54=1|55=ES|60=20130808-13:30:35|107=ESU3|150=0|151=5|10=133|
20130808-13:30:35.514 : 8=FIX.4.2|9=279|35=8|34=163|49=CME|50=G|52=20130808-13:30:35.513|56=4G8288N|57=ST2|143=IL|369=123|1=test|6=0|11=0000000000000000003E|14=0|17=0000000000000000000000000000000000000099|20=0|37=00000000000000164|38=4|39=0|40=2|44=169525|48=17704|54=1|55=ES|60=20130808-13:30:35|107=ESU3|150=0|151=4|10=137|
20130808-13:30:35.515 : 8=FIX.4.2|9=279|35=8|34=164|49=CME|50=G|52=20130808-13:30:35.514|56=4G8288N|57=ST2|143=IL|369=123|1=test|6=0|11=0000000000000000003F|14=0|17=000000000000000000000000000000000000009A|20=0|37=00000000000000165|38=8|39=0|40=2|44=169525|48=17704|54=1|55=ES|60=20130808-13:30:35|107=ESU3|150=0|151=8|10=157|
20130808-13:30:35.516 : 8=FIX.4.2|9=279|35=8|34=165|49=CME|50=G|52=20130808-13:30:35.515|56=4G8288N|57=ST2|143=IL|369=123|1=test|6=0|11=0000000000000000003G|14=0|17=000000000000000000000000000000000000009B|20=0|37=00000000000000166|38=6|39=0|40=2|44=169525|48=17704|54=1|55=ES|60=20130808-13:30:35|107=ESU3|150=0|151=6|10=158|
20130808-13:30:35.517 : 8=FIX.4.2|9=279|35=8|34=166|49=CME|50=G|52=20130808-13:30:35.517|56=4G8288N|57=ST2|143=IL|369=123|1=test|6=0|11=0000000000000000003H|14=0|17=000000000000000000000000000000000000009C|20=0|37=00000000000000167|38=6|39=0|40=2|44=169525|48=17704|54=1|55=ES|60=20130808-13:30:35|107=ESU3|150=0|151=6|10=164|
20130808-13:30:35.518 : 8=FIX.4.2|9=279|35=8|34=167|49=CME|50=G|52=20130808-13:30:35.518|56=4G8288N|57=ST2|143=IL|369=123|1=test|6=0|11=0000000000000000003I|14=0|17=000000000000000000000000000000000000009D|20=0|37=00000000000000168|38=6|39=0|40=2|44=169525|48=17704|54=1|55=ES|60=20130808-13:30:35|107=ESU3|150=0|151=6|10=169|
20130808-13:30:35.520 : 8=FIX.4.2|9=279|35=8|34=168|49=CME|50=G|52=20130808-13:30:35.519|56=4G8288N|57=ST2|143=IL|369=123|1=test|6=0|11=0000000000000000003J|14=0|17=000000000000000000000000000000000000009E|20=0|37=00000000000000169|38=6|39=0|40=2|44=169525|48=17704|54=1|55=ES|60=20130808-13:30:35|107=ESU3|150=0|151=6|10=174|
20130808-13:30:35.521 : 8=FIX.4.2|9=279|35=8|34=169|49=CME|50=G|52=20130808-13:30:35.521|56=4G8288N|57=ST2|143=IL|369=123|1=test|6=0|11=0000000000000000003K|14=0|17=000000000000000000000000000000000000009F|20=0|37=00000000000000170|38=6|39=0|40=2|44=169525|48=17704|54=1|55=ES|60=20130808-13:30:35|107=ESU3|150=0|151=6|10=162|
20130808-13:30:35.568 : 8=FIX.4.2|9=000260|35=F|49=4G8288N|50=ST2|56=CME|57=G|142=IL|1603=3redatf|1604=1|1605=3red|34=124|52=20130808-13:30:38.568|369=169|1=test|11=0000000000000000003L|37=166|41=0000000000000000003G|54=1|55=ES|60=20130808-13:30:38.568|107=ESU3|167=FUT|1028=N|9717=0000000000000000003G|10=185|
20130808-13:30:35.569 : 8=FIX.4.2|9=000260|35=F|49=4G8288N|50=ST2|56=CME|57=G|142=IL|1603=3redatf|1604=1|1605=3red|34=125|52=20130808-13:30:38.569|369=169|1=test|11=0000000000000000003M|37=170|41=0000000000000000003K|54=1|55=ES|60=20130808-13:30:38.569|107=ESU3|167=FUT|1028=N|9717=0000000000000000003K|10=192|
20130808-13:30:35.574 : 8=FIX.4.2|9=303|35=8|34=170|49=CME|50=G|52=20130808-13:30:35.573|56=4G8288N|57=ST2|143=IL|369=125|1=test|6=0|11=0000000000000000003L|14=0|17=000000000000000000000000000000000000009G|20=0|37=00000000000000166|38=6|39=4|40=2|41=0000000000000000003G|44=169525|48=17704|54=1|55=ES|60=20130808-13:30:35|107=ESU3|150=4|151=6|10=035|
20130808-13:30:35.575 : 8=FIX.4.2|9=303|35=8|34=171|49=CME|50=G|52=20130808-13:30:35.574|56=4G8288N|57=ST2|143=IL|369=125|1=test|6=0|11=0000000000000000003M|14=0|17=000000000000000000000000000000000000009H|20=0|37=00000000000000170|38=6|39=4|40=2|41=0000000000000000003K|44=169525|48=17704|54=1|55=ES|60=20130808-13:30:35|107=ESU3|150=4|151=6|10=038|
20130808-13:30:35.821 : 8=FIX.4.2|9=000251|35=D|49=4G8288N|50=ST2|56=CME|57=G|142=IL|1603=3redatf|1604=1|1605=3red|34=126|52=20130808-13:30:38.821|369=171|1=test|11=0000000000000000003N|21=1|38=7|40=2|44=169525|54=1|55=ES|59=0|60=20130808-13:30:38.821|77=O|107=ESU3|167=FUT|204=1|1028=N|9702=1|10=119|
20130808-13:30:35.827 : 8=FIX.4.2|9=279|35=8|34=172|49=CME|50=G|52=20130808-13:30:35.826|56=4G8288N|57=ST2|143=IL|369=126|1=test|6=0|11=0000000000000000003N|14=0|17=000000000000000000000000000000000000009I|20=0|37=00000000000000171|38=7|39=0|40=2|44=169525|48=17704|54=1|55=ES|60=20130808-13:30:35|107=ESU3|150=0|151=7|10=176|
20130808-13:30:35.827 : 8=FIX.4.2|9=000251|35=D|49=4G8288N|50=ST2|56=CME|57=G|142=IL|1603=3redatf|1604=1|1605=3red|34=127|52=20130808-13:30:38.826|369=171|1=test|11=0000000000000000003O|21=1|38=6|40=2|44=169525|54=1|55=ES|59=0|60=20130808-13:30:38.826|77=O|107=ESU3|167=FUT|204=1|1028=N|9702=1|10=130|
20130808-13:30:35.832 : 8=FIX.4.2|9=279|35=8|34=173|49=CME|50=G|52=20130808-13:30:35.831|56=4G8288N|57=ST2|143=IL|369=127|1=test|6=0|11=0000000000000000003O|14=0|17=000000000000000000000000000000000000009J|20=0|37=00000000000000172|38=6|39=0|40=2|44=169525|48=17704|54=1|55=ES|60=20130808-13:30:35|107=ESU3|150=0|151=6|10=175|
20130808-13:30:36.073 : 8=FIX.4.2|9=000260|35=F|49=4G8288N|50=ST2|56=CME|57=G|142=IL|1603=3redatf|1604=1|1605=3red|34=128|52=20130808-13:30:39.073|369=173|1=test|11=0000000000000000003P|37=171|41=0000000000000000003N|54=1|55=ES|60=20130808-13:30:39.073|107=ESU3|167=FUT|1028=N|9717=0000000000000000003N|10=182|
20130808-13:30:36.079 : 8=FIX.4.2|9=303|35=8|34=174|49=CME|50=G|52=20130808-13:30:36.078|56=4G8288N|57=ST2|143=IL|369=128|1=test|6=0|11=0000000000000000003P|14=0|17=000000000000000000000000000000000000009K|20=0|37=00000000000000171|38=7|39=4|40=2|41=0000000000000000003N|44=169525|48=17704|54=1|55=ES|60=20130808-13:30:36|107=ESU3|150=4|151=7|10=057|
20130808-13:30:36.325 : 8=FIX.4.2|9=000251|35=D|49=4G8288N|50=ST2|56=CME|57=G|142=IL|1603=3redatf|1604=1|1605=3red|34=129|52=20130808-13:30:39.324|369=174|1=test|11=0000000000000000003Q|21=1|38=7|40=2|44=169525|54=1|55=ES|59=0|60=20130808-13:30:39.324|77=O|107=ESU3|167=FUT|204=1|1028=N|9702=1|10=126|
20130808-13:30:36.330 : 8=FIX.4.2|9=279|35=8|34=175|49=CME|50=G|52=20130808-13:30:36.329|56=4G8288N|57=ST2|143=IL|369=129|1=test|6=0|11=0000000000000000003Q|14=0|17=000000000000000000000000000000000000009W|20=0|37=00000000000000173|38=7|39=0|40=2|44=169525|48=17704|54=1|55=ES|60=20130808-13:30:36|107=ESU3|150=0|151=7|10=201|
20130808-13:30:46.601 : 8=FIX.4.2|9=000260|35=F|49=4G8288N|50=ST2|56=CME|57=G|142=IL|1603=3redatf|1604=1|1605=3red|34=130|52=20130808-13:30:49.600|369=175|1=test|11=0000000000000000003R|37=162|41=0000000000000000003C|54=1|55=ES|60=20130808-13:30:49.600|107=ESU3|167=FUT|1028=N|9717=0000000000000000003C|10=151|
20130808-13:30:46.606 : 8=FIX.4.2|9=303|35=8|34=176|49=CME|50=G|52=20130808-13:30:46.605|56=4G8288N|57=ST2|143=IL|369=130|1=test|6=0|11=0000000000000000003R|14=0|17=00000000000000000000000000000000000000AG|20=0|37=00000000000000162|38=8|39=4|40=2|41=0000000000000000003C|44=169525|48=17704|54=1|55=ES|60=20130808-13:30:46|107=ESU3|150=4|151=8|10=047|
20130808-13:30:46.606 : 8=FIX.4.2|9=000260|35=F|49=4G8288N|50=ST2|56=CME|57=G|142=IL|1603=3redatf|1604=1|1605=3red|34=131|52=20130808-13:30:49.601|369=175|1=test|11=0000000000000000003S|37=163|41=0000000000000000003D|54=1|55=ES|60=20130808-13:30:49.601|107=ESU3|167=FUT|1028=N|9717=0000000000000000003D|10=158|
20130808-13:30:46.607 : 8=FIX.4.2|9=000260|35=F|49=4G8288N|50=ST2|56=CME|57=G|142=IL|1603=3redatf|1604=1|1605=3red|34=132|52=20130808-13:30:49.602|369=175|1=test|11=0000000000000000003T|37=164|41=0000000000000000003E|54=1|55=ES|60=20130808-13:30:49.602|107=ESU3|167=FUT|1028=N|9717=0000000000000000003E|10=165|
20130808-13:30:46.607 : 8=FIX.4.2|9=000260|35=F|49=4G8288N|50=ST2|56=CME|57=G|142=IL|1603=3redatf|1604=1|1605=3red|34=133|52=20130808-13:30:49.602|369=175|1=test|11=0000000000000000003U|37=165|41=0000000000000000003F|54=1|55=ES|60=20130808-13:30:49.602|107=ESU3|167=FUT|1028=N|9717=0000000000000000003F|10=170|
20130808-13:30:46.607 : 8=FIX.4.2|9=000260|35=F|49=4G8288N|50=ST2|56=CME|57=G|142=IL|1603=3redatf|1604=1|1605=3red|34=134|52=20130808-13:30:49.603|369=175|1=test|11=0000000000000000003V|37=167|41=0000000000000000003H|54=1|55=ES|60=20130808-13:30:49.603|107=ESU3|167=FUT|1028=N|9717=0000000000000000003H|10=180|
20130808-13:30:46.607 : 8=FIX.4.2|9=000260|35=F|49=4G8288N|50=ST2|56=CME|57=G|142=IL|1603=3redatf|1604=1|1605=3red|34=135|52=20130808-13:30:49.603|369=175|1=test|11=0000000000000000003W|37=168|41=0000000000000000003I|54=1|55=ES|60=20130808-13:30:49.603|107=ESU3|167=FUT|1028=N|9717=0000000000000000003I|10=185|
20130808-13:30:46.607 : 8=FIX.4.2|9=000260|35=F|49=4G8288N|50=ST2|56=CME|57=G|142=IL|1603=3redatf|1604=1|1605=3red|34=136|52=20130808-13:30:49.604|369=175|1=test|11=0000000000000000003X|37=169|41=0000000000000000003J|54=1|55=ES|60=20130808-13:30:49.604|107=ESU3|167=FUT|1028=N|9717=0000000000000000003J|10=192|
20130808-13:30:46.607 : 8=FIX.4.2|9=000260|35=F|49=4G8288N|50=ST2|56=CME|57=G|142=IL|1603=3redatf|1604=1|1605=3red|34=137|52=20130808-13:30:49.604|369=175|1=test|11=0000000000000000003Y|37=172|41=0000000000000000003O|54=1|55=ES|60=20130808-13:30:49.604|107=ESU3|167=FUT|1028=N|9717=0000000000000000003O|10=198|
